{"abi":[{"inputs":[{"internalType":"uint256","name":"minimum","type":"uint256"},{"internalType":"string","name":"title","type":"string"},{"internalType":"string","name":"description","type":"string"}],"name":"createCampaign","outputs":[],"stateMutability":"nonpayable","type":"function"},{"inputs":[{"internalType":"uint256","name":"","type":"uint256"}],"name":"deployedCampaigns","outputs":[{"internalType":"address","name":"","type":"address"}],"stateMutability":"view","type":"function"},{"inputs":[],"name":"getDeployedCampaigns","outputs":[{"internalType":"address[]","name":"","type":"address[]"}],"stateMutability":"view","type":"function"}],"devdoc":{"kind":"dev","methods":{},"version":1},"evm":{"assembly":"    /* \"Campaign.sol\":88:678  contract CampaignFactory {... */\n  mstore(0x40, 0x80)\n  callvalue\n  dup1\n  iszero\n  tag_1\n  jumpi\n  0x00\n  dup1\n  revert\ntag_1:\n  pop\n  dataSize(sub_0)\n  dup1\n  dataOffset(sub_0)\n  0x00\n  codecopy\n  0x00\n  return\nstop\n\nsub_0: assembly {\n        /* \"Campaign.sol\":88:678  contract CampaignFactory {... */\n      mstore(0x40, 0x80)\n      callvalue\n      dup1\n      iszero\n      tag_1\n      jumpi\n      0x00\n      dup1\n      revert\n    tag_1:\n      pop\n      jumpi(tag_2, lt(calldatasize, 0x04))\n      shr(0xe0, calldataload(0x00))\n      dup1\n      0x339d50a5\n      eq\n      tag_3\n      jumpi\n      dup1\n      0x4acb9d4f\n      eq\n      tag_4\n      jumpi\n      dup1\n      0xfad4dee3\n      eq\n      tag_5\n      jumpi\n    tag_2:\n      0x00\n      dup1\n      revert\n        /* \"Campaign.sol\":156:191  address [] public deployedCampaigns */\n    tag_3:\n      tag_6\n      0x04\n      dup1\n      calldatasize\n      sub\n      dup2\n      add\n      swap1\n      tag_7\n      swap2\n      swap1\n      tag_8\n      jump\t// in\n    tag_7:\n      tag_9\n      jump\t// in\n    tag_6:\n      mload(0x40)\n      tag_10\n      swap2\n      swap1\n      tag_11\n      jump\t// in\n    tag_10:\n      mload(0x40)\n      dup1\n      swap2\n      sub\n      swap1\n      return\n        /* \"Campaign.sol\":562:675  function getDeployedCampaigns() public  view returns (address[] memory) {... */\n    tag_4:\n      tag_12\n      tag_13\n      jump\t// in\n    tag_12:\n      mload(0x40)\n      tag_14\n      swap2\n      swap1\n      tag_15\n      jump\t// in\n    tag_14:\n      mload(0x40)\n      dup1\n      swap2\n      sub\n      swap1\n      return\n        /* \"Campaign.sol\":198:511  function createCampaign(uint minimum, string memory title, string memory description) public {... */\n    tag_5:\n      tag_16\n      0x04\n      dup1\n      calldatasize\n      sub\n      dup2\n      add\n      swap1\n      tag_17\n      swap2\n      swap1\n      tag_18\n      jump\t// in\n    tag_17:\n      tag_19\n      jump\t// in\n    tag_16:\n      stop\n        /* \"Campaign.sol\":156:191  address [] public deployedCampaigns */\n    tag_9:\n      0x00\n      dup2\n      dup2\n      sload\n      dup2\n      lt\n      tag_20\n      jumpi\n      0x00\n      dup1\n      revert\n    tag_20:\n      swap1\n      0x00\n      mstore\n      keccak256(0x00, 0x20)\n      add\n      0x00\n      swap2\n      pop\n      sload\n      swap1\n      0x0100\n      exp\n      swap1\n      div\n      0xffffffffffffffffffffffffffffffffffffffff\n      and\n      dup2\n      jump\t// out\n        /* \"Campaign.sol\":562:675  function getDeployedCampaigns() public  view returns (address[] memory) {... */\n    tag_13:\n        /* \"Campaign.sol\":616:632  address[] memory */\n      0x60\n        /* \"Campaign.sol\":651:668  deployedCampaigns */\n      0x00\n        /* \"Campaign.sol\":644:668  return deployedCampaigns */\n      dup1\n      sload\n      dup1\n      0x20\n      mul\n      0x20\n      add\n      mload(0x40)\n      swap1\n      dup2\n      add\n      0x40\n      mstore\n      dup1\n      swap3\n      swap2\n      swap1\n      dup2\n      dup2\n      mstore\n      0x20\n      add\n      dup3\n      dup1\n      sload\n      dup1\n      iszero\n      tag_23\n      jumpi\n      0x20\n      mul\n      dup3\n      add\n      swap2\n      swap1\n      0x00\n      mstore\n      keccak256(0x00, 0x20)\n      swap1\n    tag_24:\n      dup2\n      0x00\n      swap1\n      sload\n      swap1\n      0x0100\n      exp\n      swap1\n      div\n      0xffffffffffffffffffffffffffffffffffffffff\n      and\n      0xffffffffffffffffffffffffffffffffffffffff\n      and\n      dup2\n      mstore\n      0x20\n      add\n      swap1\n      0x01\n      add\n      swap1\n      dup1\n      dup4\n      gt\n      tag_24\n      jumpi\n    tag_23:\n      pop\n      pop\n      pop\n      pop\n      pop\n      swap1\n      pop\n        /* \"Campaign.sol\":562:675  function getDeployedCampaigns() public  view returns (address[] memory) {... */\n      swap1\n      jump\t// out\n        /* \"Campaign.sol\":198:511  function createCampaign(uint minimum, string memory title, string memory description) public {... */\n    tag_19:\n        /* \"Campaign.sol\":334:353  address newCampaign */\n      0x00\n        /* \"Campaign.sol\":377:384  minimum */\n      dup4\n        /* \"Campaign.sol\":386:396  msg.sender */\n      caller\n        /* \"Campaign.sol\":398:403  title */\n      dup5\n        /* \"Campaign.sol\":405:416  description */\n      dup5\n        /* \"Campaign.sol\":364:417  new Campaign(minimum, msg.sender, title, description) */\n      mload(0x40)\n      tag_26\n      swap1\n      tag_27\n      jump\t// in\n    tag_26:\n      tag_28\n      swap5\n      swap4\n      swap3\n      swap2\n      swap1\n      tag_29\n      jump\t// in\n    tag_28:\n      mload(0x40)\n      dup1\n      swap2\n      sub\n      swap1\n      0x00\n      create\n      dup1\n      iszero\n      dup1\n      iszero\n      tag_30\n      jumpi\n      returndatasize\n      0x00\n      dup1\n      returndatacopy\n      revert(0x00, returndatasize)\n    tag_30:\n      pop\n        /* \"Campaign.sol\":334:418  address newCampaign = address(new Campaign(minimum, msg.sender, title, description)) */\n      swap1\n      pop\n        /* \"Campaign.sol\":469:486  deployedCampaigns */\n      0x00\n        /* \"Campaign.sol\":492:503  newCampaign */\n      dup2\n        /* \"Campaign.sol\":469:504  deployedCampaigns.push(newCampaign) */\n      swap1\n      dup1\n      0x01\n      dup2\n      sload\n      add\n      dup1\n      dup3\n      sstore\n      dup1\n      swap2\n      pop\n      pop\n      0x01\n      swap1\n      sub\n      swap1\n      0x00\n      mstore\n      keccak256(0x00, 0x20)\n      add\n      0x00\n      swap1\n      swap2\n      swap1\n      swap2\n      swap1\n      swap2\n      0x0100\n      exp\n      dup2\n      sload\n      dup2\n      0xffffffffffffffffffffffffffffffffffffffff\n      mul\n      not\n      and\n      swap1\n      dup4\n      0xffffffffffffffffffffffffffffffffffffffff\n      and\n      mul\n      or\n      swap1\n      sstore\n      pop\n        /* \"Campaign.sol\":291:511  {... */\n      pop\n        /* \"Campaign.sol\":198:511  function createCampaign(uint minimum, string memory title, string memory description) public {... */\n      pop\n      pop\n      pop\n      jump\t// out\n    tag_27:\n      dataSize(sub_0)\n      dup1\n      dataOffset(sub_0)\n      dup4\n      codecopy\n      add\n      swap1\n      jump\t// out\n        /* \"#utility.yul\":7:82   */\n    tag_32:\n        /* \"#utility.yul\":40:46   */\n      0x00\n        /* \"#utility.yul\":73:75   */\n      0x40\n        /* \"#utility.yul\":67:76   */\n      mload\n        /* \"#utility.yul\":57:76   */\n      swap1\n      pop\n        /* \"#utility.yul\":7:82   */\n      swap1\n      jump\t// out\n        /* \"#utility.yul\":88:205   */\n    tag_33:\n        /* \"#utility.yul\":197:198   */\n      0x00\n        /* \"#utility.yul\":194:195   */\n      dup1\n        /* \"#utility.yul\":187:199   */\n      revert\n        /* \"#utility.yul\":211:328   */\n    tag_34:\n        /* \"#utility.yul\":320:321   */\n      0x00\n        /* \"#utility.yul\":317:318   */\n      dup1\n        /* \"#utility.yul\":310:322   */\n      revert\n        /* \"#utility.yul\":334:411   */\n    tag_35:\n        /* \"#utility.yul\":371:378   */\n      0x00\n        /* \"#utility.yul\":400:405   */\n      dup2\n        /* \"#utility.yul\":389:405   */\n      swap1\n      pop\n        /* \"#utility.yul\":334:411   */\n      swap2\n      swap1\n      pop\n      jump\t// out\n        /* \"#utility.yul\":417:539   */\n    tag_36:\n        /* \"#utility.yul\":490:514   */\n      tag_69\n        /* \"#utility.yul\":508:513   */\n      dup2\n        /* \"#utility.yul\":490:514   */\n      tag_35\n      jump\t// in\n    tag_69:\n        /* \"#utility.yul\":483:488   */\n      dup2\n        /* \"#utility.yul\":480:515   */\n      eq\n        /* \"#utility.yul\":470:533   */\n      tag_70\n      jumpi\n        /* \"#utility.yul\":529:530   */\n      0x00\n        /* \"#utility.yul\":526:527   */\n      dup1\n        /* \"#utility.yul\":519:531   */\n      revert\n        /* \"#utility.yul\":470:533   */\n    tag_70:\n        /* \"#utility.yul\":417:539   */\n      pop\n      jump\t// out\n        /* \"#utility.yul\":545:684   */\n    tag_37:\n        /* \"#utility.yul\":591:596   */\n      0x00\n        /* \"#utility.yul\":629:635   */\n      dup2\n        /* \"#utility.yul\":616:636   */\n      calldataload\n        /* \"#utility.yul\":607:636   */\n      swap1\n      pop\n        /* \"#utility.yul\":645:678   */\n      tag_72\n        /* \"#utility.yul\":672:677   */\n      dup2\n        /* \"#utility.yul\":645:678   */\n      tag_36\n      jump\t// in\n    tag_72:\n        /* \"#utility.yul\":545:684   */\n      swap3\n      swap2\n      pop\n      pop\n      jump\t// out\n        /* \"#utility.yul\":690:1019   */\n    tag_8:\n        /* \"#utility.yul\":749:755   */\n      0x00\n        /* \"#utility.yul\":798:800   */\n      0x20\n        /* \"#utility.yul\":786:795   */\n      dup3\n        /* \"#utility.yul\":777:784   */\n      dup5\n        /* \"#utility.yul\":773:796   */\n      sub\n        /* \"#utility.yul\":769:801   */\n      slt\n        /* \"#utility.yul\":766:885   */\n      iszero\n      tag_74\n      jumpi\n        /* \"#utility.yul\":804:883   */\n      tag_75\n      tag_33\n      jump\t// in\n    tag_75:\n        /* \"#utility.yul\":766:885   */\n    tag_74:\n        /* \"#utility.yul\":924:925   */\n      0x00\n        /* \"#utility.yul\":949:1002   */\n      tag_76\n        /* \"#utility.yul\":994:1001   */\n      dup5\n        /* \"#utility.yul\":985:991   */\n      dup3\n        /* \"#utility.yul\":974:983   */\n      dup6\n        /* \"#utility.yul\":970:992   */\n      add\n        /* \"#utility.yul\":949:1002   */\n      tag_37\n      jump\t// in\n    tag_76:\n        /* \"#utility.yul\":939:1002   */\n      swap2\n      pop\n        /* \"#utility.yul\":895:1012   */\n      pop\n        /* \"#utility.yul\":690:1019   */\n      swap3\n      swap2\n      pop\n      pop\n      jump\t// out\n        /* \"#utility.yul\":1025:1151   */\n    tag_38:\n        /* \"#utility.yul\":1062:1069   */\n      0x00\n        /* \"#utility.yul\":1102:1144   */\n      0xffffffffffffffffffffffffffffffffffffffff\n        /* \"#utility.yul\":1095:1100   */\n      dup3\n        /* \"#utility.yul\":1091:1145   */\n      and\n        /* \"#utility.yul\":1080:1145   */\n      swap1\n      pop\n        /* \"#utility.yul\":1025:1151   */\n      swap2\n      swap1\n      pop\n      jump\t// out\n        /* \"#utility.yul\":1157:1253   */\n    tag_39:\n        /* \"#utility.yul\":1194:1201   */\n      0x00\n        /* \"#utility.yul\":1223:1247   */\n      tag_79\n        /* \"#utility.yul\":1241:1246   */\n      dup3\n        /* \"#utility.yul\":1223:1247   */\n      tag_38\n      jump\t// in\n    tag_79:\n        /* \"#utility.yul\":1212:1247   */\n      swap1\n      pop\n        /* \"#utility.yul\":1157:1253   */\n      swap2\n      swap1\n      pop\n      jump\t// out\n        /* \"#utility.yul\":1259:1377   */\n    tag_40:\n        /* \"#utility.yul\":1346:1370   */\n      tag_81\n        /* \"#utility.yul\":1364:1369   */\n      dup2\n        /* \"#utility.yul\":1346:1370   */\n      tag_39\n      jump\t// in\n    tag_81:\n        /* \"#utility.yul\":1341:1344   */\n      dup3\n        /* \"#utility.yul\":1334:1371   */\n      mstore\n        /* \"#utility.yul\":1259:1377   */\n      pop\n      pop\n      jump\t// out\n        /* \"#utility.yul\":1383:1605   */\n    tag_11:\n        /* \"#utility.yul\":1476:1480   */\n      0x00\n        /* \"#utility.yul\":1514:1516   */\n      0x20\n        /* \"#utility.yul\":1503:1512   */\n      dup3\n        /* \"#utility.yul\":1499:1517   */\n      add\n        /* \"#utility.yul\":1491:1517   */\n      swap1\n      pop\n        /* \"#utility.yul\":1527:1598   */\n      tag_83\n        /* \"#utility.yul\":1595:1596   */\n      0x00\n        /* \"#utility.yul\":1584:1593   */\n      dup4\n        /* \"#utility.yul\":1580:1597   */\n      add\n        /* \"#utility.yul\":1571:1577   */\n      dup5\n        /* \"#utility.yul\":1527:1598   */\n      tag_40\n      jump\t// in\n    tag_83:\n        /* \"#utility.yul\":1383:1605   */\n      swap3\n      swap2\n      pop\n      pop\n      jump\t// out\n        /* \"#utility.yul\":1611:1725   */\n    tag_41:\n        /* \"#utility.yul\":1678:1684   */\n      0x00\n        /* \"#utility.yul\":1712:1717   */\n      dup2\n        /* \"#utility.yul\":1706:1718   */\n      mload\n        /* \"#utility.yul\":1696:1718   */\n      swap1\n      pop\n        /* \"#utility.yul\":1611:1725   */\n      swap2\n      swap1\n      pop\n      jump\t// out\n        /* \"#utility.yul\":1731:1915   */\n    tag_42:\n        /* \"#utility.yul\":1830:1841   */\n      0x00\n        /* \"#utility.yul\":1864:1870   */\n      dup3\n        /* \"#utility.yul\":1859:1862   */\n      dup3\n        /* \"#utility.yul\":1852:1871   */\n      mstore\n        /* \"#utility.yul\":1904:1908   */\n      0x20\n        /* \"#utility.yul\":1899:1902   */\n      dup3\n        /* \"#utility.yul\":1895:1909   */\n      add\n        /* \"#utility.yul\":1880:1909   */\n      swap1\n      pop\n        /* \"#utility.yul\":1731:1915   */\n      swap3\n      swap2\n      pop\n      pop\n      jump\t// out\n        /* \"#utility.yul\":1921:2053   */\n    tag_43:\n        /* \"#utility.yul\":1988:1992   */\n      0x00\n        /* \"#utility.yul\":2011:2014   */\n      dup2\n        /* \"#utility.yul\":2003:2014   */\n      swap1\n      pop\n        /* \"#utility.yul\":2041:2045   */\n      0x20\n        /* \"#utility.yul\":2036:2039   */\n      dup3\n        /* \"#utility.yul\":2032:2046   */\n      add\n        /* \"#utility.yul\":2024:2046   */\n      swap1\n      pop\n        /* \"#utility.yul\":1921:2053   */\n      swap2\n      swap1\n      pop\n      jump\t// out\n        /* \"#utility.yul\":2059:2167   */\n    tag_44:\n        /* \"#utility.yul\":2136:2160   */\n      tag_88\n        /* \"#utility.yul\":2154:2159   */\n      dup2\n        /* \"#utility.yul\":2136:2160   */\n      tag_39\n      jump\t// in\n    tag_88:\n        /* \"#utility.yul\":2131:2134   */\n      dup3\n        /* \"#utility.yul\":2124:2161   */\n      mstore\n        /* \"#utility.yul\":2059:2167   */\n      pop\n      pop\n      jump\t// out\n        /* \"#utility.yul\":2173:2352   */\n    tag_45:\n        /* \"#utility.yul\":2242:2252   */\n      0x00\n        /* \"#utility.yul\":2263:2309   */\n      tag_90\n        /* \"#utility.yul\":2305:2308   */\n      dup4\n        /* \"#utility.yul\":2297:2303   */\n      dup4\n        /* \"#utility.yul\":2263:2309   */\n      tag_44\n      jump\t// in\n    tag_90:\n        /* \"#utility.yul\":2341:2345   */\n      0x20\n        /* \"#utility.yul\":2336:2339   */\n      dup4\n        /* \"#utility.yul\":2332:2346   */\n      add\n        /* \"#utility.yul\":2318:2346   */\n      swap1\n      pop\n        /* \"#utility.yul\":2173:2352   */\n      swap3\n      swap2\n      pop\n      pop\n      jump\t// out\n        /* \"#utility.yul\":2358:2471   */\n    tag_46:\n        /* \"#utility.yul\":2428:2432   */\n      0x00\n        /* \"#utility.yul\":2460:2464   */\n      0x20\n        /* \"#utility.yul\":2455:2458   */\n      dup3\n        /* \"#utility.yul\":2451:2465   */\n      add\n        /* \"#utility.yul\":2443:2465   */\n      swap1\n      pop\n        /* \"#utility.yul\":2358:2471   */\n      swap2\n      swap1\n      pop\n      jump\t// out\n        /* \"#utility.yul\":2507:3239   */\n    tag_47:\n        /* \"#utility.yul\":2626:2629   */\n      0x00\n        /* \"#utility.yul\":2655:2709   */\n      tag_93\n        /* \"#utility.yul\":2703:2708   */\n      dup3\n        /* \"#utility.yul\":2655:2709   */\n      tag_41\n      jump\t// in\n    tag_93:\n        /* \"#utility.yul\":2725:2811   */\n      tag_94\n        /* \"#utility.yul\":2804:2810   */\n      dup2\n        /* \"#utility.yul\":2799:2802   */\n      dup6\n        /* \"#utility.yul\":2725:2811   */\n      tag_42\n      jump\t// in\n    tag_94:\n        /* \"#utility.yul\":2718:2811   */\n      swap4\n      pop\n        /* \"#utility.yul\":2835:2891   */\n      tag_95\n        /* \"#utility.yul\":2885:2890   */\n      dup4\n        /* \"#utility.yul\":2835:2891   */\n      tag_43\n      jump\t// in\n    tag_95:\n        /* \"#utility.yul\":2914:2921   */\n      dup1\n        /* \"#utility.yul\":2945:2946   */\n      0x00\n        /* \"#utility.yul\":2930:3214   */\n    tag_96:\n        /* \"#utility.yul\":2955:2961   */\n      dup4\n        /* \"#utility.yul\":2952:2953   */\n      dup2\n        /* \"#utility.yul\":2949:2962   */\n      lt\n        /* \"#utility.yul\":2930:3214   */\n      iszero\n      tag_98\n      jumpi\n        /* \"#utility.yul\":3031:3037   */\n      dup2\n        /* \"#utility.yul\":3025:3038   */\n      mload\n        /* \"#utility.yul\":3058:3121   */\n      tag_99\n        /* \"#utility.yul\":3117:3120   */\n      dup9\n        /* \"#utility.yul\":3102:3115   */\n      dup3\n        /* \"#utility.yul\":3058:3121   */\n      tag_45\n      jump\t// in\n    tag_99:\n        /* \"#utility.yul\":3051:3121   */\n      swap8\n      pop\n        /* \"#utility.yul\":3144:3204   */\n      tag_100\n        /* \"#utility.yul\":3197:3203   */\n      dup4\n        /* \"#utility.yul\":3144:3204   */\n      tag_46\n      jump\t// in\n    tag_100:\n        /* \"#utility.yul\":3134:3204   */\n      swap3\n      pop\n        /* \"#utility.yul\":2990:3214   */\n      pop\n        /* \"#utility.yul\":2977:2978   */\n      0x01\n        /* \"#utility.yul\":2974:2975   */\n      dup2\n        /* \"#utility.yul\":2970:2979   */\n      add\n        /* \"#utility.yul\":2965:2979   */\n      swap1\n      pop\n        /* \"#utility.yul\":2930:3214   */\n      jump(tag_96)\n    tag_98:\n        /* \"#utility.yul\":2934:2948   */\n      pop\n        /* \"#utility.yul\":3230:3233   */\n      dup6\n        /* \"#utility.yul\":3223:3233   */\n      swap4\n      pop\n        /* \"#utility.yul\":2631:3239   */\n      pop\n      pop\n      pop\n        /* \"#utility.yul\":2507:3239   */\n      swap3\n      swap2\n      pop\n      pop\n      jump\t// out\n        /* \"#utility.yul\":3245:3618   */\n    tag_15:\n        /* \"#utility.yul\":3388:3392   */\n      0x00\n        /* \"#utility.yul\":3426:3428   */\n      0x20\n        /* \"#utility.yul\":3415:3424   */\n      dup3\n        /* \"#utility.yul\":3411:3429   */\n      add\n        /* \"#utility.yul\":3403:3429   */\n      swap1\n      pop\n        /* \"#utility.yul\":3475:3484   */\n      dup2\n        /* \"#utility.yul\":3469:3473   */\n      dup2\n        /* \"#utility.yul\":3465:3485   */\n      sub\n        /* \"#utility.yul\":3461:3462   */\n      0x00\n        /* \"#utility.yul\":3450:3459   */\n      dup4\n        /* \"#utility.yul\":3446:3463   */\n      add\n        /* \"#utility.yul\":3439:3486   */\n      mstore\n        /* \"#utility.yul\":3503:3611   */\n      tag_102\n        /* \"#utility.yul\":3606:3610   */\n      dup2\n        /* \"#utility.yul\":3597:3603   */\n      dup5\n        /* \"#utility.yul\":3503:3611   */\n      tag_47\n      jump\t// in\n    tag_102:\n        /* \"#utility.yul\":3495:3611   */\n      swap1\n      pop\n        /* \"#utility.yul\":3245:3618   */\n      swap3\n      swap2\n      pop\n      pop\n      jump\t// out\n        /* \"#utility.yul\":3624:3741   */\n    tag_48:\n        /* \"#utility.yul\":3733:3734   */\n      0x00\n        /* \"#utility.yul\":3730:3731   */\n      dup1\n        /* \"#utility.yul\":3723:3735   */\n      revert\n        /* \"#utility.yul\":3747:3864   */\n    tag_49:\n        /* \"#utility.yul\":3856:3857   */\n      0x00\n        /* \"#utility.yul\":3853:3854   */\n      dup1\n        /* \"#utility.yul\":3846:3858   */\n      revert\n        /* \"#utility.yul\":3870:3972   */\n    tag_50:\n        /* \"#utility.yul\":3911:3917   */\n      0x00\n        /* \"#utility.yul\":3962:3964   */\n      0x1f\n        /* \"#utility.yul\":3958:3965   */\n      not\n        /* \"#utility.yul\":3953:3955   */\n      0x1f\n        /* \"#utility.yul\":3946:3951   */\n      dup4\n        /* \"#utility.yul\":3942:3956   */\n      add\n        /* \"#utility.yul\":3938:3966   */\n      and\n        /* \"#utility.yul\":3928:3966   */\n      swap1\n      pop\n        /* \"#utility.yul\":3870:3972   */\n      swap2\n      swap1\n      pop\n      jump\t// out\n        /* \"#utility.yul\":3978:4158   */\n    tag_51:\n        /* \"#utility.yul\":4026:4103   */\n      0x4e487b7100000000000000000000000000000000000000000000000000000000\n        /* \"#utility.yul\":4023:4024   */\n      0x00\n        /* \"#utility.yul\":4016:4104   */\n      mstore\n        /* \"#utility.yul\":4123:4127   */\n      0x41\n        /* \"#utility.yul\":4120:4121   */\n      0x04\n        /* \"#utility.yul\":4113:4128   */\n      mstore\n        /* \"#utility.yul\":4147:4151   */\n      0x24\n        /* \"#utility.yul\":4144:4145   */\n      0x00\n        /* \"#utility.yul\":4137:4152   */\n      revert\n        /* \"#utility.yul\":4164:4445   */\n    tag_52:\n        /* \"#utility.yul\":4247:4274   */\n      tag_108\n        /* \"#utility.yul\":4269:4273   */\n      dup3\n        /* \"#utility.yul\":4247:4274   */\n      tag_50\n      jump\t// in\n    tag_108:\n        /* \"#utility.yul\":4239:4245   */\n      dup2\n        /* \"#utility.yul\":4235:4275   */\n      add\n        /* \"#utility.yul\":4377:4383   */\n      dup2\n        /* \"#utility.yul\":4365:4375   */\n      dup2\n        /* \"#utility.yul\":4362:4384   */\n      lt\n        /* \"#utility.yul\":4341:4359   */\n      0xffffffffffffffff\n        /* \"#utility.yul\":4329:4339   */\n      dup3\n        /* \"#utility.yul\":4326:4360   */\n      gt\n        /* \"#utility.yul\":4323:4385   */\n      or\n        /* \"#utility.yul\":4320:4408   */\n      iszero\n      tag_109\n      jumpi\n        /* \"#utility.yul\":4388:4406   */\n      tag_110\n      tag_51\n      jump\t// in\n    tag_110:\n        /* \"#utility.yul\":4320:4408   */\n    tag_109:\n        /* \"#utility.yul\":4428:4438   */\n      dup1\n        /* \"#utility.yul\":4424:4426   */\n      0x40\n        /* \"#utility.yul\":4417:4439   */\n      mstore\n        /* \"#utility.yul\":4207:4445   */\n      pop\n        /* \"#utility.yul\":4164:4445   */\n      pop\n      pop\n      jump\t// out\n        /* \"#utility.yul\":4451:4580   */\n    tag_53:\n        /* \"#utility.yul\":4485:4491   */\n      0x00\n        /* \"#utility.yul\":4512:4532   */\n      tag_112\n      tag_32\n      jump\t// in\n    tag_112:\n        /* \"#utility.yul\":4502:4532   */\n      swap1\n      pop\n        /* \"#utility.yul\":4541:4574   */\n      tag_113\n        /* \"#utility.yul\":4569:4573   */\n      dup3\n        /* \"#utility.yul\":4561:4567   */\n      dup3\n        /* \"#utility.yul\":4541:4574   */\n      tag_52\n      jump\t// in\n    tag_113:\n        /* \"#utility.yul\":4451:4580   */\n      swap2\n      swap1\n      pop\n      jump\t// out\n        /* \"#utility.yul\":4586:4894   */\n    tag_54:\n        /* \"#utility.yul\":4648:4652   */\n      0x00\n        /* \"#utility.yul\":4738:4756   */\n      0xffffffffffffffff\n        /* \"#utility.yul\":4730:4736   */\n      dup3\n        /* \"#utility.yul\":4727:4757   */\n      gt\n        /* \"#utility.yul\":4724:4780   */\n      iszero\n      tag_115\n      jumpi\n        /* \"#utility.yul\":4760:4778   */\n      tag_116\n      tag_51\n      jump\t// in\n    tag_116:\n        /* \"#utility.yul\":4724:4780   */\n    tag_115:\n        /* \"#utility.yul\":4798:4827   */\n      tag_117\n        /* \"#utility.yul\":4820:4826   */\n      dup3\n        /* \"#utility.yul\":4798:4827   */\n      tag_50\n      jump\t// in\n    tag_117:\n        /* \"#utility.yul\":4790:4827   */\n      swap1\n      pop\n        /* \"#utility.yul\":4882:4886   */\n      0x20\n        /* \"#utility.yul\":4876:4880   */\n      dup2\n        /* \"#utility.yul\":4872:4887   */\n      add\n        /* \"#utility.yul\":4864:4887   */\n      swap1\n      pop\n        /* \"#utility.yul\":4586:4894   */\n      swap2\n      swap1\n      pop\n      jump\t// out\n        /* \"#utility.yul\":4900:5054   */\n    tag_55:\n        /* \"#utility.yul\":4984:4990   */\n      dup3\n        /* \"#utility.yul\":4979:4982   */\n      dup2\n        /* \"#utility.yul\":4974:4977   */\n      dup4\n        /* \"#utility.yul\":4961:4991   */\n      calldatacopy\n        /* \"#utility.yul\":5046:5047   */\n      0x00\n        /* \"#utility.yul\":5037:5043   */\n      dup4\n        /* \"#utility.yul\":5032:5035   */\n      dup4\n        /* \"#utility.yul\":5028:5044   */\n      add\n        /* \"#utility.yul\":5021:5048   */\n      mstore\n        /* \"#utility.yul\":4900:5054   */\n      pop\n      pop\n      pop\n      jump\t// out\n        /* \"#utility.yul\":5060:5472   */\n    tag_56:\n        /* \"#utility.yul\":5138:5143   */\n      0x00\n        /* \"#utility.yul\":5163:5229   */\n      tag_120\n        /* \"#utility.yul\":5179:5228   */\n      tag_121\n        /* \"#utility.yul\":5221:5227   */\n      dup5\n        /* \"#utility.yul\":5179:5228   */\n      tag_54\n      jump\t// in\n    tag_121:\n        /* \"#utility.yul\":5163:5229   */\n      tag_53\n      jump\t// in\n    tag_120:\n        /* \"#utility.yul\":5154:5229   */\n      swap1\n      pop\n        /* \"#utility.yul\":5252:5258   */\n      dup3\n        /* \"#utility.yul\":5245:5250   */\n      dup2\n        /* \"#utility.yul\":5238:5259   */\n      mstore\n        /* \"#utility.yul\":5290:5294   */\n      0x20\n        /* \"#utility.yul\":5283:5288   */\n      dup2\n        /* \"#utility.yul\":5279:5295   */\n      add\n        /* \"#utility.yul\":5328:5331   */\n      dup5\n        /* \"#utility.yul\":5319:5325   */\n      dup5\n        /* \"#utility.yul\":5314:5317   */\n      dup5\n        /* \"#utility.yul\":5310:5326   */\n      add\n        /* \"#utility.yul\":5307:5332   */\n      gt\n        /* \"#utility.yul\":5304:5416   */\n      iszero\n      tag_122\n      jumpi\n        /* \"#utility.yul\":5335:5414   */\n      tag_123\n      tag_49\n      jump\t// in\n    tag_123:\n        /* \"#utility.yul\":5304:5416   */\n    tag_122:\n        /* \"#utility.yul\":5425:5466   */\n      tag_124\n        /* \"#utility.yul\":5459:5465   */\n      dup5\n        /* \"#utility.yul\":5454:5457   */\n      dup3\n        /* \"#utility.yul\":5449:5452   */\n      dup6\n        /* \"#utility.yul\":5425:5466   */\n      tag_55\n      jump\t// in\n    tag_124:\n        /* \"#utility.yul\":5144:5472   */\n      pop\n        /* \"#utility.yul\":5060:5472   */\n      swap4\n      swap3\n      pop\n      pop\n      pop\n      jump\t// out\n        /* \"#utility.yul\":5492:5832   */\n    tag_57:\n        /* \"#utility.yul\":5548:5553   */\n      0x00\n        /* \"#utility.yul\":5597:5600   */\n      dup3\n        /* \"#utility.yul\":5590:5594   */\n      0x1f\n        /* \"#utility.yul\":5582:5588   */\n      dup4\n        /* \"#utility.yul\":5578:5595   */\n      add\n        /* \"#utility.yul\":5574:5601   */\n      slt\n        /* \"#utility.yul\":5564:5686   */\n      tag_126\n      jumpi\n        /* \"#utility.yul\":5605:5684   */\n      tag_127\n      tag_48\n      jump\t// in\n    tag_127:\n        /* \"#utility.yul\":5564:5686   */\n    tag_126:\n        /* \"#utility.yul\":5722:5728   */\n      dup2\n        /* \"#utility.yul\":5709:5729   */\n      calldataload\n        /* \"#utility.yul\":5747:5826   */\n      tag_128\n        /* \"#utility.yul\":5822:5825   */\n      dup5\n        /* \"#utility.yul\":5814:5820   */\n      dup3\n        /* \"#utility.yul\":5807:5811   */\n      0x20\n        /* \"#utility.yul\":5799:5805   */\n      dup7\n        /* \"#utility.yul\":5795:5812   */\n      add\n        /* \"#utility.yul\":5747:5826   */\n      tag_56\n      jump\t// in\n    tag_128:\n        /* \"#utility.yul\":5738:5826   */\n      swap2\n      pop\n        /* \"#utility.yul\":5554:5832   */\n      pop\n        /* \"#utility.yul\":5492:5832   */\n      swap3\n      swap2\n      pop\n      pop\n      jump\t// out\n        /* \"#utility.yul\":5838:6817   */\n    tag_18:\n        /* \"#utility.yul\":5935:5941   */\n      0x00\n        /* \"#utility.yul\":5943:5949   */\n      dup1\n        /* \"#utility.yul\":5951:5957   */\n      0x00\n        /* \"#utility.yul\":6000:6002   */\n      0x60\n        /* \"#utility.yul\":5988:5997   */\n      dup5\n        /* \"#utility.yul\":5979:5986   */\n      dup7\n        /* \"#utility.yul\":5975:5998   */\n      sub\n        /* \"#utility.yul\":5971:6003   */\n      slt\n        /* \"#utility.yul\":5968:6087   */\n      iszero\n      tag_130\n      jumpi\n        /* \"#utility.yul\":6006:6085   */\n      tag_131\n      tag_33\n      jump\t// in\n    tag_131:\n        /* \"#utility.yul\":5968:6087   */\n    tag_130:\n        /* \"#utility.yul\":6126:6127   */\n      0x00\n        /* \"#utility.yul\":6151:6204   */\n      tag_132\n        /* \"#utility.yul\":6196:6203   */\n      dup7\n        /* \"#utility.yul\":6187:6193   */\n      dup3\n        /* \"#utility.yul\":6176:6185   */\n      dup8\n        /* \"#utility.yul\":6172:6194   */\n      add\n        /* \"#utility.yul\":6151:6204   */\n      tag_37\n      jump\t// in\n    tag_132:\n        /* \"#utility.yul\":6141:6204   */\n      swap4\n      pop\n        /* \"#utility.yul\":6097:6214   */\n      pop\n        /* \"#utility.yul\":6281:6283   */\n      0x20\n        /* \"#utility.yul\":6270:6279   */\n      dup5\n        /* \"#utility.yul\":6266:6284   */\n      add\n        /* \"#utility.yul\":6253:6285   */\n      calldataload\n        /* \"#utility.yul\":6312:6330   */\n      0xffffffffffffffff\n        /* \"#utility.yul\":6304:6310   */\n      dup2\n        /* \"#utility.yul\":6301:6331   */\n      gt\n        /* \"#utility.yul\":6298:6415   */\n      iszero\n      tag_133\n      jumpi\n        /* \"#utility.yul\":6334:6413   */\n      tag_134\n      tag_34\n      jump\t// in\n    tag_134:\n        /* \"#utility.yul\":6298:6415   */\n    tag_133:\n        /* \"#utility.yul\":6439:6502   */\n      tag_135\n        /* \"#utility.yul\":6494:6501   */\n      dup7\n        /* \"#utility.yul\":6485:6491   */\n      dup3\n        /* \"#utility.yul\":6474:6483   */\n      dup8\n        /* \"#utility.yul\":6470:6492   */\n      add\n        /* \"#utility.yul\":6439:6502   */\n      tag_57\n      jump\t// in\n    tag_135:\n        /* \"#utility.yul\":6429:6502   */\n      swap3\n      pop\n        /* \"#utility.yul\":6224:6512   */\n      pop\n        /* \"#utility.yul\":6579:6581   */\n      0x40\n        /* \"#utility.yul\":6568:6577   */\n      dup5\n        /* \"#utility.yul\":6564:6582   */\n      add\n        /* \"#utility.yul\":6551:6583   */\n      calldataload\n        /* \"#utility.yul\":6610:6628   */\n      0xffffffffffffffff\n        /* \"#utility.yul\":6602:6608   */\n      dup2\n        /* \"#utility.yul\":6599:6629   */\n      gt\n        /* \"#utility.yul\":6596:6713   */\n      iszero\n      tag_136\n      jumpi\n        /* \"#utility.yul\":6632:6711   */\n      tag_137\n      tag_34\n      jump\t// in\n    tag_137:\n        /* \"#utility.yul\":6596:6713   */\n    tag_136:\n        /* \"#utility.yul\":6737:6800   */\n      tag_138\n        /* \"#utility.yul\":6792:6799   */\n      dup7\n        /* \"#utility.yul\":6783:6789   */\n      dup3\n        /* \"#utility.yul\":6772:6781   */\n      dup8\n        /* \"#utility.yul\":6768:6790   */\n      add\n        /* \"#utility.yul\":6737:6800   */\n      tag_57\n      jump\t// in\n    tag_138:\n        /* \"#utility.yul\":6727:6800   */\n      swap2\n      pop\n        /* \"#utility.yul\":6522:6810   */\n      pop\n        /* \"#utility.yul\":5838:6817   */\n      swap3\n      pop\n      swap3\n      pop\n      swap3\n      jump\t// out\n        /* \"#utility.yul\":6823:6941   */\n    tag_58:\n        /* \"#utility.yul\":6910:6934   */\n      tag_140\n        /* \"#utility.yul\":6928:6933   */\n      dup2\n        /* \"#utility.yul\":6910:6934   */\n      tag_35\n      jump\t// in\n    tag_140:\n        /* \"#utility.yul\":6905:6908   */\n      dup3\n        /* \"#utility.yul\":6898:6935   */\n      mstore\n        /* \"#utility.yul\":6823:6941   */\n      pop\n      pop\n      jump\t// out\n        /* \"#utility.yul\":6947:7046   */\n    tag_59:\n        /* \"#utility.yul\":6999:7005   */\n      0x00\n        /* \"#utility.yul\":7033:7038   */\n      dup2\n        /* \"#utility.yul\":7027:7039   */\n      mload\n        /* \"#utility.yul\":7017:7039   */\n      swap1\n      pop\n        /* \"#utility.yul\":6947:7046   */\n      swap2\n      swap1\n      pop\n      jump\t// out\n        /* \"#utility.yul\":7052:7221   */\n    tag_60:\n        /* \"#utility.yul\":7136:7147   */\n      0x00\n        /* \"#utility.yul\":7170:7176   */\n      dup3\n        /* \"#utility.yul\":7165:7168   */\n      dup3\n        /* \"#utility.yul\":7158:7177   */\n      mstore\n        /* \"#utility.yul\":7210:7214   */\n      0x20\n        /* \"#utility.yul\":7205:7208   */\n      dup3\n        /* \"#utility.yul\":7201:7215   */\n      add\n        /* \"#utility.yul\":7186:7215   */\n      swap1\n      pop\n        /* \"#utility.yul\":7052:7221   */\n      swap3\n      swap2\n      pop\n      pop\n      jump\t// out\n        /* \"#utility.yul\":7227:7534   */\n    tag_61:\n        /* \"#utility.yul\":7295:7296   */\n      0x00\n        /* \"#utility.yul\":7305:7418   */\n    tag_144:\n        /* \"#utility.yul\":7319:7325   */\n      dup4\n        /* \"#utility.yul\":7316:7317   */\n      dup2\n        /* \"#utility.yul\":7313:7326   */\n      lt\n        /* \"#utility.yul\":7305:7418   */\n      iszero\n      tag_146\n      jumpi\n        /* \"#utility.yul\":7404:7405   */\n      dup1\n        /* \"#utility.yul\":7399:7402   */\n      dup3\n        /* \"#utility.yul\":7395:7406   */\n      add\n        /* \"#utility.yul\":7389:7407   */\n      mload\n        /* \"#utility.yul\":7385:7386   */\n      dup2\n        /* \"#utility.yul\":7380:7383   */\n      dup5\n        /* \"#utility.yul\":7376:7387   */\n      add\n        /* \"#utility.yul\":7369:7408   */\n      mstore\n        /* \"#utility.yul\":7341:7343   */\n      0x20\n        /* \"#utility.yul\":7338:7339   */\n      dup2\n        /* \"#utility.yul\":7334:7344   */\n      add\n        /* \"#utility.yul\":7329:7344   */\n      swap1\n      pop\n        /* \"#utility.yul\":7305:7418   */\n      jump(tag_144)\n    tag_146:\n        /* \"#utility.yul\":7436:7442   */\n      dup4\n        /* \"#utility.yul\":7433:7434   */\n      dup2\n        /* \"#utility.yul\":7430:7443   */\n      gt\n        /* \"#utility.yul\":7427:7528   */\n      iszero\n      tag_147\n      jumpi\n        /* \"#utility.yul\":7516:7517   */\n      0x00\n        /* \"#utility.yul\":7507:7513   */\n      dup5\n        /* \"#utility.yul\":7502:7505   */\n      dup5\n        /* \"#utility.yul\":7498:7514   */\n      add\n        /* \"#utility.yul\":7491:7518   */\n      mstore\n        /* \"#utility.yul\":7427:7528   */\n    tag_147:\n        /* \"#utility.yul\":7276:7534   */\n      pop\n        /* \"#utility.yul\":7227:7534   */\n      pop\n      pop\n      pop\n      jump\t// out\n        /* \"#utility.yul\":7540:7904   */\n    tag_62:\n        /* \"#utility.yul\":7628:7631   */\n      0x00\n        /* \"#utility.yul\":7656:7695   */\n      tag_149\n        /* \"#utility.yul\":7689:7694   */\n      dup3\n        /* \"#utility.yul\":7656:7695   */\n      tag_59\n      jump\t// in\n    tag_149:\n        /* \"#utility.yul\":7711:7782   */\n      tag_150\n        /* \"#utility.yul\":7775:7781   */\n      dup2\n        /* \"#utility.yul\":7770:7773   */\n      dup6\n        /* \"#utility.yul\":7711:7782   */\n      tag_60\n      jump\t// in\n    tag_150:\n        /* \"#utility.yul\":7704:7782   */\n      swap4\n      pop\n        /* \"#utility.yul\":7791:7843   */\n      tag_151\n        /* \"#utility.yul\":7836:7842   */\n      dup2\n        /* \"#utility.yul\":7831:7834   */\n      dup6\n        /* \"#utility.yul\":7824:7828   */\n      0x20\n        /* \"#utility.yul\":7817:7822   */\n      dup7\n        /* \"#utility.yul\":7813:7829   */\n      add\n        /* \"#utility.yul\":7791:7843   */\n      tag_61\n      jump\t// in\n    tag_151:\n        /* \"#utility.yul\":7868:7897   */\n      tag_152\n        /* \"#utility.yul\":7890:7896   */\n      dup2\n        /* \"#utility.yul\":7868:7897   */\n      tag_50\n      jump\t// in\n    tag_152:\n        /* \"#utility.yul\":7863:7866   */\n      dup5\n        /* \"#utility.yul\":7859:7898   */\n      add\n        /* \"#utility.yul\":7852:7898   */\n      swap2\n      pop\n        /* \"#utility.yul\":7632:7904   */\n      pop\n        /* \"#utility.yul\":7540:7904   */\n      swap3\n      swap2\n      pop\n      pop\n      jump\t// out\n        /* \"#utility.yul\":7910:8645   */\n    tag_29:\n        /* \"#utility.yul\":8127:8131   */\n      0x00\n        /* \"#utility.yul\":8165:8168   */\n      0x80\n        /* \"#utility.yul\":8154:8163   */\n      dup3\n        /* \"#utility.yul\":8150:8169   */\n      add\n        /* \"#utility.yul\":8142:8169   */\n      swap1\n      pop\n        /* \"#utility.yul\":8179:8250   */\n      tag_154\n        /* \"#utility.yul\":8247:8248   */\n      0x00\n        /* \"#utility.yul\":8236:8245   */\n      dup4\n        /* \"#utility.yul\":8232:8249   */\n      add\n        /* \"#utility.yul\":8223:8229   */\n      dup8\n        /* \"#utility.yul\":8179:8250   */\n      tag_58\n      jump\t// in\n    tag_154:\n        /* \"#utility.yul\":8260:8332   */\n      tag_155\n        /* \"#utility.yul\":8328:8330   */\n      0x20\n        /* \"#utility.yul\":8317:8326   */\n      dup4\n        /* \"#utility.yul\":8313:8331   */\n      add\n        /* \"#utility.yul\":8304:8310   */\n      dup7\n        /* \"#utility.yul\":8260:8332   */\n      tag_40\n      jump\t// in\n    tag_155:\n        /* \"#utility.yul\":8379:8388   */\n      dup2\n        /* \"#utility.yul\":8373:8377   */\n      dup2\n        /* \"#utility.yul\":8369:8389   */\n      sub\n        /* \"#utility.yul\":8364:8366   */\n      0x40\n        /* \"#utility.yul\":8353:8362   */\n      dup4\n        /* \"#utility.yul\":8349:8367   */\n      add\n        /* \"#utility.yul\":8342:8390   */\n      mstore\n        /* \"#utility.yul\":8407:8485   */\n      tag_156\n        /* \"#utility.yul\":8480:8484   */\n      dup2\n        /* \"#utility.yul\":8471:8477   */\n      dup6\n        /* \"#utility.yul\":8407:8485   */\n      tag_62\n      jump\t// in\n    tag_156:\n        /* \"#utility.yul\":8399:8485   */\n      swap1\n      pop\n        /* \"#utility.yul\":8532:8541   */\n      dup2\n        /* \"#utility.yul\":8526:8530   */\n      dup2\n        /* \"#utility.yul\":8522:8542   */\n      sub\n        /* \"#utility.yul\":8517:8519   */\n      0x60\n        /* \"#utility.yul\":8506:8515   */\n      dup4\n        /* \"#utility.yul\":8502:8520   */\n      add\n        /* \"#utility.yul\":8495:8543   */\n      mstore\n        /* \"#utility.yul\":8560:8638   */\n      tag_157\n        /* \"#utility.yul\":8633:8637   */\n      dup2\n        /* \"#utility.yul\":8624:8630   */\n      dup5\n        /* \"#utility.yul\":8560:8638   */\n      tag_62\n      jump\t// in\n    tag_157:\n        /* \"#utility.yul\":8552:8638   */\n      swap1\n      pop\n        /* \"#utility.yul\":7910:8645   */\n      swap6\n      swap5\n      pop\n      pop\n      pop\n      pop\n      pop\n      jump\t// out\n    stop\n\n    sub_0: assembly {\n            /* \"Campaign.sol\":702:4756  contract Campaign {... */\n          mstore(0x40, 0x80)\n            /* \"Campaign.sol\":1192:1193  0 */\n          0x00\n            /* \"Campaign.sol\":1163:1193  uint public approversCount = 0 */\n          0x05\n          sstore\n            /* \"Campaign.sol\":1610:1611  0 */\n          0x00\n            /* \"Campaign.sol\":1591:1611  uint numRequests = 0 */\n          0x06\n          sstore\n            /* \"Campaign.sol\":1880:2266  constructor(uint minimum, address creator, string memory title, string memory description) {... */\n          callvalue\n          dup1\n          iszero\n          tag_1\n          jumpi\n          0x00\n          dup1\n          revert\n        tag_1:\n          pop\n          mload(0x40)\n          sub(codesize, bytecodeSize)\n          dup1\n          bytecodeSize\n          dup4\n          codecopy\n          dup2\n          dup2\n          add\n          0x40\n          mstore\n          dup2\n          add\n          swap1\n          tag_2\n          swap2\n          swap1\n          tag_3\n          jump\t// in\n        tag_2:\n            /* \"Campaign.sol\":2055:2062  creator */\n          dup3\n            /* \"Campaign.sol\":2045:2052  manager */\n          0x00\n          dup1\n            /* \"Campaign.sol\":2045:2062  manager = creator */\n          0x0100\n          exp\n          dup2\n          sload\n          dup2\n          0xffffffffffffffffffffffffffffffffffffffff\n          mul\n          not\n          and\n          swap1\n          dup4\n          0xffffffffffffffffffffffffffffffffffffffff\n          and\n          mul\n          or\n          swap1\n          sstore\n          pop\n            /* \"Campaign.sol\":2130:2137  minimum */\n          dup4\n            /* \"Campaign.sol\":2108:2127  minimumContribution */\n          0x01\n            /* \"Campaign.sol\":2108:2137  minimumContribution = minimum */\n          dup2\n          swap1\n          sstore\n          pop\n            /* \"Campaign.sol\":2184:2189  title */\n          dup2\n            /* \"Campaign.sol\":2168:2181  campaignTitle */\n          0x02\n            /* \"Campaign.sol\":2168:2189  campaignTitle = title */\n          swap1\n          dup1\n          mload\n          swap1\n          0x20\n          add\n          swap1\n          tag_6\n          swap3\n          swap2\n          swap1\n          tag_7\n          jump\t// in\n        tag_6:\n          pop\n            /* \"Campaign.sol\":2248:2259  description */\n          dup1\n            /* \"Campaign.sol\":2226:2245  campaignDescription */\n          0x03\n            /* \"Campaign.sol\":2226:2259  campaignDescription = description */\n          swap1\n          dup1\n          mload\n          swap1\n          0x20\n          add\n          swap1\n          tag_8\n          swap3\n          swap2\n          swap1\n          tag_7\n          jump\t// in\n        tag_8:\n          pop\n            /* \"Campaign.sol\":1880:2266  constructor(uint minimum, address creator, string memory title, string memory description) {... */\n          pop\n          pop\n          pop\n          pop\n            /* \"Campaign.sol\":702:4756  contract Campaign {... */\n          jump(tag_9)\n        tag_7:\n          dup3\n          dup1\n          sload\n          tag_10\n          swap1\n          tag_11\n          jump\t// in\n        tag_10:\n          swap1\n          0x00\n          mstore\n          keccak256(0x00, 0x20)\n          swap1\n          0x1f\n          add\n          0x20\n          swap1\n          div\n          dup2\n          add\n          swap3\n          dup3\n          tag_13\n          jumpi\n          0x00\n          dup6\n          sstore\n          jump(tag_12)\n        tag_13:\n          dup3\n          0x1f\n          lt\n          tag_14\n          jumpi\n          dup1\n          mload\n          not(0xff)\n          and\n          dup4\n          dup1\n          add\n          or\n          dup6\n          sstore\n          jump(tag_12)\n        tag_14:\n          dup3\n          dup1\n          add\n          0x01\n          add\n          dup6\n          sstore\n          dup3\n          iszero\n          tag_12\n          jumpi\n          swap2\n          dup3\n          add\n        tag_15:\n          dup3\n          dup2\n          gt\n          iszero\n          tag_16\n          jumpi\n          dup3\n          mload\n          dup3\n          sstore\n          swap2\n          0x20\n          add\n          swap2\n          swap1\n          0x01\n          add\n          swap1\n          jump(tag_15)\n        tag_16:\n        tag_12:\n          pop\n          swap1\n          pop\n          tag_17\n          swap2\n          swap1\n          tag_18\n          jump\t// in\n        tag_17:\n          pop\n          swap1\n          jump\t// out\n        tag_18:\n        tag_19:\n          dup1\n          dup3\n          gt\n          iszero\n          tag_20\n          jumpi\n          0x00\n          dup2\n          0x00\n          swap1\n          sstore\n          pop\n          0x01\n          add\n          jump(tag_19)\n        tag_20:\n          pop\n          swap1\n          jump\t// out\n            /* \"#utility.yul\":7:82   */\n        tag_21:\n            /* \"#utility.yul\":40:46   */\n          0x00\n            /* \"#utility.yul\":73:75   */\n          0x40\n            /* \"#utility.yul\":67:76   */\n          mload\n            /* \"#utility.yul\":57:76   */\n          swap1\n          pop\n            /* \"#utility.yul\":7:82   */\n          swap1\n          jump\t// out\n            /* \"#utility.yul\":88:205   */\n        tag_22:\n            /* \"#utility.yul\":197:198   */\n          0x00\n            /* \"#utility.yul\":194:195   */\n          dup1\n            /* \"#utility.yul\":187:199   */\n          revert\n            /* \"#utility.yul\":211:328   */\n        tag_23:\n            /* \"#utility.yul\":320:321   */\n          0x00\n            /* \"#utility.yul\":317:318   */\n          dup1\n            /* \"#utility.yul\":310:322   */\n          revert\n            /* \"#utility.yul\":334:411   */\n        tag_24:\n            /* \"#utility.yul\":371:378   */\n          0x00\n            /* \"#utility.yul\":400:405   */\n          dup2\n            /* \"#utility.yul\":389:405   */\n          swap1\n          pop\n            /* \"#utility.yul\":334:411   */\n          swap2\n          swap1\n          pop\n          jump\t// out\n            /* \"#utility.yul\":417:539   */\n        tag_25:\n            /* \"#utility.yul\":490:514   */\n          tag_48\n            /* \"#utility.yul\":508:513   */\n          dup2\n            /* \"#utility.yul\":490:514   */\n          tag_24\n          jump\t// in\n        tag_48:\n            /* \"#utility.yul\":483:488   */\n          dup2\n            /* \"#utility.yul\":480:515   */\n          eq\n            /* \"#utility.yul\":470:533   */\n          tag_49\n          jumpi\n            /* \"#utility.yul\":529:530   */\n          0x00\n            /* \"#utility.yul\":526:527   */\n          dup1\n            /* \"#utility.yul\":519:531   */\n          revert\n            /* \"#utility.yul\":470:533   */\n        tag_49:\n            /* \"#utility.yul\":417:539   */\n          pop\n          jump\t// out\n            /* \"#utility.yul\":545:688   */\n        tag_26:\n            /* \"#utility.yul\":602:607   */\n          0x00\n            /* \"#utility.yul\":633:639   */\n          dup2\n            /* \"#utility.yul\":627:640   */\n          mload\n            /* \"#utility.yul\":618:640   */\n          swap1\n          pop\n            /* \"#utility.yul\":649:682   */\n          tag_51\n            /* \"#utility.yul\":676:681   */\n          dup2\n            /* \"#utility.yul\":649:682   */\n          tag_25\n          jump\t// in\n        tag_51:\n            /* \"#utility.yul\":545:688   */\n          swap3\n          swap2\n          pop\n          pop\n          jump\t// out\n            /* \"#utility.yul\":694:820   */\n        tag_27:\n            /* \"#utility.yul\":731:738   */\n          0x00\n            /* \"#utility.yul\":771:813   */\n          0xffffffffffffffffffffffffffffffffffffffff\n            /* \"#utility.yul\":764:769   */\n          dup3\n            /* \"#utility.yul\":760:814   */\n          and\n            /* \"#utility.yul\":749:814   */\n          swap1\n          pop\n            /* \"#utility.yul\":694:820   */\n          swap2\n          swap1\n          pop\n          jump\t// out\n            /* \"#utility.yul\":826:922   */\n        tag_28:\n            /* \"#utility.yul\":863:870   */\n          0x00\n            /* \"#utility.yul\":892:916   */\n          tag_54\n            /* \"#utility.yul\":910:915   */\n          dup3\n            /* \"#utility.yul\":892:916   */\n          tag_27\n          jump\t// in\n        tag_54:\n            /* \"#utility.yul\":881:916   */\n          swap1\n          pop\n            /* \"#utility.yul\":826:922   */\n          swap2\n          swap1\n          pop\n          jump\t// out\n            /* \"#utility.yul\":928:1050   */\n        tag_29:\n            /* \"#utility.yul\":1001:1025   */\n          tag_56\n            /* \"#utility.yul\":1019:1024   */\n          dup2\n            /* \"#utility.yul\":1001:1025   */\n          tag_28\n          jump\t// in\n        tag_56:\n            /* \"#utility.yul\":994:999   */\n          dup2\n            /* \"#utility.yul\":991:1026   */\n          eq\n            /* \"#utility.yul\":981:1044   */\n          tag_57\n          jumpi\n            /* \"#utility.yul\":1040:1041   */\n          0x00\n            /* \"#utility.yul\":1037:1038   */\n          dup1\n            /* \"#utility.yul\":1030:1042   */\n          revert\n            /* \"#utility.yul\":981:1044   */\n        tag_57:\n            /* \"#utility.yul\":928:1050   */\n          pop\n          jump\t// out\n            /* \"#utility.yul\":1056:1199   */\n        tag_30:\n            /* \"#utility.yul\":1113:1118   */\n          0x00\n            /* \"#utility.yul\":1144:1150   */\n          dup2\n            /* \"#utility.yul\":1138:1151   */\n          mload\n            /* \"#utility.yul\":1129:1151   */\n          swap1\n          pop\n            /* \"#utility.yul\":1160:1193   */\n          tag_59\n            /* \"#utility.yul\":1187:1192   */\n          dup2\n            /* \"#utility.yul\":1160:1193   */\n          tag_29\n          jump\t// in\n        tag_59:\n            /* \"#utility.yul\":1056:1199   */\n          swap3\n          swap2\n          pop\n          pop\n          jump\t// out\n            /* \"#utility.yul\":1205:1322   */\n        tag_31:\n            /* \"#utility.yul\":1314:1315   */\n          0x00\n            /* \"#utility.yul\":1311:1312   */\n          dup1\n            /* \"#utility.yul\":1304:1316   */\n          revert\n            /* \"#utility.yul\":1328:1445   */\n        tag_32:\n            /* \"#utility.yul\":1437:1438   */\n          0x00\n            /* \"#utility.yul\":1434:1435   */\n          dup1\n            /* \"#utility.yul\":1427:1439   */\n          revert\n            /* \"#utility.yul\":1451:1553   */\n        tag_33:\n            /* \"#utility.yul\":1492:1498   */\n          0x00\n            /* \"#utility.yul\":1543:1545   */\n          0x1f\n            /* \"#utility.yul\":1539:1546   */\n          not\n            /* \"#utility.yul\":1534:1536   */\n          0x1f\n            /* \"#utility.yul\":1527:1532   */\n          dup4\n            /* \"#utility.yul\":1523:1537   */\n          add\n            /* \"#utility.yul\":1519:1547   */\n          and\n            /* \"#utility.yul\":1509:1547   */\n          swap1\n          pop\n            /* \"#utility.yul\":1451:1553   */\n          swap2\n          swap1\n          pop\n          jump\t// out\n            /* \"#utility.yul\":1559:1739   */\n        tag_34:\n            /* \"#utility.yul\":1607:1684   */\n          0x4e487b7100000000000000000000000000000000000000000000000000000000\n            /* \"#utility.yul\":1604:1605   */\n          0x00\n            /* \"#utility.yul\":1597:1685   */\n          mstore\n            /* \"#utility.yul\":1704:1708   */\n          0x41\n            /* \"#utility.yul\":1701:1702   */\n          0x04\n            /* \"#utility.yul\":1694:1709   */\n          mstore\n            /* \"#utility.yul\":1728:1732   */\n          0x24\n            /* \"#utility.yul\":1725:1726   */\n          0x00\n            /* \"#utility.yul\":1718:1733   */\n          revert\n            /* \"#utility.yul\":1745:2026   */\n        tag_35:\n            /* \"#utility.yul\":1828:1855   */\n          tag_65\n            /* \"#utility.yul\":1850:1854   */\n          dup3\n            /* \"#utility.yul\":1828:1855   */\n          tag_33\n          jump\t// in\n        tag_65:\n            /* \"#utility.yul\":1820:1826   */\n          dup2\n            /* \"#utility.yul\":1816:1856   */\n          add\n            /* \"#utility.yul\":1958:1964   */\n          dup2\n            /* \"#utility.yul\":1946:1956   */\n          dup2\n            /* \"#utility.yul\":1943:1965   */\n          lt\n            /* \"#utility.yul\":1922:1940   */\n          0xffffffffffffffff\n            /* \"#utility.yul\":1910:1920   */\n          dup3\n            /* \"#utility.yul\":1907:1941   */\n          gt\n            /* \"#utility.yul\":1904:1966   */\n          or\n            /* \"#utility.yul\":1901:1989   */\n          iszero\n          tag_66\n          jumpi\n            /* \"#utility.yul\":1969:1987   */\n          tag_67\n          tag_34\n          jump\t// in\n        tag_67:\n            /* \"#utility.yul\":1901:1989   */\n        tag_66:\n            /* \"#utility.yul\":2009:2019   */\n          dup1\n            /* \"#utility.yul\":2005:2007   */\n          0x40\n            /* \"#utility.yul\":1998:2020   */\n          mstore\n            /* \"#utility.yul\":1788:2026   */\n          pop\n            /* \"#utility.yul\":1745:2026   */\n          pop\n          pop\n          jump\t// out\n            /* \"#utility.yul\":2032:2161   */\n        tag_36:\n            /* \"#utility.yul\":2066:2072   */\n          0x00\n            /* \"#utility.yul\":2093:2113   */\n          tag_69\n          tag_21\n          jump\t// in\n        tag_69:\n            /* \"#utility.yul\":2083:2113   */\n          swap1\n          pop\n            /* \"#utility.yul\":2122:2155   */\n          tag_70\n            /* \"#utility.yul\":2150:2154   */\n          dup3\n            /* \"#utility.yul\":2142:2148   */\n          dup3\n            /* \"#utility.yul\":2122:2155   */\n          tag_35\n          jump\t// in\n        tag_70:\n            /* \"#utility.yul\":2032:2161   */\n          swap2\n          swap1\n          pop\n          jump\t// out\n            /* \"#utility.yul\":2167:2475   */\n        tag_37:\n            /* \"#utility.yul\":2229:2233   */\n          0x00\n            /* \"#utility.yul\":2319:2337   */\n          0xffffffffffffffff\n            /* \"#utility.yul\":2311:2317   */\n          dup3\n            /* \"#utility.yul\":2308:2338   */\n          gt\n            /* \"#utility.yul\":2305:2361   */\n          iszero\n          tag_72\n          jumpi\n            /* \"#utility.yul\":2341:2359   */\n          tag_73\n          tag_34\n          jump\t// in\n        tag_73:\n            /* \"#utility.yul\":2305:2361   */\n        tag_72:\n            /* \"#utility.yul\":2379:2408   */\n          tag_74\n            /* \"#utility.yul\":2401:2407   */\n          dup3\n            /* \"#utility.yul\":2379:2408   */\n          tag_33\n          jump\t// in\n        tag_74:\n            /* \"#utility.yul\":2371:2408   */\n          swap1\n          pop\n            /* \"#utility.yul\":2463:2467   */\n          0x20\n            /* \"#utility.yul\":2457:2461   */\n          dup2\n            /* \"#utility.yul\":2453:2468   */\n          add\n            /* \"#utility.yul\":2445:2468   */\n          swap1\n          pop\n            /* \"#utility.yul\":2167:2475   */\n          swap2\n          swap1\n          pop\n          jump\t// out\n            /* \"#utility.yul\":2481:2788   */\n        tag_38:\n            /* \"#utility.yul\":2549:2550   */\n          0x00\n            /* \"#utility.yul\":2559:2672   */\n        tag_76:\n            /* \"#utility.yul\":2573:2579   */\n          dup4\n            /* \"#utility.yul\":2570:2571   */\n          dup2\n            /* \"#utility.yul\":2567:2580   */\n          lt\n            /* \"#utility.yul\":2559:2672   */\n          iszero\n          tag_78\n          jumpi\n            /* \"#utility.yul\":2658:2659   */\n          dup1\n            /* \"#utility.yul\":2653:2656   */\n          dup3\n            /* \"#utility.yul\":2649:2660   */\n          add\n            /* \"#utility.yul\":2643:2661   */\n          mload\n            /* \"#utility.yul\":2639:2640   */\n          dup2\n            /* \"#utility.yul\":2634:2637   */\n          dup5\n            /* \"#utility.yul\":2630:2641   */\n          add\n            /* \"#utility.yul\":2623:2662   */\n          mstore\n            /* \"#utility.yul\":2595:2597   */\n          0x20\n            /* \"#utility.yul\":2592:2593   */\n          dup2\n            /* \"#utility.yul\":2588:2598   */\n          add\n            /* \"#utility.yul\":2583:2598   */\n          swap1\n          pop\n            /* \"#utility.yul\":2559:2672   */\n          jump(tag_76)\n        tag_78:\n            /* \"#utility.yul\":2690:2696   */\n          dup4\n            /* \"#utility.yul\":2687:2688   */\n          dup2\n            /* \"#utility.yul\":2684:2697   */\n          gt\n            /* \"#utility.yul\":2681:2782   */\n          iszero\n          tag_79\n          jumpi\n            /* \"#utility.yul\":2770:2771   */\n          0x00\n            /* \"#utility.yul\":2761:2767   */\n          dup5\n            /* \"#utility.yul\":2756:2759   */\n          dup5\n            /* \"#utility.yul\":2752:2768   */\n          add\n            /* \"#utility.yul\":2745:2772   */\n          mstore\n            /* \"#utility.yul\":2681:2782   */\n        tag_79:\n            /* \"#utility.yul\":2530:2788   */\n          pop\n            /* \"#utility.yul\":2481:2788   */\n          pop\n          pop\n          pop\n          jump\t// out\n            /* \"#utility.yul\":2794:3215   */\n        tag_39:\n            /* \"#utility.yul\":2883:2888   */\n          0x00\n            /* \"#utility.yul\":2908:2974   */\n          tag_81\n            /* \"#utility.yul\":2924:2973   */\n          tag_82\n            /* \"#utility.yul\":2966:2972   */\n          dup5\n            /* \"#utility.yul\":2924:2973   */\n          tag_37\n          jump\t// in\n        tag_82:\n            /* \"#utility.yul\":2908:2974   */\n          tag_36\n          jump\t// in\n        tag_81:\n            /* \"#utility.yul\":2899:2974   */\n          swap1\n          pop\n            /* \"#utility.yul\":2997:3003   */\n          dup3\n            /* \"#utility.yul\":2990:2995   */\n          dup2\n            /* \"#utility.yul\":2983:3004   */\n          mstore\n            /* \"#utility.yul\":3035:3039   */\n          0x20\n            /* \"#utility.yul\":3028:3033   */\n          dup2\n            /* \"#utility.yul\":3024:3040   */\n          add\n            /* \"#utility.yul\":3073:3076   */\n          dup5\n            /* \"#utility.yul\":3064:3070   */\n          dup5\n            /* \"#utility.yul\":3059:3062   */\n          dup5\n            /* \"#utility.yul\":3055:3071   */\n          add\n            /* \"#utility.yul\":3052:3077   */\n          gt\n            /* \"#utility.yul\":3049:3161   */\n          iszero\n          tag_83\n          jumpi\n            /* \"#utility.yul\":3080:3159   */\n          tag_84\n          tag_32\n          jump\t// in\n        tag_84:\n            /* \"#utility.yul\":3049:3161   */\n        tag_83:\n            /* \"#utility.yul\":3170:3209   */\n          tag_85\n            /* \"#utility.yul\":3202:3208   */\n          dup5\n            /* \"#utility.yul\":3197:3200   */\n          dup3\n            /* \"#utility.yul\":3192:3195   */\n          dup6\n            /* \"#utility.yul\":3170:3209   */\n          tag_38\n          jump\t// in\n        tag_85:\n            /* \"#utility.yul\":2889:3215   */\n          pop\n            /* \"#utility.yul\":2794:3215   */\n          swap4\n          swap3\n          pop\n          pop\n          pop\n          jump\t// out\n            /* \"#utility.yul\":3235:3590   */\n        tag_40:\n            /* \"#utility.yul\":3302:3307   */\n          0x00\n            /* \"#utility.yul\":3351:3354   */\n          dup3\n            /* \"#utility.yul\":3344:3348   */\n          0x1f\n            /* \"#utility.yul\":3336:3342   */\n          dup4\n            /* \"#utility.yul\":3332:3349   */\n          add\n            /* \"#utility.yul\":3328:3355   */\n          slt\n            /* \"#utility.yul\":3318:3440   */\n          tag_87\n          jumpi\n            /* \"#utility.yul\":3359:3438   */\n          tag_88\n          tag_31\n          jump\t// in\n        tag_88:\n            /* \"#utility.yul\":3318:3440   */\n        tag_87:\n            /* \"#utility.yul\":3469:3475   */\n          dup2\n            /* \"#utility.yul\":3463:3476   */\n          mload\n            /* \"#utility.yul\":3494:3584   */\n          tag_89\n            /* \"#utility.yul\":3580:3583   */\n          dup5\n            /* \"#utility.yul\":3572:3578   */\n          dup3\n            /* \"#utility.yul\":3565:3569   */\n          0x20\n            /* \"#utility.yul\":3557:3563   */\n          dup7\n            /* \"#utility.yul\":3553:3570   */\n          add\n            /* \"#utility.yul\":3494:3584   */\n          tag_39\n          jump\t// in\n        tag_89:\n            /* \"#utility.yul\":3485:3584   */\n          swap2\n          pop\n            /* \"#utility.yul\":3308:3590   */\n          pop\n            /* \"#utility.yul\":3235:3590   */\n          swap3\n          swap2\n          pop\n          pop\n          jump\t// out\n            /* \"#utility.yul\":3596:4762   */\n        tag_3:\n            /* \"#utility.yul\":3713:3719   */\n          0x00\n            /* \"#utility.yul\":3721:3727   */\n          dup1\n            /* \"#utility.yul\":3729:3735   */\n          0x00\n            /* \"#utility.yul\":3737:3743   */\n          dup1\n            /* \"#utility.yul\":3786:3789   */\n          0x80\n            /* \"#utility.yul\":3774:3783   */\n          dup6\n            /* \"#utility.yul\":3765:3772   */\n          dup8\n            /* \"#utility.yul\":3761:3784   */\n          sub\n            /* \"#utility.yul\":3757:3790   */\n          slt\n            /* \"#utility.yul\":3754:3874   */\n          iszero\n          tag_91\n          jumpi\n            /* \"#utility.yul\":3793:3872   */\n          tag_92\n          tag_22\n          jump\t// in\n        tag_92:\n            /* \"#utility.yul\":3754:3874   */\n        tag_91:\n            /* \"#utility.yul\":3913:3914   */\n          0x00\n            /* \"#utility.yul\":3938:4002   */\n          tag_93\n            /* \"#utility.yul\":3994:4001   */\n          dup8\n            /* \"#utility.yul\":3985:3991   */\n          dup3\n            /* \"#utility.yul\":3974:3983   */\n          dup9\n            /* \"#utility.yul\":3970:3992   */\n          add\n            /* \"#utility.yul\":3938:4002   */\n          tag_26\n          jump\t// in\n        tag_93:\n            /* \"#utility.yul\":3928:4002   */\n          swap5\n          pop\n            /* \"#utility.yul\":3884:4012   */\n          pop\n            /* \"#utility.yul\":4051:4053   */\n          0x20\n            /* \"#utility.yul\":4077:4141   */\n          tag_94\n            /* \"#utility.yul\":4133:4140   */\n          dup8\n            /* \"#utility.yul\":4124:4130   */\n          dup3\n            /* \"#utility.yul\":4113:4122   */\n          dup9\n            /* \"#utility.yul\":4109:4131   */\n          add\n            /* \"#utility.yul\":4077:4141   */\n          tag_30\n          jump\t// in\n        tag_94:\n            /* \"#utility.yul\":4067:4141   */\n          swap4\n          pop\n            /* \"#utility.yul\":4022:4151   */\n          pop\n            /* \"#utility.yul\":4211:4213   */\n          0x40\n            /* \"#utility.yul\":4200:4209   */\n          dup6\n            /* \"#utility.yul\":4196:4214   */\n          add\n            /* \"#utility.yul\":4190:4215   */\n          mload\n            /* \"#utility.yul\":4242:4260   */\n          0xffffffffffffffff\n            /* \"#utility.yul\":4234:4240   */\n          dup2\n            /* \"#utility.yul\":4231:4261   */\n          gt\n            /* \"#utility.yul\":4228:4345   */\n          iszero\n          tag_95\n          jumpi\n            /* \"#utility.yul\":4264:4343   */\n          tag_96\n          tag_23\n          jump\t// in\n        tag_96:\n            /* \"#utility.yul\":4228:4345   */\n        tag_95:\n            /* \"#utility.yul\":4369:4443   */\n          tag_97\n            /* \"#utility.yul\":4435:4442   */\n          dup8\n            /* \"#utility.yul\":4426:4432   */\n          dup3\n            /* \"#utility.yul\":4415:4424   */\n          dup9\n            /* \"#utility.yul\":4411:4433   */\n          add\n            /* \"#utility.yul\":4369:4443   */\n          tag_40\n          jump\t// in\n        tag_97:\n            /* \"#utility.yul\":4359:4443   */\n          swap3\n          pop\n            /* \"#utility.yul\":4161:4453   */\n          pop\n            /* \"#utility.yul\":4513:4515   */\n          0x60\n            /* \"#utility.yul\":4502:4511   */\n          dup6\n            /* \"#utility.yul\":4498:4516   */\n          add\n            /* \"#utility.yul\":4492:4517   */\n          mload\n            /* \"#utility.yul\":4544:4562   */\n          0xffffffffffffffff\n            /* \"#utility.yul\":4536:4542   */\n          dup2\n            /* \"#utility.yul\":4533:4563   */\n          gt\n            /* \"#utility.yul\":4530:4647   */\n          iszero\n          tag_98\n          jumpi\n            /* \"#utility.yul\":4566:4645   */\n          tag_99\n          tag_23\n          jump\t// in\n        tag_99:\n            /* \"#utility.yul\":4530:4647   */\n        tag_98:\n            /* \"#utility.yul\":4671:4745   */\n          tag_100\n            /* \"#utility.yul\":4737:4744   */\n          dup8\n            /* \"#utility.yul\":4728:4734   */\n          dup3\n            /* \"#utility.yul\":4717:4726   */\n          dup9\n            /* \"#utility.yul\":4713:4735   */\n          add\n            /* \"#utility.yul\":4671:4745   */\n          tag_40\n          jump\t// in\n        tag_100:\n            /* \"#utility.yul\":4661:4745   */\n          swap2\n          pop\n            /* \"#utility.yul\":4463:4755   */\n          pop\n            /* \"#utility.yul\":3596:4762   */\n          swap3\n          swap6\n          swap2\n          swap5\n          pop\n          swap3\n          pop\n          jump\t// out\n            /* \"#utility.yul\":4768:4948   */\n        tag_41:\n            /* \"#utility.yul\":4816:4893   */\n          0x4e487b7100000000000000000000000000000000000000000000000000000000\n            /* \"#utility.yul\":4813:4814   */\n          0x00\n            /* \"#utility.yul\":4806:4894   */\n          mstore\n            /* \"#utility.yul\":4913:4917   */\n          0x22\n            /* \"#utility.yul\":4910:4911   */\n          0x04\n            /* \"#utility.yul\":4903:4918   */\n          mstore\n            /* \"#utility.yul\":4937:4941   */\n          0x24\n            /* \"#utility.yul\":4934:4935   */\n          0x00\n            /* \"#utility.yul\":4927:4942   */\n          revert\n            /* \"#utility.yul\":4954:5274   */\n        tag_11:\n            /* \"#utility.yul\":4998:5004   */\n          0x00\n            /* \"#utility.yul\":5035:5036   */\n          0x02\n            /* \"#utility.yul\":5029:5033   */\n          dup3\n            /* \"#utility.yul\":5025:5037   */\n          div\n            /* \"#utility.yul\":5015:5037   */\n          swap1\n          pop\n            /* \"#utility.yul\":5082:5083   */\n          0x01\n            /* \"#utility.yul\":5076:5080   */\n          dup3\n            /* \"#utility.yul\":5072:5084   */\n          and\n            /* \"#utility.yul\":5103:5121   */\n          dup1\n            /* \"#utility.yul\":5093:5174   */\n          tag_103\n          jumpi\n            /* \"#utility.yul\":5159:5163   */\n          0x7f\n            /* \"#utility.yul\":5151:5157   */\n          dup3\n            /* \"#utility.yul\":5147:5164   */\n          and\n            /* \"#utility.yul\":5137:5164   */\n          swap2\n          pop\n            /* \"#utility.yul\":5093:5174   */\n        tag_103:\n            /* \"#utility.yul\":5221:5223   */\n          0x20\n            /* \"#utility.yul\":5213:5219   */\n          dup3\n            /* \"#utility.yul\":5210:5224   */\n          lt\n            /* \"#utility.yul\":5190:5208   */\n          dup2\n            /* \"#utility.yul\":5187:5225   */\n          eq\n            /* \"#utility.yul\":5184:5268   */\n          iszero\n          tag_104\n          jumpi\n            /* \"#utility.yul\":5240:5258   */\n          tag_105\n          tag_41\n          jump\t// in\n        tag_105:\n            /* \"#utility.yul\":5184:5268   */\n        tag_104:\n            /* \"#utility.yul\":5005:5274   */\n          pop\n            /* \"#utility.yul\":4954:5274   */\n          swap2\n          swap1\n          pop\n          jump\t// out\n            /* \"Campaign.sol\":702:4756  contract Campaign {... */\n        tag_9:\n          dataSize(sub_0)\n          dup1\n          dataOffset(sub_0)\n          0x00\n          codecopy\n          0x00\n          return\n        stop\n\n        sub_0: assembly {\n                /* \"Campaign.sol\":702:4756  contract Campaign {... */\n              mstore(0x40, 0x80)\n              jumpi(tag_1, lt(calldatasize, 0x04))\n              shr(0xe0, calldataload(0x00))\n              dup1\n              0x481c6a75\n              gt\n              tag_13\n              jumpi\n              dup1\n              0x481c6a75\n              eq\n              tag_7\n              jumpi\n              dup1\n              0x82fde093\n              eq\n              tag_8\n              jumpi\n              dup1\n              0x8a9cfd55\n              eq\n              tag_9\n              jumpi\n              dup1\n              0x937e09b1\n              eq\n              tag_10\n              jumpi\n              dup1\n              0xd7bb99ba\n              eq\n              tag_11\n              jumpi\n              dup1\n              0xd7d1bbdb\n              eq\n              tag_12\n              jumpi\n              jump(tag_1)\n            tag_13:\n              dup1\n              0x03441006\n              eq\n              tag_2\n              jumpi\n              dup1\n              0x0a144391\n              eq\n              tag_3\n              jumpi\n              dup1\n              0x3410452a\n              eq\n              tag_4\n              jumpi\n              dup1\n              0x353161ef\n              eq\n              tag_5\n              jumpi\n              dup1\n              0x4051ddac\n              eq\n              tag_6\n              jumpi\n            tag_1:\n              0x00\n              dup1\n              revert\n                /* \"Campaign.sol\":3663:4194  function finalizeRequest(uint index) public restricted_person {... */\n            tag_2:\n              callvalue\n              dup1\n              iszero\n              tag_14\n              jumpi\n              0x00\n              dup1\n              revert\n            tag_14:\n              pop\n              tag_15\n              0x04\n              dup1\n              calldatasize\n              sub\n              dup2\n              add\n              swap1\n              tag_16\n              swap2\n              swap1\n              tag_17\n              jump\t// in\n            tag_16:\n              tag_18\n              jump\t// in\n            tag_15:\n              stop\n                /* \"Campaign.sol\":1084:1126  mapping (address => bool) public approvers */\n            tag_3:\n              callvalue\n              dup1\n              iszero\n              tag_19\n              jumpi\n              0x00\n              dup1\n              revert\n            tag_19:\n              pop\n              tag_20\n              0x04\n              dup1\n              calldatasize\n              sub\n              dup2\n              add\n              swap1\n              tag_21\n              swap2\n              swap1\n              tag_22\n              jump\t// in\n            tag_21:\n              tag_23\n              jump\t// in\n            tag_20:\n              mload(0x40)\n              tag_24\n              swap2\n              swap1\n              tag_25\n              jump\t// in\n            tag_24:\n              mload(0x40)\n              dup1\n              swap2\n              sub\n              swap1\n              return\n                /* \"Campaign.sol\":4661:4753  function getRequestsCount() public view returns (uint) {... */\n            tag_4:\n              callvalue\n              dup1\n              iszero\n              tag_26\n              jumpi\n              0x00\n              dup1\n              revert\n            tag_26:\n              pop\n              tag_27\n              tag_28\n              jump\t// in\n            tag_27:\n              mload(0x40)\n              tag_29\n              swap2\n              swap1\n              tag_30\n              jump\t// in\n            tag_29:\n              mload(0x40)\n              dup1\n              swap2\n              sub\n              swap1\n              return\n                /* \"Campaign.sol\":1617:1661  mapping (uint => Request) public requestsmap */\n            tag_5:\n              callvalue\n              dup1\n              iszero\n              tag_31\n              jumpi\n              0x00\n              dup1\n              revert\n            tag_31:\n              pop\n              tag_32\n              0x04\n              dup1\n              calldatasize\n              sub\n              dup2\n              add\n              swap1\n              tag_33\n              swap2\n              swap1\n              tag_17\n              jump\t// in\n            tag_33:\n              tag_34\n              jump\t// in\n            tag_32:\n              mload(0x40)\n              tag_35\n              swap6\n              swap5\n              swap4\n              swap3\n              swap2\n              swap1\n              tag_36\n              jump\t// in\n            tag_35:\n              mload(0x40)\n              dup1\n              swap2\n              sub\n              swap1\n              return\n                /* \"Campaign.sol\":4248:4604  function getSummary() public view returns (... */\n            tag_6:\n              callvalue\n              dup1\n              iszero\n              tag_37\n              jumpi\n              0x00\n              dup1\n              revert\n            tag_37:\n              pop\n              tag_38\n              tag_39\n              jump\t// in\n            tag_38:\n              mload(0x40)\n              tag_40\n              swap8\n              swap7\n              swap6\n              swap5\n              swap4\n              swap3\n              swap2\n              swap1\n              tag_41\n              jump\t// in\n            tag_40:\n              mload(0x40)\n              dup1\n              swap2\n              sub\n              swap1\n              return\n                /* \"Campaign.sol\":751:773  address public manager */\n            tag_7:\n              callvalue\n              dup1\n              iszero\n              tag_42\n              jumpi\n              0x00\n              dup1\n              revert\n            tag_42:\n              pop\n              tag_43\n              tag_44\n              jump\t// in\n            tag_43:\n              mload(0x40)\n              tag_45\n              swap2\n              swap1\n              tag_46\n              jump\t// in\n            tag_45:\n              mload(0x40)\n              dup1\n              swap2\n              sub\n              swap1\n              return\n                /* \"Campaign.sol\":1163:1193  uint public approversCount = 0 */\n            tag_8:\n              callvalue\n              dup1\n              iszero\n              tag_47\n              jumpi\n              0x00\n              dup1\n              revert\n            tag_47:\n              pop\n              tag_48\n              tag_49\n              jump\t// in\n            tag_48:\n              mload(0x40)\n              tag_50\n              swap2\n              swap1\n              tag_30\n              jump\t// in\n            tag_50:\n              mload(0x40)\n              dup1\n              swap2\n              sub\n              swap1\n              return\n                /* \"Campaign.sol\":2674:3062  function createRequest(string memory description, uint value, address recipient) public restricted_person {... */\n            tag_9:\n              callvalue\n              dup1\n              iszero\n              tag_51\n              jumpi\n              0x00\n              dup1\n              revert\n            tag_51:\n              pop\n              tag_52\n              0x04\n              dup1\n              calldatasize\n              sub\n              dup2\n              add\n              swap1\n              tag_53\n              swap2\n              swap1\n              tag_54\n              jump\t// in\n            tag_53:\n              tag_55\n              jump\t// in\n            tag_52:\n              stop\n                /* \"Campaign.sol\":824:855  uint public minimumContribution */\n            tag_10:\n              callvalue\n              dup1\n              iszero\n              tag_56\n              jumpi\n              0x00\n              dup1\n              revert\n            tag_56:\n              pop\n              tag_57\n              tag_58\n              jump\t// in\n            tag_57:\n              mload(0x40)\n              tag_59\n              swap2\n              swap1\n              tag_30\n              jump\t// in\n            tag_59:\n              mload(0x40)\n              dup1\n              swap2\n              sub\n              swap1\n              return\n                /* \"Campaign.sol\":2312:2626  function contribute() public payable {... */\n            tag_11:\n              tag_60\n              tag_61\n              jump\t// in\n            tag_60:\n              stop\n                /* \"Campaign.sol\":3108:3657  function approveRequest(uint index) public {... */\n            tag_12:\n              callvalue\n              dup1\n              iszero\n              tag_62\n              jumpi\n              0x00\n              dup1\n              revert\n            tag_62:\n              pop\n              tag_63\n              0x04\n              dup1\n              calldatasize\n              sub\n              dup2\n              add\n              swap1\n              tag_64\n              swap2\n              swap1\n              tag_17\n              jump\t// in\n            tag_64:\n              tag_65\n              jump\t// in\n            tag_63:\n              stop\n                /* \"Campaign.sol\":3663:4194  function finalizeRequest(uint index) public restricted_person {... */\n            tag_18:\n                /* \"Campaign.sol\":1781:1788  manager */\n              0x00\n              dup1\n              sload\n              swap1\n              0x0100\n              exp\n              swap1\n              div\n              0xffffffffffffffffffffffffffffffffffffffff\n              and\n                /* \"Campaign.sol\":1767:1788  msg.sender == manager */\n              0xffffffffffffffffffffffffffffffffffffffff\n              and\n                /* \"Campaign.sol\":1767:1777  msg.sender */\n              caller\n                /* \"Campaign.sol\":1767:1788  msg.sender == manager */\n              0xffffffffffffffffffffffffffffffffffffffff\n              and\n              eq\n                /* \"Campaign.sol\":1759:1789  require(msg.sender == manager) */\n              tag_67\n              jumpi\n              0x00\n              dup1\n              revert\n            tag_67:\n                /* \"Campaign.sol\":3820:3843  Request storage request */\n              0x00\n                /* \"Campaign.sol\":3846:3857  requestsmap */\n              0x07\n                /* \"Campaign.sol\":3846:3864  requestsmap[index] */\n              0x00\n                /* \"Campaign.sol\":3858:3863  index */\n              dup4\n                /* \"Campaign.sol\":3846:3864  requestsmap[index] */\n              dup2\n              mstore\n              0x20\n              add\n              swap1\n              dup2\n              mstore\n              0x20\n              add\n              0x00\n              keccak256\n                /* \"Campaign.sol\":3820:3864  Request storage request = requestsmap[index] */\n              swap1\n              pop\n                /* \"Campaign.sol\":3934:3941  request */\n              dup1\n                /* \"Campaign.sol\":3934:3950  request.complete */\n              0x02\n              add\n              0x14\n              swap1\n              sload\n              swap1\n              0x0100\n              exp\n              swap1\n              div\n              0xff\n              and\n                /* \"Campaign.sol\":3933:3950  !request.complete */\n              iszero\n                /* \"Campaign.sol\":3925:3951  require(!request.complete) */\n              tag_69\n              jumpi\n              0x00\n              dup1\n              revert\n            tag_69:\n                /* \"Campaign.sol\":4038:4039  2 */\n              0x02\n                /* \"Campaign.sol\":4023:4037  approversCount */\n              sload(0x05)\n                /* \"Campaign.sol\":4023:4039  approversCount/2 */\n              tag_70\n              swap2\n              swap1\n              tag_71\n              jump\t// in\n            tag_70:\n                /* \"Campaign.sol\":3999:4006  request */\n              dup2\n                /* \"Campaign.sol\":3999:4020  request.approvalCount */\n              0x03\n              add\n              sload\n                /* \"Campaign.sol\":3999:4040  request.approvalCount >(approversCount/2) */\n              gt\n                /* \"Campaign.sol\":3990:4041  require (request.approvalCount >(approversCount/2)) */\n              tag_72\n              jumpi\n              0x00\n              dup1\n              revert\n            tag_72:\n                /* \"Campaign.sol\":4079:4086  request */\n              dup1\n                /* \"Campaign.sol\":4079:4096  request.recipient */\n              0x02\n              add\n              0x00\n              swap1\n              sload\n              swap1\n              0x0100\n              exp\n              swap1\n              div\n              0xffffffffffffffffffffffffffffffffffffffff\n              and\n                /* \"Campaign.sol\":4079:4105  request.recipient.transfer */\n              0xffffffffffffffffffffffffffffffffffffffff\n              and\n                /* \"Campaign.sol\":4079:4120  request.recipient.transfer(request.value) */\n              0x08fc\n                /* \"Campaign.sol\":4106:4113  request */\n              dup3\n                /* \"Campaign.sol\":4106:4119  request.value */\n              0x01\n              add\n              sload\n                /* \"Campaign.sol\":4079:4120  request.recipient.transfer(request.value) */\n              swap1\n              dup2\n              iszero\n              mul\n              swap1\n              mload(0x40)\n              0x00\n              mload(0x40)\n              dup1\n              dup4\n              sub\n              dup2\n              dup6\n              dup9\n              dup9\n              call\n              swap4\n              pop\n              pop\n              pop\n              pop\n              iszero\n              dup1\n              iszero\n              tag_74\n              jumpi\n              returndatasize\n              0x00\n              dup1\n              returndatacopy\n              revert(0x00, returndatasize)\n            tag_74:\n              pop\n                /* \"Campaign.sol\":4182:4186  true */\n              0x01\n                /* \"Campaign.sol\":4163:4170  request */\n              dup2\n                /* \"Campaign.sol\":4163:4179  request.complete */\n              0x02\n              add\n              0x14\n                /* \"Campaign.sol\":4163:4186  request.complete = true */\n              0x0100\n              exp\n              dup2\n              sload\n              dup2\n              0xff\n              mul\n              not\n              and\n              swap1\n              dup4\n              iszero\n              iszero\n              mul\n              or\n              swap1\n              sstore\n              pop\n                /* \"Campaign.sol\":3725:4194  {... */\n              pop\n                /* \"Campaign.sol\":3663:4194  function finalizeRequest(uint index) public restricted_person {... */\n              pop\n              jump\t// out\n                /* \"Campaign.sol\":1084:1126  mapping (address => bool) public approvers */\n            tag_23:\n              mstore(0x20, 0x04)\n              dup1\n              0x00\n              mstore\n              keccak256(0x00, 0x40)\n              0x00\n              swap2\n              pop\n              sload\n              swap1\n              0x0100\n              exp\n              swap1\n              div\n              0xff\n              and\n              dup2\n              jump\t// out\n                /* \"Campaign.sol\":4661:4753  function getRequestsCount() public view returns (uint) {... */\n            tag_28:\n                /* \"Campaign.sol\":4710:4714  uint */\n              0x00\n                /* \"Campaign.sol\":4734:4745  numRequests */\n              sload(0x06)\n                /* \"Campaign.sol\":4727:4745  return numRequests */\n              swap1\n              pop\n                /* \"Campaign.sol\":4661:4753  function getRequestsCount() public view returns (uint) {... */\n              swap1\n              jump\t// out\n                /* \"Campaign.sol\":1617:1661  mapping (uint => Request) public requestsmap */\n            tag_34:\n              mstore(0x20, 0x07)\n              dup1\n              0x00\n              mstore\n              keccak256(0x00, 0x40)\n              0x00\n              swap2\n              pop\n              swap1\n              pop\n              dup1\n              0x00\n              add\n              dup1\n              sload\n              tag_76\n              swap1\n              tag_77\n              jump\t// in\n            tag_76:\n              dup1\n              0x1f\n              add\n              0x20\n              dup1\n              swap2\n              div\n              mul\n              0x20\n              add\n              mload(0x40)\n              swap1\n              dup2\n              add\n              0x40\n              mstore\n              dup1\n              swap3\n              swap2\n              swap1\n              dup2\n              dup2\n              mstore\n              0x20\n              add\n              dup3\n              dup1\n              sload\n              tag_78\n              swap1\n              tag_77\n              jump\t// in\n            tag_78:\n              dup1\n              iszero\n              tag_79\n              jumpi\n              dup1\n              0x1f\n              lt\n              tag_80\n              jumpi\n              0x0100\n              dup1\n              dup4\n              sload\n              div\n              mul\n              dup4\n              mstore\n              swap2\n              0x20\n              add\n              swap2\n              jump(tag_79)\n            tag_80:\n              dup3\n              add\n              swap2\n              swap1\n              0x00\n              mstore\n              keccak256(0x00, 0x20)\n              swap1\n            tag_81:\n              dup2\n              sload\n              dup2\n              mstore\n              swap1\n              0x01\n              add\n              swap1\n              0x20\n              add\n              dup1\n              dup4\n              gt\n              tag_81\n              jumpi\n              dup3\n              swap1\n              sub\n              0x1f\n              and\n              dup3\n              add\n              swap2\n            tag_79:\n              pop\n              pop\n              pop\n              pop\n              pop\n              swap1\n              dup1\n              0x01\n              add\n              sload\n              swap1\n              dup1\n              0x02\n              add\n              0x00\n              swap1\n              sload\n              swap1\n              0x0100\n              exp\n              swap1\n              div\n              0xffffffffffffffffffffffffffffffffffffffff\n              and\n              swap1\n              dup1\n              0x02\n              add\n              0x14\n              swap1\n              sload\n              swap1\n              0x0100\n              exp\n              swap1\n              div\n              0xff\n              and\n              swap1\n              dup1\n              0x03\n              add\n              sload\n              swap1\n              pop\n              dup6\n              jump\t// out\n                /* \"Campaign.sol\":4248:4604  function getSummary() public view returns (... */\n            tag_39:\n                /* \"Campaign.sol\":4301:4305  uint */\n              0x00\n                /* \"Campaign.sol\":4307:4311  uint */\n              dup1\n                /* \"Campaign.sol\":4313:4317  uint */\n              0x00\n                /* \"Campaign.sol\":4319:4323  uint */\n              dup1\n                /* \"Campaign.sol\":4325:4332  address */\n              0x00\n                /* \"Campaign.sol\":4334:4347  string memory */\n              0x60\n                /* \"Campaign.sol\":4349:4362  string memory */\n              dup1\n                /* \"Campaign.sol\":4403:4422  minimumContribution */\n              sload(0x01)\n                /* \"Campaign.sol\":4435:4456  address(this).balance */\n              selfbalance\n                /* \"Campaign.sol\":4469:4480  numRequests */\n              sload(0x06)\n                /* \"Campaign.sol\":4493:4507  approversCount */\n              sload(0x05)\n                /* \"Campaign.sol\":4520:4527  manager */\n              0x00\n              dup1\n              sload\n              swap1\n              0x0100\n              exp\n              swap1\n              div\n              0xffffffffffffffffffffffffffffffffffffffff\n              and\n                /* \"Campaign.sol\":4540:4553  campaignTitle */\n              0x02\n                /* \"Campaign.sol\":4566:4585  campaignDescription */\n              0x03\n                /* \"Campaign.sol\":4383:4596  return (... */\n              dup2\n              dup1\n              sload\n              tag_83\n              swap1\n              tag_77\n              jump\t// in\n            tag_83:\n              dup1\n              0x1f\n              add\n              0x20\n              dup1\n              swap2\n              div\n              mul\n              0x20\n              add\n              mload(0x40)\n              swap1\n              dup2\n              add\n              0x40\n              mstore\n              dup1\n              swap3\n              swap2\n              swap1\n              dup2\n              dup2\n              mstore\n              0x20\n              add\n              dup3\n              dup1\n              sload\n              tag_84\n              swap1\n              tag_77\n              jump\t// in\n            tag_84:\n              dup1\n              iszero\n              tag_85\n              jumpi\n              dup1\n              0x1f\n              lt\n              tag_86\n              jumpi\n              0x0100\n              dup1\n              dup4\n              sload\n              div\n              mul\n              dup4\n              mstore\n              swap2\n              0x20\n              add\n              swap2\n              jump(tag_85)\n            tag_86:\n              dup3\n              add\n              swap2\n              swap1\n              0x00\n              mstore\n              keccak256(0x00, 0x20)\n              swap1\n            tag_87:\n              dup2\n              sload\n              dup2\n              mstore\n              swap1\n              0x01\n              add\n              swap1\n              0x20\n              add\n              dup1\n              dup4\n              gt\n              tag_87\n              jumpi\n              dup3\n              swap1\n              sub\n              0x1f\n              and\n              dup3\n              add\n              swap2\n            tag_85:\n              pop\n              pop\n              pop\n              pop\n              pop\n              swap2\n              pop\n              dup1\n              dup1\n              sload\n              tag_88\n              swap1\n              tag_77\n              jump\t// in\n            tag_88:\n              dup1\n              0x1f\n              add\n              0x20\n              dup1\n              swap2\n              div\n              mul\n              0x20\n              add\n              mload(0x40)\n              swap1\n              dup2\n              add\n              0x40\n              mstore\n              dup1\n              swap3\n              swap2\n              swap1\n              dup2\n              dup2\n              mstore\n              0x20\n              add\n              dup3\n              dup1\n              sload\n              tag_89\n              swap1\n              tag_77\n              jump\t// in\n            tag_89:\n              dup1\n              iszero\n              tag_90\n              jumpi\n              dup1\n              0x1f\n              lt\n              tag_91\n              jumpi\n              0x0100\n              dup1\n              dup4\n              sload\n              div\n              mul\n              dup4\n              mstore\n              swap2\n              0x20\n              add\n              swap2\n              jump(tag_90)\n            tag_91:\n              dup3\n              add\n              swap2\n              swap1\n              0x00\n              mstore\n              keccak256(0x00, 0x20)\n              swap1\n            tag_92:\n              dup2\n              sload\n              dup2\n              mstore\n              swap1\n              0x01\n              add\n              swap1\n              0x20\n              add\n              dup1\n              dup4\n              gt\n              tag_92\n              jumpi\n              dup3\n              swap1\n              sub\n              0x1f\n              and\n              dup3\n              add\n              swap2\n            tag_90:\n              pop\n              pop\n              pop\n              pop\n              pop\n              swap1\n              pop\n              swap7\n              pop\n              swap7\n              pop\n              swap7\n              pop\n              swap7\n              pop\n              swap7\n              pop\n              swap7\n              pop\n              swap7\n              pop\n                /* \"Campaign.sol\":4248:4604  function getSummary() public view returns (... */\n              swap1\n              swap2\n              swap3\n              swap4\n              swap5\n              swap6\n              swap7\n              jump\t// out\n                /* \"Campaign.sol\":751:773  address public manager */\n            tag_44:\n              0x00\n              dup1\n              sload\n              swap1\n              0x0100\n              exp\n              swap1\n              div\n              0xffffffffffffffffffffffffffffffffffffffff\n              and\n              dup2\n              jump\t// out\n                /* \"Campaign.sol\":1163:1193  uint public approversCount = 0 */\n            tag_49:\n              sload(0x05)\n              dup2\n              jump\t// out\n                /* \"Campaign.sol\":2674:3062  function createRequest(string memory description, uint value, address recipient) public restricted_person {... */\n            tag_55:\n                /* \"Campaign.sol\":1781:1788  manager */\n              0x00\n              dup1\n              sload\n              swap1\n              0x0100\n              exp\n              swap1\n              div\n              0xffffffffffffffffffffffffffffffffffffffff\n              and\n                /* \"Campaign.sol\":1767:1788  msg.sender == manager */\n              0xffffffffffffffffffffffffffffffffffffffff\n              and\n                /* \"Campaign.sol\":1767:1777  msg.sender */\n              caller\n                /* \"Campaign.sol\":1767:1788  msg.sender == manager */\n              0xffffffffffffffffffffffffffffffffffffffff\n              and\n              eq\n                /* \"Campaign.sol\":1759:1789  require(msg.sender == manager) */\n              tag_94\n              jumpi\n              0x00\n              dup1\n              revert\n            tag_94:\n                /* \"Campaign.sol\":2827:2844  Request storage r */\n              0x00\n                /* \"Campaign.sol\":2847:2858  requestsmap */\n              0x07\n                /* \"Campaign.sol\":2847:2871  requestsmap[numRequests] */\n              0x00\n                /* \"Campaign.sol\":2859:2870  numRequests */\n              sload(0x06)\n                /* \"Campaign.sol\":2847:2871  requestsmap[numRequests] */\n              dup2\n              mstore\n              0x20\n              add\n              swap1\n              dup2\n              mstore\n              0x20\n              add\n              0x00\n              keccak256\n                /* \"Campaign.sol\":2827:2871  Request storage r = requestsmap[numRequests] */\n              swap1\n              pop\n                /* \"Campaign.sol\":2881:2892  numRequests */\n              0x06\n              0x00\n                /* \"Campaign.sol\":2881:2894  numRequests++ */\n              dup2\n              sload\n              dup1\n              swap3\n              swap2\n              swap1\n              tag_96\n              swap1\n              tag_97\n              jump\t// in\n            tag_96:\n              swap2\n              swap1\n              pop\n              sstore\n              pop\n                /* \"Campaign.sol\":2920:2931  description */\n              dup4\n                /* \"Campaign.sol\":2904:2905  r */\n              dup2\n                /* \"Campaign.sol\":2904:2917  r.description */\n              0x00\n              add\n                /* \"Campaign.sol\":2904:2931  r.description = description */\n              swap1\n              dup1\n              mload\n              swap1\n              0x20\n              add\n              swap1\n              tag_98\n              swap3\n              swap2\n              swap1\n              tag_99\n              jump\t// in\n            tag_98:\n              pop\n                /* \"Campaign.sol\":2951:2956  value */\n              dup3\n                /* \"Campaign.sol\":2941:2942  r */\n              dup2\n                /* \"Campaign.sol\":2941:2948  r.value */\n              0x01\n              add\n                /* \"Campaign.sol\":2941:2956  r.value = value */\n              dup2\n              swap1\n              sstore\n              pop\n                /* \"Campaign.sol\":2988:2997  recipient */\n              dup2\n                /* \"Campaign.sol\":2966:2967  r */\n              dup2\n                /* \"Campaign.sol\":2966:2977  r.recipient */\n              0x02\n              add\n              0x00\n                /* \"Campaign.sol\":2966:2998  r.recipient = payable(recipient) */\n              0x0100\n              exp\n              dup2\n              sload\n              dup2\n              0xffffffffffffffffffffffffffffffffffffffff\n              mul\n              not\n              and\n              swap1\n              dup4\n              0xffffffffffffffffffffffffffffffffffffffff\n              and\n              mul\n              or\n              swap1\n              sstore\n              pop\n                /* \"Campaign.sol\":3021:3026  false */\n              0x00\n                /* \"Campaign.sol\":3008:3009  r */\n              dup2\n                /* \"Campaign.sol\":3008:3018  r.complete */\n              0x02\n              add\n              0x14\n                /* \"Campaign.sol\":3008:3026  r.complete = false */\n              0x0100\n              exp\n              dup2\n              sload\n              dup2\n              0xff\n              mul\n              not\n              and\n              swap1\n              dup4\n              iszero\n              iszero\n              mul\n              or\n              swap1\n              sstore\n              pop\n                /* \"Campaign.sol\":3053:3054  0 */\n              0x00\n                /* \"Campaign.sol\":3036:3037  r */\n              dup2\n                /* \"Campaign.sol\":3036:3051  r.approvalCount */\n              0x03\n              add\n                /* \"Campaign.sol\":3036:3054  r.approvalCount= 0 */\n              dup2\n              swap1\n              sstore\n              pop\n                /* \"Campaign.sol\":2780:3062  {... */\n              pop\n                /* \"Campaign.sol\":2674:3062  function createRequest(string memory description, uint value, address recipient) public restricted_person {... */\n              pop\n              pop\n              pop\n              jump\t// out\n                /* \"Campaign.sol\":824:855  uint public minimumContribution */\n            tag_58:\n              sload(0x01)\n              dup2\n              jump\t// out\n                /* \"Campaign.sol\":2312:2626  function contribute() public payable {... */\n            tag_61:\n                /* \"Campaign.sol\":2445:2464  minimumContribution */\n              sload(0x01)\n                /* \"Campaign.sol\":2433:2442  msg.value */\n              callvalue\n                /* \"Campaign.sol\":2433:2464  msg.value > minimumContribution */\n              gt\n                /* \"Campaign.sol\":2424:2465  require (msg.value > minimumContribution) */\n              tag_101\n              jumpi\n              0x00\n              dup1\n              revert\n            tag_101:\n                /* \"Campaign.sol\":2551:2555  true */\n              0x01\n                /* \"Campaign.sol\":2527:2536  approvers */\n              0x04\n                /* \"Campaign.sol\":2527:2548  approvers[msg.sender] */\n              0x00\n                /* \"Campaign.sol\":2537:2547  msg.sender */\n              caller\n                /* \"Campaign.sol\":2527:2548  approvers[msg.sender] */\n              0xffffffffffffffffffffffffffffffffffffffff\n              and\n              0xffffffffffffffffffffffffffffffffffffffff\n              and\n              dup2\n              mstore\n              0x20\n              add\n              swap1\n              dup2\n              mstore\n              0x20\n              add\n              0x00\n              keccak256\n              0x00\n                /* \"Campaign.sol\":2527:2555  approvers[msg.sender] = true */\n              0x0100\n              exp\n              dup2\n              sload\n              dup2\n              0xff\n              mul\n              not\n              and\n              swap1\n              dup4\n              iszero\n              iszero\n              mul\n              or\n              swap1\n              sstore\n              pop\n                /* \"Campaign.sol\":2603:2617  approversCount */\n              0x05\n              0x00\n                /* \"Campaign.sol\":2603:2619  approversCount++ */\n              dup2\n              sload\n              dup1\n              swap3\n              swap2\n              swap1\n              tag_102\n              swap1\n              tag_97\n              jump\t// in\n            tag_102:\n              swap2\n              swap1\n              pop\n              sstore\n              pop\n                /* \"Campaign.sol\":2312:2626  function contribute() public payable {... */\n              jump\t// out\n                /* \"Campaign.sol\":3108:3657  function approveRequest(uint index) public {... */\n            tag_65:\n                /* \"Campaign.sol\":3246:3269  Request storage request */\n              0x00\n                /* \"Campaign.sol\":3272:3283  requestsmap */\n              0x07\n                /* \"Campaign.sol\":3272:3290  requestsmap[index] */\n              0x00\n                /* \"Campaign.sol\":3284:3289  index */\n              dup4\n                /* \"Campaign.sol\":3272:3290  requestsmap[index] */\n              dup2\n              mstore\n              0x20\n              add\n              swap1\n              dup2\n              mstore\n              0x20\n              add\n              0x00\n              keccak256\n                /* \"Campaign.sol\":3246:3290  Request storage request = requestsmap[index] */\n              swap1\n              pop\n                /* \"Campaign.sol\":3370:3379  approvers */\n              0x04\n                /* \"Campaign.sol\":3370:3391  approvers[msg.sender] */\n              0x00\n                /* \"Campaign.sol\":3380:3390  msg.sender */\n              caller\n                /* \"Campaign.sol\":3370:3391  approvers[msg.sender] */\n              0xffffffffffffffffffffffffffffffffffffffff\n              and\n              0xffffffffffffffffffffffffffffffffffffffff\n              and\n              dup2\n              mstore\n              0x20\n              add\n              swap1\n              dup2\n              mstore\n              0x20\n              add\n              0x00\n              keccak256\n              0x00\n              swap1\n              sload\n              swap1\n              0x0100\n              exp\n              swap1\n              div\n              0xff\n              and\n                /* \"Campaign.sol\":3362:3392  require(approvers[msg.sender]) */\n              tag_104\n              jumpi\n              0x00\n              dup1\n              revert\n            tag_104:\n                /* \"Campaign.sol\":3461:3468  request */\n              dup1\n                /* \"Campaign.sol\":3461:3478  request.approvals */\n              0x04\n              add\n                /* \"Campaign.sol\":3461:3490  request.approvals[msg.sender] */\n              0x00\n                /* \"Campaign.sol\":3479:3489  msg.sender */\n              caller\n                /* \"Campaign.sol\":3461:3490  request.approvals[msg.sender] */\n              0xffffffffffffffffffffffffffffffffffffffff\n              and\n              0xffffffffffffffffffffffffffffffffffffffff\n              and\n              dup2\n              mstore\n              0x20\n              add\n              swap1\n              dup2\n              mstore\n              0x20\n              add\n              0x00\n              keccak256\n              0x00\n              swap1\n              sload\n              swap1\n              0x0100\n              exp\n              swap1\n              div\n              0xff\n              and\n                /* \"Campaign.sol\":3460:3490  !request.approvals[msg.sender] */\n              iszero\n                /* \"Campaign.sol\":3452:3491  require(!request.approvals[msg.sender]) */\n              tag_105\n              jumpi\n              0x00\n              dup1\n              revert\n            tag_105:\n                /* \"Campaign.sol\":3537:3544  request */\n              dup1\n                /* \"Campaign.sol\":3537:3558  request.approvalCount */\n              0x03\n              add\n              0x00\n                /* \"Campaign.sol\":3537:3560  request.approvalCount++ */\n              dup2\n              sload\n              dup1\n              swap3\n              swap2\n              swap1\n              tag_106\n              swap1\n              tag_97\n              jump\t// in\n            tag_106:\n              swap2\n              swap1\n              pop\n              sstore\n              pop\n                /* \"Campaign.sol\":3645:3649  true */\n              0x01\n                /* \"Campaign.sol\":3613:3620  request */\n              dup2\n                /* \"Campaign.sol\":3613:3630  request.approvals */\n              0x04\n              add\n                /* \"Campaign.sol\":3613:3642  request.approvals[msg.sender] */\n              0x00\n                /* \"Campaign.sol\":3631:3641  msg.sender */\n              caller\n                /* \"Campaign.sol\":3613:3642  request.approvals[msg.sender] */\n              0xffffffffffffffffffffffffffffffffffffffff\n              and\n              0xffffffffffffffffffffffffffffffffffffffff\n              and\n              dup2\n              mstore\n              0x20\n              add\n              swap1\n              dup2\n              mstore\n              0x20\n              add\n              0x00\n              keccak256\n              0x00\n                /* \"Campaign.sol\":3613:3649  request.approvals[msg.sender] = true */\n              0x0100\n              exp\n              dup2\n              sload\n              dup2\n              0xff\n              mul\n              not\n              and\n              swap1\n              dup4\n              iszero\n              iszero\n              mul\n              or\n              swap1\n              sstore\n              pop\n                /* \"Campaign.sol\":3151:3657  {... */\n              pop\n                /* \"Campaign.sol\":3108:3657  function approveRequest(uint index) public {... */\n              pop\n              jump\t// out\n            tag_99:\n              dup3\n              dup1\n              sload\n              tag_107\n              swap1\n              tag_77\n              jump\t// in\n            tag_107:\n              swap1\n              0x00\n              mstore\n              keccak256(0x00, 0x20)\n              swap1\n              0x1f\n              add\n              0x20\n              swap1\n              div\n              dup2\n              add\n              swap3\n              dup3\n              tag_109\n              jumpi\n              0x00\n              dup6\n              sstore\n              jump(tag_108)\n            tag_109:\n              dup3\n              0x1f\n              lt\n              tag_110\n              jumpi\n              dup1\n              mload\n              not(0xff)\n              and\n              dup4\n              dup1\n              add\n              or\n              dup6\n              sstore\n              jump(tag_108)\n            tag_110:\n              dup3\n              dup1\n              add\n              0x01\n              add\n              dup6\n              sstore\n              dup3\n              iszero\n              tag_108\n              jumpi\n              swap2\n              dup3\n              add\n            tag_111:\n              dup3\n              dup2\n              gt\n              iszero\n              tag_112\n              jumpi\n              dup3\n              mload\n              dup3\n              sstore\n              swap2\n              0x20\n              add\n              swap2\n              swap1\n              0x01\n              add\n              swap1\n              jump(tag_111)\n            tag_112:\n            tag_108:\n              pop\n              swap1\n              pop\n              tag_113\n              swap2\n              swap1\n              tag_114\n              jump\t// in\n            tag_113:\n              pop\n              swap1\n              jump\t// out\n            tag_114:\n            tag_115:\n              dup1\n              dup3\n              gt\n              iszero\n              tag_116\n              jumpi\n              0x00\n              dup2\n              0x00\n              swap1\n              sstore\n              pop\n              0x01\n              add\n              jump(tag_115)\n            tag_116:\n              pop\n              swap1\n              jump\t// out\n                /* \"#utility.yul\":7:82   */\n            tag_117:\n                /* \"#utility.yul\":40:46   */\n              0x00\n                /* \"#utility.yul\":73:75   */\n              0x40\n                /* \"#utility.yul\":67:76   */\n              mload\n                /* \"#utility.yul\":57:76   */\n              swap1\n              pop\n                /* \"#utility.yul\":7:82   */\n              swap1\n              jump\t// out\n                /* \"#utility.yul\":88:205   */\n            tag_118:\n                /* \"#utility.yul\":197:198   */\n              0x00\n                /* \"#utility.yul\":194:195   */\n              dup1\n                /* \"#utility.yul\":187:199   */\n              revert\n                /* \"#utility.yul\":211:328   */\n            tag_119:\n                /* \"#utility.yul\":320:321   */\n              0x00\n                /* \"#utility.yul\":317:318   */\n              dup1\n                /* \"#utility.yul\":310:322   */\n              revert\n                /* \"#utility.yul\":334:411   */\n            tag_120:\n                /* \"#utility.yul\":371:378   */\n              0x00\n                /* \"#utility.yul\":400:405   */\n              dup2\n                /* \"#utility.yul\":389:405   */\n              swap1\n              pop\n                /* \"#utility.yul\":334:411   */\n              swap2\n              swap1\n              pop\n              jump\t// out\n                /* \"#utility.yul\":417:539   */\n            tag_121:\n                /* \"#utility.yul\":490:514   */\n              tag_156\n                /* \"#utility.yul\":508:513   */\n              dup2\n                /* \"#utility.yul\":490:514   */\n              tag_120\n              jump\t// in\n            tag_156:\n                /* \"#utility.yul\":483:488   */\n              dup2\n                /* \"#utility.yul\":480:515   */\n              eq\n                /* \"#utility.yul\":470:533   */\n              tag_157\n              jumpi\n                /* \"#utility.yul\":529:530   */\n              0x00\n                /* \"#utility.yul\":526:527   */\n              dup1\n                /* \"#utility.yul\":519:531   */\n              revert\n                /* \"#utility.yul\":470:533   */\n            tag_157:\n                /* \"#utility.yul\":417:539   */\n              pop\n              jump\t// out\n                /* \"#utility.yul\":545:684   */\n            tag_122:\n                /* \"#utility.yul\":591:596   */\n              0x00\n                /* \"#utility.yul\":629:635   */\n              dup2\n                /* \"#utility.yul\":616:636   */\n              calldataload\n                /* \"#utility.yul\":607:636   */\n              swap1\n              pop\n                /* \"#utility.yul\":645:678   */\n              tag_159\n                /* \"#utility.yul\":672:677   */\n              dup2\n                /* \"#utility.yul\":645:678   */\n              tag_121\n              jump\t// in\n            tag_159:\n                /* \"#utility.yul\":545:684   */\n              swap3\n              swap2\n              pop\n              pop\n              jump\t// out\n                /* \"#utility.yul\":690:1019   */\n            tag_17:\n                /* \"#utility.yul\":749:755   */\n              0x00\n                /* \"#utility.yul\":798:800   */\n              0x20\n                /* \"#utility.yul\":786:795   */\n              dup3\n                /* \"#utility.yul\":777:784   */\n              dup5\n                /* \"#utility.yul\":773:796   */\n              sub\n                /* \"#utility.yul\":769:801   */\n              slt\n                /* \"#utility.yul\":766:885   */\n              iszero\n              tag_161\n              jumpi\n                /* \"#utility.yul\":804:883   */\n              tag_162\n              tag_118\n              jump\t// in\n            tag_162:\n                /* \"#utility.yul\":766:885   */\n            tag_161:\n                /* \"#utility.yul\":924:925   */\n              0x00\n                /* \"#utility.yul\":949:1002   */\n              tag_163\n                /* \"#utility.yul\":994:1001   */\n              dup5\n                /* \"#utility.yul\":985:991   */\n              dup3\n                /* \"#utility.yul\":974:983   */\n              dup6\n                /* \"#utility.yul\":970:992   */\n              add\n                /* \"#utility.yul\":949:1002   */\n              tag_122\n              jump\t// in\n            tag_163:\n                /* \"#utility.yul\":939:1002   */\n              swap2\n              pop\n                /* \"#utility.yul\":895:1012   */\n              pop\n                /* \"#utility.yul\":690:1019   */\n              swap3\n              swap2\n              pop\n              pop\n              jump\t// out\n                /* \"#utility.yul\":1025:1151   */\n            tag_123:\n                /* \"#utility.yul\":1062:1069   */\n              0x00\n                /* \"#utility.yul\":1102:1144   */\n              0xffffffffffffffffffffffffffffffffffffffff\n                /* \"#utility.yul\":1095:1100   */\n              dup3\n                /* \"#utility.yul\":1091:1145   */\n              and\n                /* \"#utility.yul\":1080:1145   */\n              swap1\n              pop\n                /* \"#utility.yul\":1025:1151   */\n              swap2\n              swap1\n              pop\n              jump\t// out\n                /* \"#utility.yul\":1157:1253   */\n            tag_124:\n                /* \"#utility.yul\":1194:1201   */\n              0x00\n                /* \"#utility.yul\":1223:1247   */\n              tag_166\n                /* \"#utility.yul\":1241:1246   */\n              dup3\n                /* \"#utility.yul\":1223:1247   */\n              tag_123\n              jump\t// in\n            tag_166:\n                /* \"#utility.yul\":1212:1247   */\n              swap1\n              pop\n                /* \"#utility.yul\":1157:1253   */\n              swap2\n              swap1\n              pop\n              jump\t// out\n                /* \"#utility.yul\":1259:1381   */\n            tag_125:\n                /* \"#utility.yul\":1332:1356   */\n              tag_168\n                /* \"#utility.yul\":1350:1355   */\n              dup2\n                /* \"#utility.yul\":1332:1356   */\n              tag_124\n              jump\t// in\n            tag_168:\n                /* \"#utility.yul\":1325:1330   */\n              dup2\n                /* \"#utility.yul\":1322:1357   */\n              eq\n                /* \"#utility.yul\":1312:1375   */\n              tag_169\n              jumpi\n                /* \"#utility.yul\":1371:1372   */\n              0x00\n                /* \"#utility.yul\":1368:1369   */\n              dup1\n                /* \"#utility.yul\":1361:1373   */\n              revert\n                /* \"#utility.yul\":1312:1375   */\n            tag_169:\n                /* \"#utility.yul\":1259:1381   */\n              pop\n              jump\t// out\n                /* \"#utility.yul\":1387:1526   */\n            tag_126:\n                /* \"#utility.yul\":1433:1438   */\n              0x00\n                /* \"#utility.yul\":1471:1477   */\n              dup2\n                /* \"#utility.yul\":1458:1478   */\n              calldataload\n                /* \"#utility.yul\":1449:1478   */\n              swap1\n              pop\n                /* \"#utility.yul\":1487:1520   */\n              tag_171\n                /* \"#utility.yul\":1514:1519   */\n              dup2\n                /* \"#utility.yul\":1487:1520   */\n              tag_125\n              jump\t// in\n            tag_171:\n                /* \"#utility.yul\":1387:1526   */\n              swap3\n              swap2\n              pop\n              pop\n              jump\t// out\n                /* \"#utility.yul\":1532:1861   */\n            tag_22:\n                /* \"#utility.yul\":1591:1597   */\n              0x00\n                /* \"#utility.yul\":1640:1642   */\n              0x20\n                /* \"#utility.yul\":1628:1637   */\n              dup3\n                /* \"#utility.yul\":1619:1626   */\n              dup5\n                /* \"#utility.yul\":1615:1638   */\n              sub\n                /* \"#utility.yul\":1611:1643   */\n              slt\n                /* \"#utility.yul\":1608:1727   */\n              iszero\n              tag_173\n              jumpi\n                /* \"#utility.yul\":1646:1725   */\n              tag_174\n              tag_118\n              jump\t// in\n            tag_174:\n                /* \"#utility.yul\":1608:1727   */\n            tag_173:\n                /* \"#utility.yul\":1766:1767   */\n              0x00\n                /* \"#utility.yul\":1791:1844   */\n              tag_175\n                /* \"#utility.yul\":1836:1843   */\n              dup5\n                /* \"#utility.yul\":1827:1833   */\n              dup3\n                /* \"#utility.yul\":1816:1825   */\n              dup6\n                /* \"#utility.yul\":1812:1834   */\n              add\n                /* \"#utility.yul\":1791:1844   */\n              tag_126\n              jump\t// in\n            tag_175:\n                /* \"#utility.yul\":1781:1844   */\n              swap2\n              pop\n                /* \"#utility.yul\":1737:1854   */\n              pop\n                /* \"#utility.yul\":1532:1861   */\n              swap3\n              swap2\n              pop\n              pop\n              jump\t// out\n                /* \"#utility.yul\":1867:1957   */\n            tag_127:\n                /* \"#utility.yul\":1901:1908   */\n              0x00\n                /* \"#utility.yul\":1944:1949   */\n              dup2\n                /* \"#utility.yul\":1937:1950   */\n              iszero\n                /* \"#utility.yul\":1930:1951   */\n              iszero\n                /* \"#utility.yul\":1919:1951   */\n              swap1\n              pop\n                /* \"#utility.yul\":1867:1957   */\n              swap2\n              swap1\n              pop\n              jump\t// out\n                /* \"#utility.yul\":1963:2072   */\n            tag_128:\n                /* \"#utility.yul\":2044:2065   */\n              tag_178\n                /* \"#utility.yul\":2059:2064   */\n              dup2\n                /* \"#utility.yul\":2044:2065   */\n              tag_127\n              jump\t// in\n            tag_178:\n                /* \"#utility.yul\":2039:2042   */\n              dup3\n                /* \"#utility.yul\":2032:2066   */\n              mstore\n                /* \"#utility.yul\":1963:2072   */\n              pop\n              pop\n              jump\t// out\n                /* \"#utility.yul\":2078:2288   */\n            tag_25:\n                /* \"#utility.yul\":2165:2169   */\n              0x00\n                /* \"#utility.yul\":2203:2205   */\n              0x20\n                /* \"#utility.yul\":2192:2201   */\n              dup3\n                /* \"#utility.yul\":2188:2206   */\n              add\n                /* \"#utility.yul\":2180:2206   */\n              swap1\n              pop\n                /* \"#utility.yul\":2216:2281   */\n              tag_180\n                /* \"#utility.yul\":2278:2279   */\n              0x00\n                /* \"#utility.yul\":2267:2276   */\n              dup4\n                /* \"#utility.yul\":2263:2280   */\n              add\n                /* \"#utility.yul\":2254:2260   */\n              dup5\n                /* \"#utility.yul\":2216:2281   */\n              tag_128\n              jump\t// in\n            tag_180:\n                /* \"#utility.yul\":2078:2288   */\n              swap3\n              swap2\n              pop\n              pop\n              jump\t// out\n                /* \"#utility.yul\":2294:2412   */\n            tag_129:\n                /* \"#utility.yul\":2381:2405   */\n              tag_182\n                /* \"#utility.yul\":2399:2404   */\n              dup2\n                /* \"#utility.yul\":2381:2405   */\n              tag_120\n              jump\t// in\n            tag_182:\n                /* \"#utility.yul\":2376:2379   */\n              dup3\n                /* \"#utility.yul\":2369:2406   */\n              mstore\n                /* \"#utility.yul\":2294:2412   */\n              pop\n              pop\n              jump\t// out\n                /* \"#utility.yul\":2418:2640   */\n            tag_30:\n                /* \"#utility.yul\":2511:2515   */\n              0x00\n                /* \"#utility.yul\":2549:2551   */\n              0x20\n                /* \"#utility.yul\":2538:2547   */\n              dup3\n                /* \"#utility.yul\":2534:2552   */\n              add\n                /* \"#utility.yul\":2526:2552   */\n              swap1\n              pop\n                /* \"#utility.yul\":2562:2633   */\n              tag_184\n                /* \"#utility.yul\":2630:2631   */\n              0x00\n                /* \"#utility.yul\":2619:2628   */\n              dup4\n                /* \"#utility.yul\":2615:2632   */\n              add\n                /* \"#utility.yul\":2606:2612   */\n              dup5\n                /* \"#utility.yul\":2562:2633   */\n              tag_129\n              jump\t// in\n            tag_184:\n                /* \"#utility.yul\":2418:2640   */\n              swap3\n              swap2\n              pop\n              pop\n              jump\t// out\n                /* \"#utility.yul\":2646:2745   */\n            tag_130:\n                /* \"#utility.yul\":2698:2704   */\n              0x00\n                /* \"#utility.yul\":2732:2737   */\n              dup2\n                /* \"#utility.yul\":2726:2738   */\n              mload\n                /* \"#utility.yul\":2716:2738   */\n              swap1\n              pop\n                /* \"#utility.yul\":2646:2745   */\n              swap2\n              swap1\n              pop\n              jump\t// out\n                /* \"#utility.yul\":2751:2920   */\n            tag_131:\n                /* \"#utility.yul\":2835:2846   */\n              0x00\n                /* \"#utility.yul\":2869:2875   */\n              dup3\n                /* \"#utility.yul\":2864:2867   */\n              dup3\n                /* \"#utility.yul\":2857:2876   */\n              mstore\n                /* \"#utility.yul\":2909:2913   */\n              0x20\n                /* \"#utility.yul\":2904:2907   */\n              dup3\n                /* \"#utility.yul\":2900:2914   */\n              add\n                /* \"#utility.yul\":2885:2914   */\n              swap1\n              pop\n                /* \"#utility.yul\":2751:2920   */\n              swap3\n              swap2\n              pop\n              pop\n              jump\t// out\n                /* \"#utility.yul\":2926:3233   */\n            tag_132:\n                /* \"#utility.yul\":2994:2995   */\n              0x00\n                /* \"#utility.yul\":3004:3117   */\n            tag_188:\n                /* \"#utility.yul\":3018:3024   */\n              dup4\n                /* \"#utility.yul\":3015:3016   */\n              dup2\n                /* \"#utility.yul\":3012:3025   */\n              lt\n                /* \"#utility.yul\":3004:3117   */\n              iszero\n              tag_190\n              jumpi\n                /* \"#utility.yul\":3103:3104   */\n              dup1\n                /* \"#utility.yul\":3098:3101   */\n              dup3\n                /* \"#utility.yul\":3094:3105   */\n              add\n                /* \"#utility.yul\":3088:3106   */\n              mload\n                /* \"#utility.yul\":3084:3085   */\n              dup2\n                /* \"#utility.yul\":3079:3082   */\n              dup5\n                /* \"#utility.yul\":3075:3086   */\n              add\n                /* \"#utility.yul\":3068:3107   */\n              mstore\n                /* \"#utility.yul\":3040:3042   */\n              0x20\n                /* \"#utility.yul\":3037:3038   */\n              dup2\n                /* \"#utility.yul\":3033:3043   */\n              add\n                /* \"#utility.yul\":3028:3043   */\n              swap1\n              pop\n                /* \"#utility.yul\":3004:3117   */\n              jump(tag_188)\n            tag_190:\n                /* \"#utility.yul\":3135:3141   */\n              dup4\n                /* \"#utility.yul\":3132:3133   */\n              dup2\n                /* \"#utility.yul\":3129:3142   */\n              gt\n                /* \"#utility.yul\":3126:3227   */\n              iszero\n              tag_191\n              jumpi\n                /* \"#utility.yul\":3215:3216   */\n              0x00\n                /* \"#utility.yul\":3206:3212   */\n              dup5\n                /* \"#utility.yul\":3201:3204   */\n              dup5\n                /* \"#utility.yul\":3197:3213   */\n              add\n                /* \"#utility.yul\":3190:3217   */\n              mstore\n                /* \"#utility.yul\":3126:3227   */\n            tag_191:\n                /* \"#utility.yul\":2975:3233   */\n              pop\n                /* \"#utility.yul\":2926:3233   */\n              pop\n              pop\n              pop\n              jump\t// out\n                /* \"#utility.yul\":3239:3341   */\n            tag_133:\n                /* \"#utility.yul\":3280:3286   */\n              0x00\n                /* \"#utility.yul\":3331:3333   */\n              0x1f\n                /* \"#utility.yul\":3327:3334   */\n              not\n                /* \"#utility.yul\":3322:3324   */\n              0x1f\n                /* \"#utility.yul\":3315:3320   */\n              dup4\n                /* \"#utility.yul\":3311:3325   */\n              add\n                /* \"#utility.yul\":3307:3335   */\n              and\n                /* \"#utility.yul\":3297:3335   */\n              swap1\n              pop\n                /* \"#utility.yul\":3239:3341   */\n              swap2\n              swap1\n              pop\n              jump\t// out\n                /* \"#utility.yul\":3347:3711   */\n            tag_134:\n                /* \"#utility.yul\":3435:3438   */\n              0x00\n                /* \"#utility.yul\":3463:3502   */\n              tag_194\n                /* \"#utility.yul\":3496:3501   */\n              dup3\n                /* \"#utility.yul\":3463:3502   */\n              tag_130\n              jump\t// in\n            tag_194:\n                /* \"#utility.yul\":3518:3589   */\n              tag_195\n                /* \"#utility.yul\":3582:3588   */\n              dup2\n                /* \"#utility.yul\":3577:3580   */\n              dup6\n                /* \"#utility.yul\":3518:3589   */\n              tag_131\n              jump\t// in\n            tag_195:\n                /* \"#utility.yul\":3511:3589   */\n              swap4\n              pop\n                /* \"#utility.yul\":3598:3650   */\n              tag_196\n                /* \"#utility.yul\":3643:3649   */\n              dup2\n                /* \"#utility.yul\":3638:3641   */\n              dup6\n                /* \"#utility.yul\":3631:3635   */\n              0x20\n                /* \"#utility.yul\":3624:3629   */\n              dup7\n                /* \"#utility.yul\":3620:3636   */\n              add\n                /* \"#utility.yul\":3598:3650   */\n              tag_132\n              jump\t// in\n            tag_196:\n                /* \"#utility.yul\":3675:3704   */\n              tag_197\n                /* \"#utility.yul\":3697:3703   */\n              dup2\n                /* \"#utility.yul\":3675:3704   */\n              tag_133\n              jump\t// in\n            tag_197:\n                /* \"#utility.yul\":3670:3673   */\n              dup5\n                /* \"#utility.yul\":3666:3705   */\n              add\n                /* \"#utility.yul\":3659:3705   */\n              swap2\n              pop\n                /* \"#utility.yul\":3439:3711   */\n              pop\n                /* \"#utility.yul\":3347:3711   */\n              swap3\n              swap2\n              pop\n              pop\n              jump\t// out\n                /* \"#utility.yul\":3717:3821   */\n            tag_135:\n                /* \"#utility.yul\":3762:3769   */\n              0x00\n                /* \"#utility.yul\":3791:3815   */\n              tag_199\n                /* \"#utility.yul\":3809:3814   */\n              dup3\n                /* \"#utility.yul\":3791:3815   */\n              tag_123\n              jump\t// in\n            tag_199:\n                /* \"#utility.yul\":3780:3815   */\n              swap1\n              pop\n                /* \"#utility.yul\":3717:3821   */\n              swap2\n              swap1\n              pop\n              jump\t// out\n                /* \"#utility.yul\":3827:3969   */\n            tag_136:\n                /* \"#utility.yul\":3930:3962   */\n              tag_201\n                /* \"#utility.yul\":3956:3961   */\n              dup2\n                /* \"#utility.yul\":3930:3962   */\n              tag_135\n              jump\t// in\n            tag_201:\n                /* \"#utility.yul\":3925:3928   */\n              dup3\n                /* \"#utility.yul\":3918:3963   */\n              mstore\n                /* \"#utility.yul\":3827:3969   */\n              pop\n              pop\n              jump\t// out\n                /* \"#utility.yul\":3975:4750   */\n            tag_36:\n                /* \"#utility.yul\":4210:4214   */\n              0x00\n                /* \"#utility.yul\":4248:4251   */\n              0xa0\n                /* \"#utility.yul\":4237:4246   */\n              dup3\n                /* \"#utility.yul\":4233:4252   */\n              add\n                /* \"#utility.yul\":4225:4252   */\n              swap1\n              pop\n                /* \"#utility.yul\":4298:4307   */\n              dup2\n                /* \"#utility.yul\":4292:4296   */\n              dup2\n                /* \"#utility.yul\":4288:4308   */\n              sub\n                /* \"#utility.yul\":4284:4285   */\n              0x00\n                /* \"#utility.yul\":4273:4282   */\n              dup4\n                /* \"#utility.yul\":4269:4286   */\n              add\n                /* \"#utility.yul\":4262:4309   */\n              mstore\n                /* \"#utility.yul\":4326:4404   */\n              tag_203\n                /* \"#utility.yul\":4399:4403   */\n              dup2\n                /* \"#utility.yul\":4390:4396   */\n              dup9\n                /* \"#utility.yul\":4326:4404   */\n              tag_134\n              jump\t// in\n            tag_203:\n                /* \"#utility.yul\":4318:4404   */\n              swap1\n              pop\n                /* \"#utility.yul\":4414:4486   */\n              tag_204\n                /* \"#utility.yul\":4482:4484   */\n              0x20\n                /* \"#utility.yul\":4471:4480   */\n              dup4\n                /* \"#utility.yul\":4467:4485   */\n              add\n                /* \"#utility.yul\":4458:4464   */\n              dup8\n                /* \"#utility.yul\":4414:4486   */\n              tag_129\n              jump\t// in\n            tag_204:\n                /* \"#utility.yul\":4496:4584   */\n              tag_205\n                /* \"#utility.yul\":4580:4582   */\n              0x40\n                /* \"#utility.yul\":4569:4578   */\n              dup4\n                /* \"#utility.yul\":4565:4583   */\n              add\n                /* \"#utility.yul\":4556:4562   */\n              dup7\n                /* \"#utility.yul\":4496:4584   */\n              tag_136\n              jump\t// in\n            tag_205:\n                /* \"#utility.yul\":4594:4660   */\n              tag_206\n                /* \"#utility.yul\":4656:4658   */\n              0x60\n                /* \"#utility.yul\":4645:4654   */\n              dup4\n                /* \"#utility.yul\":4641:4659   */\n              add\n                /* \"#utility.yul\":4632:4638   */\n              dup6\n                /* \"#utility.yul\":4594:4660   */\n              tag_128\n              jump\t// in\n            tag_206:\n                /* \"#utility.yul\":4670:4743   */\n              tag_207\n                /* \"#utility.yul\":4738:4741   */\n              0x80\n                /* \"#utility.yul\":4727:4736   */\n              dup4\n                /* \"#utility.yul\":4723:4742   */\n              add\n                /* \"#utility.yul\":4714:4720   */\n              dup5\n                /* \"#utility.yul\":4670:4743   */\n              tag_129\n              jump\t// in\n            tag_207:\n                /* \"#utility.yul\":3975:4750   */\n              swap7\n              swap6\n              pop\n              pop\n              pop\n              pop\n              pop\n              pop\n              jump\t// out\n                /* \"#utility.yul\":4756:4874   */\n            tag_137:\n                /* \"#utility.yul\":4843:4867   */\n              tag_209\n                /* \"#utility.yul\":4861:4866   */\n              dup2\n                /* \"#utility.yul\":4843:4867   */\n              tag_124\n              jump\t// in\n            tag_209:\n                /* \"#utility.yul\":4838:4841   */\n              dup3\n                /* \"#utility.yul\":4831:4868   */\n              mstore\n                /* \"#utility.yul\":4756:4874   */\n              pop\n              pop\n              jump\t// out\n                /* \"#utility.yul\":4880:5948   */\n            tag_41:\n                /* \"#utility.yul\":5181:5185   */\n              0x00\n                /* \"#utility.yul\":5219:5222   */\n              0xe0\n                /* \"#utility.yul\":5208:5217   */\n              dup3\n                /* \"#utility.yul\":5204:5223   */\n              add\n                /* \"#utility.yul\":5196:5223   */\n              swap1\n              pop\n                /* \"#utility.yul\":5233:5304   */\n              tag_211\n                /* \"#utility.yul\":5301:5302   */\n              0x00\n                /* \"#utility.yul\":5290:5299   */\n              dup4\n                /* \"#utility.yul\":5286:5303   */\n              add\n                /* \"#utility.yul\":5277:5283   */\n              dup11\n                /* \"#utility.yul\":5233:5304   */\n              tag_129\n              jump\t// in\n            tag_211:\n                /* \"#utility.yul\":5314:5386   */\n              tag_212\n                /* \"#utility.yul\":5382:5384   */\n              0x20\n                /* \"#utility.yul\":5371:5380   */\n              dup4\n                /* \"#utility.yul\":5367:5385   */\n              add\n                /* \"#utility.yul\":5358:5364   */\n              dup10\n                /* \"#utility.yul\":5314:5386   */\n              tag_129\n              jump\t// in\n            tag_212:\n                /* \"#utility.yul\":5396:5468   */\n              tag_213\n                /* \"#utility.yul\":5464:5466   */\n              0x40\n                /* \"#utility.yul\":5453:5462   */\n              dup4\n                /* \"#utility.yul\":5449:5467   */\n              add\n                /* \"#utility.yul\":5440:5446   */\n              dup9\n                /* \"#utility.yul\":5396:5468   */\n              tag_129\n              jump\t// in\n            tag_213:\n                /* \"#utility.yul\":5478:5550   */\n              tag_214\n                /* \"#utility.yul\":5546:5548   */\n              0x60\n                /* \"#utility.yul\":5535:5544   */\n              dup4\n                /* \"#utility.yul\":5531:5549   */\n              add\n                /* \"#utility.yul\":5522:5528   */\n              dup8\n                /* \"#utility.yul\":5478:5550   */\n              tag_129\n              jump\t// in\n            tag_214:\n                /* \"#utility.yul\":5560:5633   */\n              tag_215\n                /* \"#utility.yul\":5628:5631   */\n              0x80\n                /* \"#utility.yul\":5617:5626   */\n              dup4\n                /* \"#utility.yul\":5613:5632   */\n              add\n                /* \"#utility.yul\":5604:5610   */\n              dup7\n                /* \"#utility.yul\":5560:5633   */\n              tag_137\n              jump\t// in\n            tag_215:\n                /* \"#utility.yul\":5681:5690   */\n              dup2\n                /* \"#utility.yul\":5675:5679   */\n              dup2\n                /* \"#utility.yul\":5671:5691   */\n              sub\n                /* \"#utility.yul\":5665:5668   */\n              0xa0\n                /* \"#utility.yul\":5654:5663   */\n              dup4\n                /* \"#utility.yul\":5650:5669   */\n              add\n                /* \"#utility.yul\":5643:5692   */\n              mstore\n                /* \"#utility.yul\":5709:5787   */\n              tag_216\n                /* \"#utility.yul\":5782:5786   */\n              dup2\n                /* \"#utility.yul\":5773:5779   */\n              dup6\n                /* \"#utility.yul\":5709:5787   */\n              tag_134\n              jump\t// in\n            tag_216:\n                /* \"#utility.yul\":5701:5787   */\n              swap1\n              pop\n                /* \"#utility.yul\":5835:5844   */\n              dup2\n                /* \"#utility.yul\":5829:5833   */\n              dup2\n                /* \"#utility.yul\":5825:5845   */\n              sub\n                /* \"#utility.yul\":5819:5822   */\n              0xc0\n                /* \"#utility.yul\":5808:5817   */\n              dup4\n                /* \"#utility.yul\":5804:5823   */\n              add\n                /* \"#utility.yul\":5797:5846   */\n              mstore\n                /* \"#utility.yul\":5863:5941   */\n              tag_217\n                /* \"#utility.yul\":5936:5940   */\n              dup2\n                /* \"#utility.yul\":5927:5933   */\n              dup5\n                /* \"#utility.yul\":5863:5941   */\n              tag_134\n              jump\t// in\n            tag_217:\n                /* \"#utility.yul\":5855:5941   */\n              swap1\n              pop\n                /* \"#utility.yul\":4880:5948   */\n              swap9\n              swap8\n              pop\n              pop\n              pop\n              pop\n              pop\n              pop\n              pop\n              pop\n              jump\t// out\n                /* \"#utility.yul\":5954:6176   */\n            tag_46:\n                /* \"#utility.yul\":6047:6051   */\n              0x00\n                /* \"#utility.yul\":6085:6087   */\n              0x20\n                /* \"#utility.yul\":6074:6083   */\n              dup3\n                /* \"#utility.yul\":6070:6088   */\n              add\n                /* \"#utility.yul\":6062:6088   */\n              swap1\n              pop\n                /* \"#utility.yul\":6098:6169   */\n              tag_219\n                /* \"#utility.yul\":6166:6167   */\n              0x00\n                /* \"#utility.yul\":6155:6164   */\n              dup4\n                /* \"#utility.yul\":6151:6168   */\n              add\n                /* \"#utility.yul\":6142:6148   */\n              dup5\n                /* \"#utility.yul\":6098:6169   */\n              tag_137\n              jump\t// in\n            tag_219:\n                /* \"#utility.yul\":5954:6176   */\n              swap3\n              swap2\n              pop\n              pop\n              jump\t// out\n                /* \"#utility.yul\":6182:6299   */\n            tag_138:\n                /* \"#utility.yul\":6291:6292   */\n              0x00\n                /* \"#utility.yul\":6288:6289   */\n              dup1\n                /* \"#utility.yul\":6281:6293   */\n              revert\n                /* \"#utility.yul\":6305:6422   */\n            tag_139:\n                /* \"#utility.yul\":6414:6415   */\n              0x00\n                /* \"#utility.yul\":6411:6412   */\n              dup1\n                /* \"#utility.yul\":6404:6416   */\n              revert\n                /* \"#utility.yul\":6428:6608   */\n            tag_140:\n                /* \"#utility.yul\":6476:6553   */\n              0x4e487b7100000000000000000000000000000000000000000000000000000000\n                /* \"#utility.yul\":6473:6474   */\n              0x00\n                /* \"#utility.yul\":6466:6554   */\n              mstore\n                /* \"#utility.yul\":6573:6577   */\n              0x41\n                /* \"#utility.yul\":6570:6571   */\n              0x04\n                /* \"#utility.yul\":6563:6578   */\n              mstore\n                /* \"#utility.yul\":6597:6601   */\n              0x24\n                /* \"#utility.yul\":6594:6595   */\n              0x00\n                /* \"#utility.yul\":6587:6602   */\n              revert\n                /* \"#utility.yul\":6614:6895   */\n            tag_141:\n                /* \"#utility.yul\":6697:6724   */\n              tag_224\n                /* \"#utility.yul\":6719:6723   */\n              dup3\n                /* \"#utility.yul\":6697:6724   */\n              tag_133\n              jump\t// in\n            tag_224:\n                /* \"#utility.yul\":6689:6695   */\n              dup2\n                /* \"#utility.yul\":6685:6725   */\n              add\n                /* \"#utility.yul\":6827:6833   */\n              dup2\n                /* \"#utility.yul\":6815:6825   */\n              dup2\n                /* \"#utility.yul\":6812:6834   */\n              lt\n                /* \"#utility.yul\":6791:6809   */\n              0xffffffffffffffff\n                /* \"#utility.yul\":6779:6789   */\n              dup3\n                /* \"#utility.yul\":6776:6810   */\n              gt\n                /* \"#utility.yul\":6773:6835   */\n              or\n                /* \"#utility.yul\":6770:6858   */\n              iszero\n              tag_225\n              jumpi\n                /* \"#utility.yul\":6838:6856   */\n              tag_226\n              tag_140\n              jump\t// in\n            tag_226:\n                /* \"#utility.yul\":6770:6858   */\n            tag_225:\n                /* \"#utility.yul\":6878:6888   */\n              dup1\n                /* \"#utility.yul\":6874:6876   */\n              0x40\n                /* \"#utility.yul\":6867:6889   */\n              mstore\n                /* \"#utility.yul\":6657:6895   */\n              pop\n                /* \"#utility.yul\":6614:6895   */\n              pop\n              pop\n              jump\t// out\n                /* \"#utility.yul\":6901:7030   */\n            tag_142:\n                /* \"#utility.yul\":6935:6941   */\n              0x00\n                /* \"#utility.yul\":6962:6982   */\n              tag_228\n              tag_117\n              jump\t// in\n            tag_228:\n                /* \"#utility.yul\":6952:6982   */\n              swap1\n              pop\n                /* \"#utility.yul\":6991:7024   */\n              tag_229\n                /* \"#utility.yul\":7019:7023   */\n              dup3\n                /* \"#utility.yul\":7011:7017   */\n              dup3\n                /* \"#utility.yul\":6991:7024   */\n              tag_141\n              jump\t// in\n            tag_229:\n                /* \"#utility.yul\":6901:7030   */\n              swap2\n              swap1\n              pop\n              jump\t// out\n                /* \"#utility.yul\":7036:7344   */\n            tag_143:\n                /* \"#utility.yul\":7098:7102   */\n              0x00\n                /* \"#utility.yul\":7188:7206   */\n              0xffffffffffffffff\n                /* \"#utility.yul\":7180:7186   */\n              dup3\n                /* \"#utility.yul\":7177:7207   */\n              gt\n                /* \"#utility.yul\":7174:7230   */\n              iszero\n              tag_231\n              jumpi\n                /* \"#utility.yul\":7210:7228   */\n              tag_232\n              tag_140\n              jump\t// in\n            tag_232:\n                /* \"#utility.yul\":7174:7230   */\n            tag_231:\n                /* \"#utility.yul\":7248:7277   */\n              tag_233\n                /* \"#utility.yul\":7270:7276   */\n              dup3\n                /* \"#utility.yul\":7248:7277   */\n              tag_133\n              jump\t// in\n            tag_233:\n                /* \"#utility.yul\":7240:7277   */\n              swap1\n              pop\n                /* \"#utility.yul\":7332:7336   */\n              0x20\n                /* \"#utility.yul\":7326:7330   */\n              dup2\n                /* \"#utility.yul\":7322:7337   */\n              add\n                /* \"#utility.yul\":7314:7337   */\n              swap1\n              pop\n                /* \"#utility.yul\":7036:7344   */\n              swap2\n              swap1\n              pop\n              jump\t// out\n                /* \"#utility.yul\":7350:7504   */\n            tag_144:\n                /* \"#utility.yul\":7434:7440   */\n              dup3\n                /* \"#utility.yul\":7429:7432   */\n              dup2\n                /* \"#utility.yul\":7424:7427   */\n              dup4\n                /* \"#utility.yul\":7411:7441   */\n              calldatacopy\n                /* \"#utility.yul\":7496:7497   */\n              0x00\n                /* \"#utility.yul\":7487:7493   */\n              dup4\n                /* \"#utility.yul\":7482:7485   */\n              dup4\n                /* \"#utility.yul\":7478:7494   */\n              add\n                /* \"#utility.yul\":7471:7498   */\n              mstore\n                /* \"#utility.yul\":7350:7504   */\n              pop\n              pop\n              pop\n              jump\t// out\n                /* \"#utility.yul\":7510:7922   */\n            tag_145:\n                /* \"#utility.yul\":7588:7593   */\n              0x00\n                /* \"#utility.yul\":7613:7679   */\n              tag_236\n                /* \"#utility.yul\":7629:7678   */\n              tag_237\n                /* \"#utility.yul\":7671:7677   */\n              dup5\n                /* \"#utility.yul\":7629:7678   */\n              tag_143\n              jump\t// in\n            tag_237:\n                /* \"#utility.yul\":7613:7679   */\n              tag_142\n              jump\t// in\n            tag_236:\n                /* \"#utility.yul\":7604:7679   */\n              swap1\n              pop\n                /* \"#utility.yul\":7702:7708   */\n              dup3\n                /* \"#utility.yul\":7695:7700   */\n              dup2\n                /* \"#utility.yul\":7688:7709   */\n              mstore\n                /* \"#utility.yul\":7740:7744   */\n              0x20\n                /* \"#utility.yul\":7733:7738   */\n              dup2\n                /* \"#utility.yul\":7729:7745   */\n              add\n                /* \"#utility.yul\":7778:7781   */\n              dup5\n                /* \"#utility.yul\":7769:7775   */\n              dup5\n                /* \"#utility.yul\":7764:7767   */\n              dup5\n                /* \"#utility.yul\":7760:7776   */\n              add\n                /* \"#utility.yul\":7757:7782   */\n              gt\n                /* \"#utility.yul\":7754:7866   */\n              iszero\n              tag_238\n              jumpi\n                /* \"#utility.yul\":7785:7864   */\n              tag_239\n              tag_139\n              jump\t// in\n            tag_239:\n                /* \"#utility.yul\":7754:7866   */\n            tag_238:\n                /* \"#utility.yul\":7875:7916   */\n              tag_240\n                /* \"#utility.yul\":7909:7915   */\n              dup5\n                /* \"#utility.yul\":7904:7907   */\n              dup3\n                /* \"#utility.yul\":7899:7902   */\n              dup6\n                /* \"#utility.yul\":7875:7916   */\n              tag_144\n              jump\t// in\n            tag_240:\n                /* \"#utility.yul\":7594:7922   */\n              pop\n                /* \"#utility.yul\":7510:7922   */\n              swap4\n              swap3\n              pop\n              pop\n              pop\n              jump\t// out\n                /* \"#utility.yul\":7942:8282   */\n            tag_146:\n                /* \"#utility.yul\":7998:8003   */\n              0x00\n                /* \"#utility.yul\":8047:8050   */\n              dup3\n                /* \"#utility.yul\":8040:8044   */\n              0x1f\n                /* \"#utility.yul\":8032:8038   */\n              dup4\n                /* \"#utility.yul\":8028:8045   */\n              add\n                /* \"#utility.yul\":8024:8051   */\n              slt\n                /* \"#utility.yul\":8014:8136   */\n              tag_242\n              jumpi\n                /* \"#utility.yul\":8055:8134   */\n              tag_243\n              tag_138\n              jump\t// in\n            tag_243:\n                /* \"#utility.yul\":8014:8136   */\n            tag_242:\n                /* \"#utility.yul\":8172:8178   */\n              dup2\n                /* \"#utility.yul\":8159:8179   */\n              calldataload\n                /* \"#utility.yul\":8197:8276   */\n              tag_244\n                /* \"#utility.yul\":8272:8275   */\n              dup5\n                /* \"#utility.yul\":8264:8270   */\n              dup3\n                /* \"#utility.yul\":8257:8261   */\n              0x20\n                /* \"#utility.yul\":8249:8255   */\n              dup7\n                /* \"#utility.yul\":8245:8262   */\n              add\n                /* \"#utility.yul\":8197:8276   */\n              tag_145\n              jump\t// in\n            tag_244:\n                /* \"#utility.yul\":8188:8276   */\n              swap2\n              pop\n                /* \"#utility.yul\":8004:8282   */\n              pop\n                /* \"#utility.yul\":7942:8282   */\n              swap3\n              swap2\n              pop\n              pop\n              jump\t// out\n                /* \"#utility.yul\":8288:9087   */\n            tag_54:\n                /* \"#utility.yul\":8375:8381   */\n              0x00\n                /* \"#utility.yul\":8383:8389   */\n              dup1\n                /* \"#utility.yul\":8391:8397   */\n              0x00\n                /* \"#utility.yul\":8440:8442   */\n              0x60\n                /* \"#utility.yul\":8428:8437   */\n              dup5\n                /* \"#utility.yul\":8419:8426   */\n              dup7\n                /* \"#utility.yul\":8415:8438   */\n              sub\n                /* \"#utility.yul\":8411:8443   */\n              slt\n                /* \"#utility.yul\":8408:8527   */\n              iszero\n              tag_246\n              jumpi\n                /* \"#utility.yul\":8446:8525   */\n              tag_247\n              tag_118\n              jump\t// in\n            tag_247:\n                /* \"#utility.yul\":8408:8527   */\n            tag_246:\n                /* \"#utility.yul\":8594:8595   */\n              0x00\n                /* \"#utility.yul\":8583:8592   */\n              dup5\n                /* \"#utility.yul\":8579:8596   */\n              add\n                /* \"#utility.yul\":8566:8597   */\n              calldataload\n                /* \"#utility.yul\":8624:8642   */\n              0xffffffffffffffff\n                /* \"#utility.yul\":8616:8622   */\n              dup2\n                /* \"#utility.yul\":8613:8643   */\n              gt\n                /* \"#utility.yul\":8610:8727   */\n              iszero\n              tag_248\n              jumpi\n                /* \"#utility.yul\":8646:8725   */\n              tag_249\n              tag_119\n              jump\t// in\n            tag_249:\n                /* \"#utility.yul\":8610:8727   */\n            tag_248:\n                /* \"#utility.yul\":8751:8814   */\n              tag_250\n                /* \"#utility.yul\":8806:8813   */\n              dup7\n                /* \"#utility.yul\":8797:8803   */\n              dup3\n                /* \"#utility.yul\":8786:8795   */\n              dup8\n                /* \"#utility.yul\":8782:8804   */\n              add\n                /* \"#utility.yul\":8751:8814   */\n              tag_146\n              jump\t// in\n            tag_250:\n                /* \"#utility.yul\":8741:8814   */\n              swap4\n              pop\n                /* \"#utility.yul\":8537:8824   */\n              pop\n                /* \"#utility.yul\":8863:8865   */\n              0x20\n                /* \"#utility.yul\":8889:8942   */\n              tag_251\n                /* \"#utility.yul\":8934:8941   */\n              dup7\n                /* \"#utility.yul\":8925:8931   */\n              dup3\n                /* \"#utility.yul\":8914:8923   */\n              dup8\n                /* \"#utility.yul\":8910:8932   */\n              add\n                /* \"#utility.yul\":8889:8942   */\n              tag_122\n              jump\t// in\n            tag_251:\n                /* \"#utility.yul\":8879:8942   */\n              swap3\n              pop\n                /* \"#utility.yul\":8834:8952   */\n              pop\n                /* \"#utility.yul\":8991:8993   */\n              0x40\n                /* \"#utility.yul\":9017:9070   */\n              tag_252\n                /* \"#utility.yul\":9062:9069   */\n              dup7\n                /* \"#utility.yul\":9053:9059   */\n              dup3\n                /* \"#utility.yul\":9042:9051   */\n              dup8\n                /* \"#utility.yul\":9038:9060   */\n              add\n                /* \"#utility.yul\":9017:9070   */\n              tag_126\n              jump\t// in\n            tag_252:\n                /* \"#utility.yul\":9007:9070   */\n              swap2\n              pop\n                /* \"#utility.yul\":8962:9080   */\n              pop\n                /* \"#utility.yul\":8288:9087   */\n              swap3\n              pop\n              swap3\n              pop\n              swap3\n              jump\t// out\n                /* \"#utility.yul\":9093:9273   */\n            tag_147:\n                /* \"#utility.yul\":9141:9218   */\n              0x4e487b7100000000000000000000000000000000000000000000000000000000\n                /* \"#utility.yul\":9138:9139   */\n              0x00\n                /* \"#utility.yul\":9131:9219   */\n              mstore\n                /* \"#utility.yul\":9238:9242   */\n              0x12\n                /* \"#utility.yul\":9235:9236   */\n              0x04\n                /* \"#utility.yul\":9228:9243   */\n              mstore\n                /* \"#utility.yul\":9262:9266   */\n              0x24\n                /* \"#utility.yul\":9259:9260   */\n              0x00\n                /* \"#utility.yul\":9252:9267   */\n              revert\n                /* \"#utility.yul\":9279:9459   */\n            tag_148:\n                /* \"#utility.yul\":9327:9404   */\n              0x4e487b7100000000000000000000000000000000000000000000000000000000\n                /* \"#utility.yul\":9324:9325   */\n              0x00\n                /* \"#utility.yul\":9317:9405   */\n              mstore\n                /* \"#utility.yul\":9424:9428   */\n              0x11\n                /* \"#utility.yul\":9421:9422   */\n              0x04\n                /* \"#utility.yul\":9414:9429   */\n              mstore\n                /* \"#utility.yul\":9448:9452   */\n              0x24\n                /* \"#utility.yul\":9445:9446   */\n              0x00\n                /* \"#utility.yul\":9438:9453   */\n              revert\n                /* \"#utility.yul\":9465:9650   */\n            tag_71:\n                /* \"#utility.yul\":9505:9506   */\n              0x00\n                /* \"#utility.yul\":9522:9542   */\n              tag_256\n                /* \"#utility.yul\":9540:9541   */\n              dup3\n                /* \"#utility.yul\":9522:9542   */\n              tag_120\n              jump\t// in\n            tag_256:\n                /* \"#utility.yul\":9517:9542   */\n              swap2\n              pop\n                /* \"#utility.yul\":9556:9576   */\n              tag_257\n                /* \"#utility.yul\":9574:9575   */\n              dup4\n                /* \"#utility.yul\":9556:9576   */\n              tag_120\n              jump\t// in\n            tag_257:\n                /* \"#utility.yul\":9551:9576   */\n              swap3\n              pop\n                /* \"#utility.yul\":9595:9596   */\n              dup3\n                /* \"#utility.yul\":9585:9620   */\n              tag_258\n              jumpi\n                /* \"#utility.yul\":9600:9618   */\n              tag_259\n              tag_147\n              jump\t// in\n            tag_259:\n                /* \"#utility.yul\":9585:9620   */\n            tag_258:\n                /* \"#utility.yul\":9642:9643   */\n              dup3\n                /* \"#utility.yul\":9639:9640   */\n              dup3\n                /* \"#utility.yul\":9635:9644   */\n              div\n                /* \"#utility.yul\":9630:9644   */\n              swap1\n              pop\n                /* \"#utility.yul\":9465:9650   */\n              swap3\n              swap2\n              pop\n              pop\n              jump\t// out\n                /* \"#utility.yul\":9656:9836   */\n            tag_149:\n                /* \"#utility.yul\":9704:9781   */\n              0x4e487b7100000000000000000000000000000000000000000000000000000000\n                /* \"#utility.yul\":9701:9702   */\n              0x00\n                /* \"#utility.yul\":9694:9782   */\n              mstore\n                /* \"#utility.yul\":9801:9805   */\n              0x22\n                /* \"#utility.yul\":9798:9799   */\n              0x04\n                /* \"#utility.yul\":9791:9806   */\n              mstore\n                /* \"#utility.yul\":9825:9829   */\n              0x24\n                /* \"#utility.yul\":9822:9823   */\n              0x00\n                /* \"#utility.yul\":9815:9830   */\n              revert\n                /* \"#utility.yul\":9842:10162   */\n            tag_77:\n                /* \"#utility.yul\":9886:9892   */\n              0x00\n                /* \"#utility.yul\":9923:9924   */\n              0x02\n                /* \"#utility.yul\":9917:9921   */\n              dup3\n                /* \"#utility.yul\":9913:9925   */\n              div\n                /* \"#utility.yul\":9903:9925   */\n              swap1\n              pop\n                /* \"#utility.yul\":9970:9971   */\n              0x01\n                /* \"#utility.yul\":9964:9968   */\n              dup3\n                /* \"#utility.yul\":9960:9972   */\n              and\n                /* \"#utility.yul\":9991:10009   */\n              dup1\n                /* \"#utility.yul\":9981:10062   */\n              tag_262\n              jumpi\n                /* \"#utility.yul\":10047:10051   */\n              0x7f\n                /* \"#utility.yul\":10039:10045   */\n              dup3\n                /* \"#utility.yul\":10035:10052   */\n              and\n                /* \"#utility.yul\":10025:10052   */\n              swap2\n              pop\n                /* \"#utility.yul\":9981:10062   */\n            tag_262:\n                /* \"#utility.yul\":10109:10111   */\n              0x20\n                /* \"#utility.yul\":10101:10107   */\n              dup3\n                /* \"#utility.yul\":10098:10112   */\n              lt\n                /* \"#utility.yul\":10078:10096   */\n              dup2\n                /* \"#utility.yul\":10075:10113   */\n              eq\n                /* \"#utility.yul\":10072:10156   */\n              iszero\n              tag_263\n              jumpi\n                /* \"#utility.yul\":10128:10146   */\n              tag_264\n              tag_149\n              jump\t// in\n            tag_264:\n                /* \"#utility.yul\":10072:10156   */\n            tag_263:\n                /* \"#utility.yul\":9893:10162   */\n              pop\n                /* \"#utility.yul\":9842:10162   */\n              swap2\n              swap1\n              pop\n              jump\t// out\n                /* \"#utility.yul\":10168:10401   */\n            tag_97:\n                /* \"#utility.yul\":10207:10210   */\n              0x00\n                /* \"#utility.yul\":10230:10254   */\n              tag_266\n                /* \"#utility.yul\":10248:10253   */\n              dup3\n                /* \"#utility.yul\":10230:10254   */\n              tag_120\n              jump\t// in\n            tag_266:\n                /* \"#utility.yul\":10221:10254   */\n              swap2\n              pop\n                /* \"#utility.yul\":10276:10342   */\n              0xffffffffffffffffffffffffffffffffffffffffffffffffffffffffffffffff\n                /* \"#utility.yul\":10269:10274   */\n              dup3\n                /* \"#utility.yul\":10266:10343   */\n              eq\n                /* \"#utility.yul\":10263:10366   */\n              iszero\n              tag_267\n              jumpi\n                /* \"#utility.yul\":10346:10364   */\n              tag_268\n              tag_148\n              jump\t// in\n            tag_268:\n                /* \"#utility.yul\":10263:10366   */\n            tag_267:\n                /* \"#utility.yul\":10393:10394   */\n              0x01\n                /* \"#utility.yul\":10386:10391   */\n              dup3\n                /* \"#utility.yul\":10382:10395   */\n              add\n                /* \"#utility.yul\":10375:10395   */\n              swap1\n              pop\n                /* \"#utility.yul\":10168:10401   */\n              swap2\n              swap1\n              pop\n              jump\t// out\n\n            auxdata: 0xa2646970667358221220fd689aeb941b8f04878842534dc271b601406573993eb4bdff8ab4fccb6999ef64736f6c634300080a0033\n        }\n    }\n\n    auxdata: 0xa264697066735822122004bac7199057dcb1b459ec42dbdaca6f90093c259fdf5b7074edee056aba2ee264736f6c634300080a0033\n}\n","bytecode":{"linkReferences":{},"object":"608060405234801561001057600080fd5b50611c3d806100206000396000f3fe60806040523480156200001157600080fd5b5060043610620000465760003560e01c8063339d50a5146200004b5780634acb9d4f1462000081578063fad4dee314620000a3575b600080fd5b6200006960048036038101906200006391906200029c565b620000c3565b60405162000078919062000313565b60405180910390f35b6200008b62000103565b6040516200009a9190620003fe565b60405180910390f35b620000c16004803603810190620000bb919062000584565b62000193565b005b60008181548110620000d457600080fd5b906000526020600020016000915054906101000a900473ffffffffffffffffffffffffffffffffffffffff1681565b606060008054806020026020016040519081016040528092919081815260200182805480156200018957602002820191906000526020600020905b8160009054906101000a900473ffffffffffffffffffffffffffffffffffffffff1673ffffffffffffffffffffffffffffffffffffffff16815260200190600101908083116200013e575b5050505050905090565b600083338484604051620001a7906200023f565b620001b69493929190620006c2565b604051809103906000f080158015620001d3573d6000803e3d6000fd5b5090506000819080600181540180825580915050600190039060005260206000200160009091909190916101000a81548173ffffffffffffffffffffffffffffffffffffffff021916908373ffffffffffffffffffffffffffffffffffffffff16021790555050505050565b6114ea806200071e83390190565b6000604051905090565b600080fd5b600080fd5b6000819050919050565b620002768162000261565b81146200028257600080fd5b50565b60008135905062000296816200026b565b92915050565b600060208284031215620002b557620002b462000257565b5b6000620002c58482850162000285565b91505092915050565b600073ffffffffffffffffffffffffffffffffffffffff82169050919050565b6000620002fb82620002ce565b9050919050565b6200030d81620002ee565b82525050565b60006020820190506200032a600083018462000302565b92915050565b600081519050919050565b600082825260208201905092915050565b6000819050602082019050919050565b6200036781620002ee565b82525050565b60006200037b83836200035c565b60208301905092915050565b6000602082019050919050565b6000620003a18262000330565b620003ad81856200033b565b9350620003ba836200034c565b8060005b83811015620003f1578151620003d588826200036d565b9750620003e28362000387565b925050600181019050620003be565b5085935050505092915050565b600060208201905081810360008301526200041a818462000394565b905092915050565b600080fd5b600080fd5b6000601f19601f8301169050919050565b7f4e487b7100000000000000000000000000000000000000000000000000000000600052604160045260246000fd5b62000477826200042c565b810181811067ffffffffffffffff821117156200049957620004986200043d565b5b80604052505050565b6000620004ae6200024d565b9050620004bc82826200046c565b919050565b600067ffffffffffffffff821115620004df57620004de6200043d565b5b620004ea826200042c565b9050602081019050919050565b82818337600083830152505050565b60006200051d6200051784620004c1565b620004a2565b9050828152602081018484840111156200053c576200053b62000427565b5b62000549848285620004f7565b509392505050565b600082601f83011262000569576200056862000422565b5b81356200057b84826020860162000506565b91505092915050565b600080600060608486031215620005a0576200059f62000257565b5b6000620005b08682870162000285565b935050602084013567ffffffffffffffff811115620005d457620005d36200025c565b5b620005e28682870162000551565b925050604084013567ffffffffffffffff8111156200060657620006056200025c565b5b620006148682870162000551565b9150509250925092565b620006298162000261565b82525050565b600081519050919050565b600082825260208201905092915050565b60005b838110156200066b5780820151818401526020810190506200064e565b838111156200067b576000848401525b50505050565b60006200068e826200062f565b6200069a81856200063a565b9350620006ac8185602086016200064b565b620006b7816200042c565b840191505092915050565b6000608082019050620006d960008301876200061e565b620006e8602083018662000302565b8181036040830152620006fc818562000681565b9050818103606083015262000712818462000681565b90509594505050505056fe6080604052600060055560006006553480156200001b57600080fd5b50604051620014ea380380620014ea8339818101604052810190620000419190620003b1565b826000806101000a81548173ffffffffffffffffffffffffffffffffffffffff021916908373ffffffffffffffffffffffffffffffffffffffff160217905550836001819055508160029080519060200190620000a0929190620000c4565b508060039080519060200190620000b9929190620000c4565b5050505050620004c6565b828054620000d29062000490565b90600052602060002090601f016020900481019282620000f6576000855562000142565b82601f106200011157805160ff191683800117855562000142565b8280016001018555821562000142579182015b828111156200014157825182559160200191906001019062000124565b5b50905062000151919062000155565b5090565b5b808211156200017057600081600090555060010162000156565b5090565b6000604051905090565b600080fd5b600080fd5b6000819050919050565b6200019d8162000188565b8114620001a957600080fd5b50565b600081519050620001bd8162000192565b92915050565b600073ffffffffffffffffffffffffffffffffffffffff82169050919050565b6000620001f082620001c3565b9050919050565b6200020281620001e3565b81146200020e57600080fd5b50565b6000815190506200022281620001f7565b92915050565b600080fd5b600080fd5b6000601f19601f8301169050919050565b7f4e487b7100000000000000000000000000000000000000000000000000000000600052604160045260246000fd5b6200027d8262000232565b810181811067ffffffffffffffff821117156200029f576200029e62000243565b5b80604052505050565b6000620002b462000174565b9050620002c2828262000272565b919050565b600067ffffffffffffffff821115620002e557620002e462000243565b5b620002f08262000232565b9050602081019050919050565b60005b838110156200031d57808201518184015260208101905062000300565b838111156200032d576000848401525b50505050565b60006200034a6200034484620002c7565b620002a8565b9050828152602081018484840111156200036957620003686200022d565b5b62000376848285620002fd565b509392505050565b600082601f83011262000396576200039562000228565b5b8151620003a884826020860162000333565b91505092915050565b60008060008060808587031215620003ce57620003cd6200017e565b5b6000620003de87828801620001ac565b9450506020620003f18782880162000211565b935050604085015167ffffffffffffffff81111562000415576200041462000183565b5b62000423878288016200037e565b925050606085015167ffffffffffffffff81111562000447576200044662000183565b5b62000455878288016200037e565b91505092959194509250565b7f4e487b7100000000000000000000000000000000000000000000000000000000600052602260045260246000fd5b60006002820490506001821680620004a957607f821691505b60208210811415620004c057620004bf62000461565b5b50919050565b61101480620004d66000396000f3fe60806040526004361061009c5760003560e01c8063481c6a7511610064578063481c6a75146101a457806382fde093146101cf5780638a9cfd55146101fa578063937e09b114610223578063d7bb99ba1461024e578063d7d1bbdb146102585761009c565b806303441006146100a15780630a144391146100ca5780633410452a14610107578063353161ef146101325780634051ddac14610173575b600080fd5b3480156100ad57600080fd5b506100c860048036038101906100c39190610a2e565b610281565b005b3480156100d657600080fd5b506100f160048036038101906100ec9190610ab9565b6103ba565b6040516100fe9190610b01565b60405180910390f35b34801561011357600080fd5b5061011c6103da565b6040516101299190610b2b565b60405180910390f35b34801561013e57600080fd5b5061015960048036038101906101549190610a2e565b6103e4565b60405161016a959493929190610c00565b60405180910390f35b34801561017f57600080fd5b506101886104cf565b60405161019b9796959493929190610c69565b60405180910390f35b3480156101b057600080fd5b506101b9610638565b6040516101c69190610ce6565b60405180910390f35b3480156101db57600080fd5b506101e461065c565b6040516101f19190610b2b565b60405180910390f35b34801561020657600080fd5b50610221600480360381019061021c9190610e36565b610662565b005b34801561022f57600080fd5b5061023861077d565b6040516102459190610b2b565b60405180910390f35b610256610783565b005b34801561026457600080fd5b5061027f600480360381019061027a9190610a2e565b610803565b005b60008054906101000a900473ffffffffffffffffffffffffffffffffffffffff1673ffffffffffffffffffffffffffffffffffffffff163373ffffffffffffffffffffffffffffffffffffffff16146102d957600080fd5b60006007600083815260200190815260200160002090508060020160149054906101000a900460ff161561030c57600080fd5b600260055461031b9190610f03565b81600301541161032a57600080fd5b8060020160009054906101000a900473ffffffffffffffffffffffffffffffffffffffff1673ffffffffffffffffffffffffffffffffffffffff166108fc82600101549081150290604051600060405180830381858888f19350505050158015610398573d6000803e3d6000fd5b5060018160020160146101000a81548160ff0219169083151502179055505050565b60046020528060005260406000206000915054906101000a900460ff1681565b6000600654905090565b600760205280600052604060002060009150905080600001805461040790610f63565b80601f016020809104026020016040519081016040528092919081815260200182805461043390610f63565b80156104805780601f1061045557610100808354040283529160200191610480565b820191906000526020600020905b81548152906001019060200180831161046357829003601f168201915b5050505050908060010154908060020160009054906101000a900473ffffffffffffffffffffffffffffffffffffffff16908060020160149054906101000a900460ff16908060030154905085565b60008060008060006060806001544760065460055460008054906101000a900473ffffffffffffffffffffffffffffffffffffffff166002600381805461051590610f63565b80601f016020809104026020016040519081016040528092919081815260200182805461054190610f63565b801561058e5780601f106105635761010080835404028352916020019161058e565b820191906000526020600020905b81548152906001019060200180831161057157829003601f168201915b505050505091508080546105a190610f63565b80601f01602080910402602001604051908101604052809291908181526020018280546105cd90610f63565b801561061a5780601f106105ef5761010080835404028352916020019161061a565b820191906000526020600020905b8154815290600101906020018083116105fd57829003601f168201915b50505050509050965096509650965096509650965090919293949596565b60008054906101000a900473ffffffffffffffffffffffffffffffffffffffff1681565b60055481565b60008054906101000a900473ffffffffffffffffffffffffffffffffffffffff1673ffffffffffffffffffffffffffffffffffffffff163373ffffffffffffffffffffffffffffffffffffffff16146106ba57600080fd5b60006007600060065481526020019081526020016000209050600660008154809291906106e690610f95565b919050555083816000019080519060200190610703929190610941565b50828160010181905550818160020160006101000a81548173ffffffffffffffffffffffffffffffffffffffff021916908373ffffffffffffffffffffffffffffffffffffffff16021790555060008160020160146101000a81548160ff0219169083151502179055506000816003018190555050505050565b60015481565b600154341161079157600080fd5b6001600460003373ffffffffffffffffffffffffffffffffffffffff1673ffffffffffffffffffffffffffffffffffffffff16815260200190815260200160002060006101000a81548160ff021916908315150217905550600560008154809291906107fc90610f95565b9190505550565b6000600760008381526020019081526020016000209050600460003373ffffffffffffffffffffffffffffffffffffffff1673ffffffffffffffffffffffffffffffffffffffff16815260200190815260200160002060009054906101000a900460ff1661087057600080fd5b8060040160003373ffffffffffffffffffffffffffffffffffffffff1673ffffffffffffffffffffffffffffffffffffffff16815260200190815260200160002060009054906101000a900460ff16156108c957600080fd5b8060030160008154809291906108de90610f95565b919050555060018160040160003373ffffffffffffffffffffffffffffffffffffffff1673ffffffffffffffffffffffffffffffffffffffff16815260200190815260200160002060006101000a81548160ff0219169083151502179055505050565b82805461094d90610f63565b90600052602060002090601f01602090048101928261096f57600085556109b6565b82601f1061098857805160ff19168380011785556109b6565b828001600101855582156109b6579182015b828111156109b557825182559160200191906001019061099a565b5b5090506109c391906109c7565b5090565b5b808211156109e05760008160009055506001016109c8565b5090565b6000604051905090565b600080fd5b600080fd5b6000819050919050565b610a0b816109f8565b8114610a1657600080fd5b50565b600081359050610a2881610a02565b92915050565b600060208284031215610a4457610a436109ee565b5b6000610a5284828501610a19565b91505092915050565b600073ffffffffffffffffffffffffffffffffffffffff82169050919050565b6000610a8682610a5b565b9050919050565b610a9681610a7b565b8114610aa157600080fd5b50565b600081359050610ab381610a8d565b92915050565b600060208284031215610acf57610ace6109ee565b5b6000610add84828501610aa4565b91505092915050565b60008115159050919050565b610afb81610ae6565b82525050565b6000602082019050610b166000830184610af2565b92915050565b610b25816109f8565b82525050565b6000602082019050610b406000830184610b1c565b92915050565b600081519050919050565b600082825260208201905092915050565b60005b83811015610b80578082015181840152602081019050610b65565b83811115610b8f576000848401525b50505050565b6000601f19601f8301169050919050565b6000610bb182610b46565b610bbb8185610b51565b9350610bcb818560208601610b62565b610bd481610b95565b840191505092915050565b6000610bea82610a5b565b9050919050565b610bfa81610bdf565b82525050565b600060a0820190508181036000830152610c1a8188610ba6565b9050610c296020830187610b1c565b610c366040830186610bf1565b610c436060830185610af2565b610c506080830184610b1c565b9695505050505050565b610c6381610a7b565b82525050565b600060e082019050610c7e600083018a610b1c565b610c8b6020830189610b1c565b610c986040830188610b1c565b610ca56060830187610b1c565b610cb26080830186610c5a565b81810360a0830152610cc48185610ba6565b905081810360c0830152610cd88184610ba6565b905098975050505050505050565b6000602082019050610cfb6000830184610c5a565b92915050565b600080fd5b600080fd5b7f4e487b7100000000000000000000000000000000000000000000000000000000600052604160045260246000fd5b610d4382610b95565b810181811067ffffffffffffffff82111715610d6257610d61610d0b565b5b80604052505050565b6000610d756109e4565b9050610d818282610d3a565b919050565b600067ffffffffffffffff821115610da157610da0610d0b565b5b610daa82610b95565b9050602081019050919050565b82818337600083830152505050565b6000610dd9610dd484610d86565b610d6b565b905082815260208101848484011115610df557610df4610d06565b5b610e00848285610db7565b509392505050565b600082601f830112610e1d57610e1c610d01565b5b8135610e2d848260208601610dc6565b91505092915050565b600080600060608486031215610e4f57610e4e6109ee565b5b600084013567ffffffffffffffff811115610e6d57610e6c6109f3565b5b610e7986828701610e08565b9350506020610e8a86828701610a19565b9250506040610e9b86828701610aa4565b9150509250925092565b7f4e487b7100000000000000000000000000000000000000000000000000000000600052601260045260246000fd5b7f4e487b7100000000000000000000000000000000000000000000000000000000600052601160045260246000fd5b6000610f0e826109f8565b9150610f19836109f8565b925082610f2957610f28610ea5565b5b828204905092915050565b7f4e487b7100000000000000000000000000000000000000000000000000000000600052602260045260246000fd5b60006002820490506001821680610f7b57607f821691505b60208210811415610f8f57610f8e610f34565b5b50919050565b6000610fa0826109f8565b91507fffffffffffffffffffffffffffffffffffffffffffffffffffffffffffffffff821415610fd357610fd2610ed4565b5b60018201905091905056fea2646970667358221220fd689aeb941b8f04878842534dc271b601406573993eb4bdff8ab4fccb6999ef64736f6c634300080a0033a264697066735822122004bac7199057dcb1b459ec42dbdaca6f90093c259fdf5b7074edee056aba2ee264736f6c634300080a0033","opcodes":"PUSH1 0x80 PUSH1 0x40 MSTORE CALLVALUE DUP1 ISZERO PUSH2 0x10 JUMPI PUSH1 0x0 DUP1 REVERT JUMPDEST POP PUSH2 0x1C3D DUP1 PUSH2 0x20 PUSH1 0x0 CODECOPY PUSH1 0x0 RETURN INVALID PUSH1 0x80 PUSH1 0x40 MSTORE CALLVALUE DUP1 ISZERO PUSH3 0x11 JUMPI PUSH1 0x0 DUP1 REVERT JUMPDEST POP PUSH1 0x4 CALLDATASIZE LT PUSH3 0x46 JUMPI PUSH1 0x0 CALLDATALOAD PUSH1 0xE0 SHR DUP1 PUSH4 0x339D50A5 EQ PUSH3 0x4B JUMPI DUP1 PUSH4 0x4ACB9D4F EQ PUSH3 0x81 JUMPI DUP1 PUSH4 0xFAD4DEE3 EQ PUSH3 0xA3 JUMPI JUMPDEST PUSH1 0x0 DUP1 REVERT JUMPDEST PUSH3 0x69 PUSH1 0x4 DUP1 CALLDATASIZE SUB DUP2 ADD SWAP1 PUSH3 0x63 SWAP2 SWAP1 PUSH3 0x29C JUMP JUMPDEST PUSH3 0xC3 JUMP JUMPDEST PUSH1 0x40 MLOAD PUSH3 0x78 SWAP2 SWAP1 PUSH3 0x313 JUMP JUMPDEST PUSH1 0x40 MLOAD DUP1 SWAP2 SUB SWAP1 RETURN JUMPDEST PUSH3 0x8B PUSH3 0x103 JUMP JUMPDEST PUSH1 0x40 MLOAD PUSH3 0x9A SWAP2 SWAP1 PUSH3 0x3FE JUMP JUMPDEST PUSH1 0x40 MLOAD DUP1 SWAP2 SUB SWAP1 RETURN JUMPDEST PUSH3 0xC1 PUSH1 0x4 DUP1 CALLDATASIZE SUB DUP2 ADD SWAP1 PUSH3 0xBB SWAP2 SWAP1 PUSH3 0x584 JUMP JUMPDEST PUSH3 0x193 JUMP JUMPDEST STOP JUMPDEST PUSH1 0x0 DUP2 DUP2 SLOAD DUP2 LT PUSH3 0xD4 JUMPI PUSH1 0x0 DUP1 REVERT JUMPDEST SWAP1 PUSH1 0x0 MSTORE PUSH1 0x20 PUSH1 0x0 KECCAK256 ADD PUSH1 0x0 SWAP2 POP SLOAD SWAP1 PUSH2 0x100 EXP SWAP1 DIV PUSH20 0xFFFFFFFFFFFFFFFFFFFFFFFFFFFFFFFFFFFFFFFF AND DUP2 JUMP JUMPDEST PUSH1 0x60 PUSH1 0x0 DUP1 SLOAD DUP1 PUSH1 0x20 MUL PUSH1 0x20 ADD PUSH1 0x40 MLOAD SWAP1 DUP2 ADD PUSH1 0x40 MSTORE DUP1 SWAP3 SWAP2 SWAP1 DUP2 DUP2 MSTORE PUSH1 0x20 ADD DUP3 DUP1 SLOAD DUP1 ISZERO PUSH3 0x189 JUMPI PUSH1 0x20 MUL DUP3 ADD SWAP2 SWAP1 PUSH1 0x0 MSTORE PUSH1 0x20 PUSH1 0x0 KECCAK256 SWAP1 JUMPDEST DUP2 PUSH1 0x0 SWAP1 SLOAD SWAP1 PUSH2 0x100 EXP SWAP1 DIV PUSH20 0xFFFFFFFFFFFFFFFFFFFFFFFFFFFFFFFFFFFFFFFF AND PUSH20 0xFFFFFFFFFFFFFFFFFFFFFFFFFFFFFFFFFFFFFFFF AND DUP2 MSTORE PUSH1 0x20 ADD SWAP1 PUSH1 0x1 ADD SWAP1 DUP1 DUP4 GT PUSH3 0x13E JUMPI JUMPDEST POP POP POP POP POP SWAP1 POP SWAP1 JUMP JUMPDEST PUSH1 0x0 DUP4 CALLER DUP5 DUP5 PUSH1 0x40 MLOAD PUSH3 0x1A7 SWAP1 PUSH3 0x23F JUMP JUMPDEST PUSH3 0x1B6 SWAP5 SWAP4 SWAP3 SWAP2 SWAP1 PUSH3 0x6C2 JUMP JUMPDEST PUSH1 0x40 MLOAD DUP1 SWAP2 SUB SWAP1 PUSH1 0x0 CREATE DUP1 ISZERO DUP1 ISZERO PUSH3 0x1D3 JUMPI RETURNDATASIZE PUSH1 0x0 DUP1 RETURNDATACOPY RETURNDATASIZE PUSH1 0x0 REVERT JUMPDEST POP SWAP1 POP PUSH1 0x0 DUP2 SWAP1 DUP1 PUSH1 0x1 DUP2 SLOAD ADD DUP1 DUP3 SSTORE DUP1 SWAP2 POP POP PUSH1 0x1 SWAP1 SUB SWAP1 PUSH1 0x0 MSTORE PUSH1 0x20 PUSH1 0x0 KECCAK256 ADD PUSH1 0x0 SWAP1 SWAP2 SWAP1 SWAP2 SWAP1 SWAP2 PUSH2 0x100 EXP DUP2 SLOAD DUP2 PUSH20 0xFFFFFFFFFFFFFFFFFFFFFFFFFFFFFFFFFFFFFFFF MUL NOT AND SWAP1 DUP4 PUSH20 0xFFFFFFFFFFFFFFFFFFFFFFFFFFFFFFFFFFFFFFFF AND MUL OR SWAP1 SSTORE POP POP POP POP POP JUMP JUMPDEST PUSH2 0x14EA DUP1 PUSH3 0x71E DUP4 CODECOPY ADD SWAP1 JUMP JUMPDEST PUSH1 0x0 PUSH1 0x40 MLOAD SWAP1 POP SWAP1 JUMP JUMPDEST PUSH1 0x0 DUP1 REVERT JUMPDEST PUSH1 0x0 DUP1 REVERT JUMPDEST PUSH1 0x0 DUP2 SWAP1 POP SWAP2 SWAP1 POP JUMP JUMPDEST PUSH3 0x276 DUP2 PUSH3 0x261 JUMP JUMPDEST DUP2 EQ PUSH3 0x282 JUMPI PUSH1 0x0 DUP1 REVERT JUMPDEST POP JUMP JUMPDEST PUSH1 0x0 DUP2 CALLDATALOAD SWAP1 POP PUSH3 0x296 DUP2 PUSH3 0x26B JUMP JUMPDEST SWAP3 SWAP2 POP POP JUMP JUMPDEST PUSH1 0x0 PUSH1 0x20 DUP3 DUP5 SUB SLT ISZERO PUSH3 0x2B5 JUMPI PUSH3 0x2B4 PUSH3 0x257 JUMP JUMPDEST JUMPDEST PUSH1 0x0 PUSH3 0x2C5 DUP5 DUP3 DUP6 ADD PUSH3 0x285 JUMP JUMPDEST SWAP2 POP POP SWAP3 SWAP2 POP POP JUMP JUMPDEST PUSH1 0x0 PUSH20 0xFFFFFFFFFFFFFFFFFFFFFFFFFFFFFFFFFFFFFFFF DUP3 AND SWAP1 POP SWAP2 SWAP1 POP JUMP JUMPDEST PUSH1 0x0 PUSH3 0x2FB DUP3 PUSH3 0x2CE JUMP JUMPDEST SWAP1 POP SWAP2 SWAP1 POP JUMP JUMPDEST PUSH3 0x30D DUP2 PUSH3 0x2EE JUMP JUMPDEST DUP3 MSTORE POP POP JUMP JUMPDEST PUSH1 0x0 PUSH1 0x20 DUP3 ADD SWAP1 POP PUSH3 0x32A PUSH1 0x0 DUP4 ADD DUP5 PUSH3 0x302 JUMP JUMPDEST SWAP3 SWAP2 POP POP JUMP JUMPDEST PUSH1 0x0 DUP2 MLOAD SWAP1 POP SWAP2 SWAP1 POP JUMP JUMPDEST PUSH1 0x0 DUP3 DUP3 MSTORE PUSH1 0x20 DUP3 ADD SWAP1 POP SWAP3 SWAP2 POP POP JUMP JUMPDEST PUSH1 0x0 DUP2 SWAP1 POP PUSH1 0x20 DUP3 ADD SWAP1 POP SWAP2 SWAP1 POP JUMP JUMPDEST PUSH3 0x367 DUP2 PUSH3 0x2EE JUMP JUMPDEST DUP3 MSTORE POP POP JUMP JUMPDEST PUSH1 0x0 PUSH3 0x37B DUP4 DUP4 PUSH3 0x35C JUMP JUMPDEST PUSH1 0x20 DUP4 ADD SWAP1 POP SWAP3 SWAP2 POP POP JUMP JUMPDEST PUSH1 0x0 PUSH1 0x20 DUP3 ADD SWAP1 POP SWAP2 SWAP1 POP JUMP JUMPDEST PUSH1 0x0 PUSH3 0x3A1 DUP3 PUSH3 0x330 JUMP JUMPDEST PUSH3 0x3AD DUP2 DUP6 PUSH3 0x33B JUMP JUMPDEST SWAP4 POP PUSH3 0x3BA DUP4 PUSH3 0x34C JUMP JUMPDEST DUP1 PUSH1 0x0 JUMPDEST DUP4 DUP2 LT ISZERO PUSH3 0x3F1 JUMPI DUP2 MLOAD PUSH3 0x3D5 DUP9 DUP3 PUSH3 0x36D JUMP JUMPDEST SWAP8 POP PUSH3 0x3E2 DUP4 PUSH3 0x387 JUMP JUMPDEST SWAP3 POP POP PUSH1 0x1 DUP2 ADD SWAP1 POP PUSH3 0x3BE JUMP JUMPDEST POP DUP6 SWAP4 POP POP POP POP SWAP3 SWAP2 POP POP JUMP JUMPDEST PUSH1 0x0 PUSH1 0x20 DUP3 ADD SWAP1 POP DUP2 DUP2 SUB PUSH1 0x0 DUP4 ADD MSTORE PUSH3 0x41A DUP2 DUP5 PUSH3 0x394 JUMP JUMPDEST SWAP1 POP SWAP3 SWAP2 POP POP JUMP JUMPDEST PUSH1 0x0 DUP1 REVERT JUMPDEST PUSH1 0x0 DUP1 REVERT JUMPDEST PUSH1 0x0 PUSH1 0x1F NOT PUSH1 0x1F DUP4 ADD AND SWAP1 POP SWAP2 SWAP1 POP JUMP JUMPDEST PUSH32 0x4E487B7100000000000000000000000000000000000000000000000000000000 PUSH1 0x0 MSTORE PUSH1 0x41 PUSH1 0x4 MSTORE PUSH1 0x24 PUSH1 0x0 REVERT JUMPDEST PUSH3 0x477 DUP3 PUSH3 0x42C JUMP JUMPDEST DUP2 ADD DUP2 DUP2 LT PUSH8 0xFFFFFFFFFFFFFFFF DUP3 GT OR ISZERO PUSH3 0x499 JUMPI PUSH3 0x498 PUSH3 0x43D JUMP JUMPDEST JUMPDEST DUP1 PUSH1 0x40 MSTORE POP POP POP JUMP JUMPDEST PUSH1 0x0 PUSH3 0x4AE PUSH3 0x24D JUMP JUMPDEST SWAP1 POP PUSH3 0x4BC DUP3 DUP3 PUSH3 0x46C JUMP JUMPDEST SWAP2 SWAP1 POP JUMP JUMPDEST PUSH1 0x0 PUSH8 0xFFFFFFFFFFFFFFFF DUP3 GT ISZERO PUSH3 0x4DF JUMPI PUSH3 0x4DE PUSH3 0x43D JUMP JUMPDEST JUMPDEST PUSH3 0x4EA DUP3 PUSH3 0x42C JUMP JUMPDEST SWAP1 POP PUSH1 0x20 DUP2 ADD SWAP1 POP SWAP2 SWAP1 POP JUMP JUMPDEST DUP3 DUP2 DUP4 CALLDATACOPY PUSH1 0x0 DUP4 DUP4 ADD MSTORE POP POP POP JUMP JUMPDEST PUSH1 0x0 PUSH3 0x51D PUSH3 0x517 DUP5 PUSH3 0x4C1 JUMP JUMPDEST PUSH3 0x4A2 JUMP JUMPDEST SWAP1 POP DUP3 DUP2 MSTORE PUSH1 0x20 DUP2 ADD DUP5 DUP5 DUP5 ADD GT ISZERO PUSH3 0x53C JUMPI PUSH3 0x53B PUSH3 0x427 JUMP JUMPDEST JUMPDEST PUSH3 0x549 DUP5 DUP3 DUP6 PUSH3 0x4F7 JUMP JUMPDEST POP SWAP4 SWAP3 POP POP POP JUMP JUMPDEST PUSH1 0x0 DUP3 PUSH1 0x1F DUP4 ADD SLT PUSH3 0x569 JUMPI PUSH3 0x568 PUSH3 0x422 JUMP JUMPDEST JUMPDEST DUP2 CALLDATALOAD PUSH3 0x57B DUP5 DUP3 PUSH1 0x20 DUP7 ADD PUSH3 0x506 JUMP JUMPDEST SWAP2 POP POP SWAP3 SWAP2 POP POP JUMP JUMPDEST PUSH1 0x0 DUP1 PUSH1 0x0 PUSH1 0x60 DUP5 DUP7 SUB SLT ISZERO PUSH3 0x5A0 JUMPI PUSH3 0x59F PUSH3 0x257 JUMP JUMPDEST JUMPDEST PUSH1 0x0 PUSH3 0x5B0 DUP7 DUP3 DUP8 ADD PUSH3 0x285 JUMP JUMPDEST SWAP4 POP POP PUSH1 0x20 DUP5 ADD CALLDATALOAD PUSH8 0xFFFFFFFFFFFFFFFF DUP2 GT ISZERO PUSH3 0x5D4 JUMPI PUSH3 0x5D3 PUSH3 0x25C JUMP JUMPDEST JUMPDEST PUSH3 0x5E2 DUP7 DUP3 DUP8 ADD PUSH3 0x551 JUMP JUMPDEST SWAP3 POP POP PUSH1 0x40 DUP5 ADD CALLDATALOAD PUSH8 0xFFFFFFFFFFFFFFFF DUP2 GT ISZERO PUSH3 0x606 JUMPI PUSH3 0x605 PUSH3 0x25C JUMP JUMPDEST JUMPDEST PUSH3 0x614 DUP7 DUP3 DUP8 ADD PUSH3 0x551 JUMP JUMPDEST SWAP2 POP POP SWAP3 POP SWAP3 POP SWAP3 JUMP JUMPDEST PUSH3 0x629 DUP2 PUSH3 0x261 JUMP JUMPDEST DUP3 MSTORE POP POP JUMP JUMPDEST PUSH1 0x0 DUP2 MLOAD SWAP1 POP SWAP2 SWAP1 POP JUMP JUMPDEST PUSH1 0x0 DUP3 DUP3 MSTORE PUSH1 0x20 DUP3 ADD SWAP1 POP SWAP3 SWAP2 POP POP JUMP JUMPDEST PUSH1 0x0 JUMPDEST DUP4 DUP2 LT ISZERO PUSH3 0x66B JUMPI DUP1 DUP3 ADD MLOAD DUP2 DUP5 ADD MSTORE PUSH1 0x20 DUP2 ADD SWAP1 POP PUSH3 0x64E JUMP JUMPDEST DUP4 DUP2 GT ISZERO PUSH3 0x67B JUMPI PUSH1 0x0 DUP5 DUP5 ADD MSTORE JUMPDEST POP POP POP POP JUMP JUMPDEST PUSH1 0x0 PUSH3 0x68E DUP3 PUSH3 0x62F JUMP JUMPDEST PUSH3 0x69A DUP2 DUP6 PUSH3 0x63A JUMP JUMPDEST SWAP4 POP PUSH3 0x6AC DUP2 DUP6 PUSH1 0x20 DUP7 ADD PUSH3 0x64B JUMP JUMPDEST PUSH3 0x6B7 DUP2 PUSH3 0x42C JUMP JUMPDEST DUP5 ADD SWAP2 POP POP SWAP3 SWAP2 POP POP JUMP JUMPDEST PUSH1 0x0 PUSH1 0x80 DUP3 ADD SWAP1 POP PUSH3 0x6D9 PUSH1 0x0 DUP4 ADD DUP8 PUSH3 0x61E JUMP JUMPDEST PUSH3 0x6E8 PUSH1 0x20 DUP4 ADD DUP7 PUSH3 0x302 JUMP JUMPDEST DUP2 DUP2 SUB PUSH1 0x40 DUP4 ADD MSTORE PUSH3 0x6FC DUP2 DUP6 PUSH3 0x681 JUMP JUMPDEST SWAP1 POP DUP2 DUP2 SUB PUSH1 0x60 DUP4 ADD MSTORE PUSH3 0x712 DUP2 DUP5 PUSH3 0x681 JUMP JUMPDEST SWAP1 POP SWAP6 SWAP5 POP POP POP POP POP JUMP INVALID PUSH1 0x80 PUSH1 0x40 MSTORE PUSH1 0x0 PUSH1 0x5 SSTORE PUSH1 0x0 PUSH1 0x6 SSTORE CALLVALUE DUP1 ISZERO PUSH3 0x1B JUMPI PUSH1 0x0 DUP1 REVERT JUMPDEST POP PUSH1 0x40 MLOAD PUSH3 0x14EA CODESIZE SUB DUP1 PUSH3 0x14EA DUP4 CODECOPY DUP2 DUP2 ADD PUSH1 0x40 MSTORE DUP2 ADD SWAP1 PUSH3 0x41 SWAP2 SWAP1 PUSH3 0x3B1 JUMP JUMPDEST DUP3 PUSH1 0x0 DUP1 PUSH2 0x100 EXP DUP2 SLOAD DUP2 PUSH20 0xFFFFFFFFFFFFFFFFFFFFFFFFFFFFFFFFFFFFFFFF MUL NOT AND SWAP1 DUP4 PUSH20 0xFFFFFFFFFFFFFFFFFFFFFFFFFFFFFFFFFFFFFFFF AND MUL OR SWAP1 SSTORE POP DUP4 PUSH1 0x1 DUP2 SWAP1 SSTORE POP DUP2 PUSH1 0x2 SWAP1 DUP1 MLOAD SWAP1 PUSH1 0x20 ADD SWAP1 PUSH3 0xA0 SWAP3 SWAP2 SWAP1 PUSH3 0xC4 JUMP JUMPDEST POP DUP1 PUSH1 0x3 SWAP1 DUP1 MLOAD SWAP1 PUSH1 0x20 ADD SWAP1 PUSH3 0xB9 SWAP3 SWAP2 SWAP1 PUSH3 0xC4 JUMP JUMPDEST POP POP POP POP POP PUSH3 0x4C6 JUMP JUMPDEST DUP3 DUP1 SLOAD PUSH3 0xD2 SWAP1 PUSH3 0x490 JUMP JUMPDEST SWAP1 PUSH1 0x0 MSTORE PUSH1 0x20 PUSH1 0x0 KECCAK256 SWAP1 PUSH1 0x1F ADD PUSH1 0x20 SWAP1 DIV DUP2 ADD SWAP3 DUP3 PUSH3 0xF6 JUMPI PUSH1 0x0 DUP6 SSTORE PUSH3 0x142 JUMP JUMPDEST DUP3 PUSH1 0x1F LT PUSH3 0x111 JUMPI DUP1 MLOAD PUSH1 0xFF NOT AND DUP4 DUP1 ADD OR DUP6 SSTORE PUSH3 0x142 JUMP JUMPDEST DUP3 DUP1 ADD PUSH1 0x1 ADD DUP6 SSTORE DUP3 ISZERO PUSH3 0x142 JUMPI SWAP2 DUP3 ADD JUMPDEST DUP3 DUP2 GT ISZERO PUSH3 0x141 JUMPI DUP3 MLOAD DUP3 SSTORE SWAP2 PUSH1 0x20 ADD SWAP2 SWAP1 PUSH1 0x1 ADD SWAP1 PUSH3 0x124 JUMP JUMPDEST JUMPDEST POP SWAP1 POP PUSH3 0x151 SWAP2 SWAP1 PUSH3 0x155 JUMP JUMPDEST POP SWAP1 JUMP JUMPDEST JUMPDEST DUP1 DUP3 GT ISZERO PUSH3 0x170 JUMPI PUSH1 0x0 DUP2 PUSH1 0x0 SWAP1 SSTORE POP PUSH1 0x1 ADD PUSH3 0x156 JUMP JUMPDEST POP SWAP1 JUMP JUMPDEST PUSH1 0x0 PUSH1 0x40 MLOAD SWAP1 POP SWAP1 JUMP JUMPDEST PUSH1 0x0 DUP1 REVERT JUMPDEST PUSH1 0x0 DUP1 REVERT JUMPDEST PUSH1 0x0 DUP2 SWAP1 POP SWAP2 SWAP1 POP JUMP JUMPDEST PUSH3 0x19D DUP2 PUSH3 0x188 JUMP JUMPDEST DUP2 EQ PUSH3 0x1A9 JUMPI PUSH1 0x0 DUP1 REVERT JUMPDEST POP JUMP JUMPDEST PUSH1 0x0 DUP2 MLOAD SWAP1 POP PUSH3 0x1BD DUP2 PUSH3 0x192 JUMP JUMPDEST SWAP3 SWAP2 POP POP JUMP JUMPDEST PUSH1 0x0 PUSH20 0xFFFFFFFFFFFFFFFFFFFFFFFFFFFFFFFFFFFFFFFF DUP3 AND SWAP1 POP SWAP2 SWAP1 POP JUMP JUMPDEST PUSH1 0x0 PUSH3 0x1F0 DUP3 PUSH3 0x1C3 JUMP JUMPDEST SWAP1 POP SWAP2 SWAP1 POP JUMP JUMPDEST PUSH3 0x202 DUP2 PUSH3 0x1E3 JUMP JUMPDEST DUP2 EQ PUSH3 0x20E JUMPI PUSH1 0x0 DUP1 REVERT JUMPDEST POP JUMP JUMPDEST PUSH1 0x0 DUP2 MLOAD SWAP1 POP PUSH3 0x222 DUP2 PUSH3 0x1F7 JUMP JUMPDEST SWAP3 SWAP2 POP POP JUMP JUMPDEST PUSH1 0x0 DUP1 REVERT JUMPDEST PUSH1 0x0 DUP1 REVERT JUMPDEST PUSH1 0x0 PUSH1 0x1F NOT PUSH1 0x1F DUP4 ADD AND SWAP1 POP SWAP2 SWAP1 POP JUMP JUMPDEST PUSH32 0x4E487B7100000000000000000000000000000000000000000000000000000000 PUSH1 0x0 MSTORE PUSH1 0x41 PUSH1 0x4 MSTORE PUSH1 0x24 PUSH1 0x0 REVERT JUMPDEST PUSH3 0x27D DUP3 PUSH3 0x232 JUMP JUMPDEST DUP2 ADD DUP2 DUP2 LT PUSH8 0xFFFFFFFFFFFFFFFF DUP3 GT OR ISZERO PUSH3 0x29F JUMPI PUSH3 0x29E PUSH3 0x243 JUMP JUMPDEST JUMPDEST DUP1 PUSH1 0x40 MSTORE POP POP POP JUMP JUMPDEST PUSH1 0x0 PUSH3 0x2B4 PUSH3 0x174 JUMP JUMPDEST SWAP1 POP PUSH3 0x2C2 DUP3 DUP3 PUSH3 0x272 JUMP JUMPDEST SWAP2 SWAP1 POP JUMP JUMPDEST PUSH1 0x0 PUSH8 0xFFFFFFFFFFFFFFFF DUP3 GT ISZERO PUSH3 0x2E5 JUMPI PUSH3 0x2E4 PUSH3 0x243 JUMP JUMPDEST JUMPDEST PUSH3 0x2F0 DUP3 PUSH3 0x232 JUMP JUMPDEST SWAP1 POP PUSH1 0x20 DUP2 ADD SWAP1 POP SWAP2 SWAP1 POP JUMP JUMPDEST PUSH1 0x0 JUMPDEST DUP4 DUP2 LT ISZERO PUSH3 0x31D JUMPI DUP1 DUP3 ADD MLOAD DUP2 DUP5 ADD MSTORE PUSH1 0x20 DUP2 ADD SWAP1 POP PUSH3 0x300 JUMP JUMPDEST DUP4 DUP2 GT ISZERO PUSH3 0x32D JUMPI PUSH1 0x0 DUP5 DUP5 ADD MSTORE JUMPDEST POP POP POP POP JUMP JUMPDEST PUSH1 0x0 PUSH3 0x34A PUSH3 0x344 DUP5 PUSH3 0x2C7 JUMP JUMPDEST PUSH3 0x2A8 JUMP JUMPDEST SWAP1 POP DUP3 DUP2 MSTORE PUSH1 0x20 DUP2 ADD DUP5 DUP5 DUP5 ADD GT ISZERO PUSH3 0x369 JUMPI PUSH3 0x368 PUSH3 0x22D JUMP JUMPDEST JUMPDEST PUSH3 0x376 DUP5 DUP3 DUP6 PUSH3 0x2FD JUMP JUMPDEST POP SWAP4 SWAP3 POP POP POP JUMP JUMPDEST PUSH1 0x0 DUP3 PUSH1 0x1F DUP4 ADD SLT PUSH3 0x396 JUMPI PUSH3 0x395 PUSH3 0x228 JUMP JUMPDEST JUMPDEST DUP2 MLOAD PUSH3 0x3A8 DUP5 DUP3 PUSH1 0x20 DUP7 ADD PUSH3 0x333 JUMP JUMPDEST SWAP2 POP POP SWAP3 SWAP2 POP POP JUMP JUMPDEST PUSH1 0x0 DUP1 PUSH1 0x0 DUP1 PUSH1 0x80 DUP6 DUP8 SUB SLT ISZERO PUSH3 0x3CE JUMPI PUSH3 0x3CD PUSH3 0x17E JUMP JUMPDEST JUMPDEST PUSH1 0x0 PUSH3 0x3DE DUP8 DUP3 DUP9 ADD PUSH3 0x1AC JUMP JUMPDEST SWAP5 POP POP PUSH1 0x20 PUSH3 0x3F1 DUP8 DUP3 DUP9 ADD PUSH3 0x211 JUMP JUMPDEST SWAP4 POP POP PUSH1 0x40 DUP6 ADD MLOAD PUSH8 0xFFFFFFFFFFFFFFFF DUP2 GT ISZERO PUSH3 0x415 JUMPI PUSH3 0x414 PUSH3 0x183 JUMP JUMPDEST JUMPDEST PUSH3 0x423 DUP8 DUP3 DUP9 ADD PUSH3 0x37E JUMP JUMPDEST SWAP3 POP POP PUSH1 0x60 DUP6 ADD MLOAD PUSH8 0xFFFFFFFFFFFFFFFF DUP2 GT ISZERO PUSH3 0x447 JUMPI PUSH3 0x446 PUSH3 0x183 JUMP JUMPDEST JUMPDEST PUSH3 0x455 DUP8 DUP3 DUP9 ADD PUSH3 0x37E JUMP JUMPDEST SWAP2 POP POP SWAP3 SWAP6 SWAP2 SWAP5 POP SWAP3 POP JUMP JUMPDEST PUSH32 0x4E487B7100000000000000000000000000000000000000000000000000000000 PUSH1 0x0 MSTORE PUSH1 0x22 PUSH1 0x4 MSTORE PUSH1 0x24 PUSH1 0x0 REVERT JUMPDEST PUSH1 0x0 PUSH1 0x2 DUP3 DIV SWAP1 POP PUSH1 0x1 DUP3 AND DUP1 PUSH3 0x4A9 JUMPI PUSH1 0x7F DUP3 AND SWAP2 POP JUMPDEST PUSH1 0x20 DUP3 LT DUP2 EQ ISZERO PUSH3 0x4C0 JUMPI PUSH3 0x4BF PUSH3 0x461 JUMP JUMPDEST JUMPDEST POP SWAP2 SWAP1 POP JUMP JUMPDEST PUSH2 0x1014 DUP1 PUSH3 0x4D6 PUSH1 0x0 CODECOPY PUSH1 0x0 RETURN INVALID PUSH1 0x80 PUSH1 0x40 MSTORE PUSH1 0x4 CALLDATASIZE LT PUSH2 0x9C JUMPI PUSH1 0x0 CALLDATALOAD PUSH1 0xE0 SHR DUP1 PUSH4 0x481C6A75 GT PUSH2 0x64 JUMPI DUP1 PUSH4 0x481C6A75 EQ PUSH2 0x1A4 JUMPI DUP1 PUSH4 0x82FDE093 EQ PUSH2 0x1CF JUMPI DUP1 PUSH4 0x8A9CFD55 EQ PUSH2 0x1FA JUMPI DUP1 PUSH4 0x937E09B1 EQ PUSH2 0x223 JUMPI DUP1 PUSH4 0xD7BB99BA EQ PUSH2 0x24E JUMPI DUP1 PUSH4 0xD7D1BBDB EQ PUSH2 0x258 JUMPI PUSH2 0x9C JUMP JUMPDEST DUP1 PUSH4 0x3441006 EQ PUSH2 0xA1 JUMPI DUP1 PUSH4 0xA144391 EQ PUSH2 0xCA JUMPI DUP1 PUSH4 0x3410452A EQ PUSH2 0x107 JUMPI DUP1 PUSH4 0x353161EF EQ PUSH2 0x132 JUMPI DUP1 PUSH4 0x4051DDAC EQ PUSH2 0x173 JUMPI JUMPDEST PUSH1 0x0 DUP1 REVERT JUMPDEST CALLVALUE DUP1 ISZERO PUSH2 0xAD JUMPI PUSH1 0x0 DUP1 REVERT JUMPDEST POP PUSH2 0xC8 PUSH1 0x4 DUP1 CALLDATASIZE SUB DUP2 ADD SWAP1 PUSH2 0xC3 SWAP2 SWAP1 PUSH2 0xA2E JUMP JUMPDEST PUSH2 0x281 JUMP JUMPDEST STOP JUMPDEST CALLVALUE DUP1 ISZERO PUSH2 0xD6 JUMPI PUSH1 0x0 DUP1 REVERT JUMPDEST POP PUSH2 0xF1 PUSH1 0x4 DUP1 CALLDATASIZE SUB DUP2 ADD SWAP1 PUSH2 0xEC SWAP2 SWAP1 PUSH2 0xAB9 JUMP JUMPDEST PUSH2 0x3BA JUMP JUMPDEST PUSH1 0x40 MLOAD PUSH2 0xFE SWAP2 SWAP1 PUSH2 0xB01 JUMP JUMPDEST PUSH1 0x40 MLOAD DUP1 SWAP2 SUB SWAP1 RETURN JUMPDEST CALLVALUE DUP1 ISZERO PUSH2 0x113 JUMPI PUSH1 0x0 DUP1 REVERT JUMPDEST POP PUSH2 0x11C PUSH2 0x3DA JUMP JUMPDEST PUSH1 0x40 MLOAD PUSH2 0x129 SWAP2 SWAP1 PUSH2 0xB2B JUMP JUMPDEST PUSH1 0x40 MLOAD DUP1 SWAP2 SUB SWAP1 RETURN JUMPDEST CALLVALUE DUP1 ISZERO PUSH2 0x13E JUMPI PUSH1 0x0 DUP1 REVERT JUMPDEST POP PUSH2 0x159 PUSH1 0x4 DUP1 CALLDATASIZE SUB DUP2 ADD SWAP1 PUSH2 0x154 SWAP2 SWAP1 PUSH2 0xA2E JUMP JUMPDEST PUSH2 0x3E4 JUMP JUMPDEST PUSH1 0x40 MLOAD PUSH2 0x16A SWAP6 SWAP5 SWAP4 SWAP3 SWAP2 SWAP1 PUSH2 0xC00 JUMP JUMPDEST PUSH1 0x40 MLOAD DUP1 SWAP2 SUB SWAP1 RETURN JUMPDEST CALLVALUE DUP1 ISZERO PUSH2 0x17F JUMPI PUSH1 0x0 DUP1 REVERT JUMPDEST POP PUSH2 0x188 PUSH2 0x4CF JUMP JUMPDEST PUSH1 0x40 MLOAD PUSH2 0x19B SWAP8 SWAP7 SWAP6 SWAP5 SWAP4 SWAP3 SWAP2 SWAP1 PUSH2 0xC69 JUMP JUMPDEST PUSH1 0x40 MLOAD DUP1 SWAP2 SUB SWAP1 RETURN JUMPDEST CALLVALUE DUP1 ISZERO PUSH2 0x1B0 JUMPI PUSH1 0x0 DUP1 REVERT JUMPDEST POP PUSH2 0x1B9 PUSH2 0x638 JUMP JUMPDEST PUSH1 0x40 MLOAD PUSH2 0x1C6 SWAP2 SWAP1 PUSH2 0xCE6 JUMP JUMPDEST PUSH1 0x40 MLOAD DUP1 SWAP2 SUB SWAP1 RETURN JUMPDEST CALLVALUE DUP1 ISZERO PUSH2 0x1DB JUMPI PUSH1 0x0 DUP1 REVERT JUMPDEST POP PUSH2 0x1E4 PUSH2 0x65C JUMP JUMPDEST PUSH1 0x40 MLOAD PUSH2 0x1F1 SWAP2 SWAP1 PUSH2 0xB2B JUMP JUMPDEST PUSH1 0x40 MLOAD DUP1 SWAP2 SUB SWAP1 RETURN JUMPDEST CALLVALUE DUP1 ISZERO PUSH2 0x206 JUMPI PUSH1 0x0 DUP1 REVERT JUMPDEST POP PUSH2 0x221 PUSH1 0x4 DUP1 CALLDATASIZE SUB DUP2 ADD SWAP1 PUSH2 0x21C SWAP2 SWAP1 PUSH2 0xE36 JUMP JUMPDEST PUSH2 0x662 JUMP JUMPDEST STOP JUMPDEST CALLVALUE DUP1 ISZERO PUSH2 0x22F JUMPI PUSH1 0x0 DUP1 REVERT JUMPDEST POP PUSH2 0x238 PUSH2 0x77D JUMP JUMPDEST PUSH1 0x40 MLOAD PUSH2 0x245 SWAP2 SWAP1 PUSH2 0xB2B JUMP JUMPDEST PUSH1 0x40 MLOAD DUP1 SWAP2 SUB SWAP1 RETURN JUMPDEST PUSH2 0x256 PUSH2 0x783 JUMP JUMPDEST STOP JUMPDEST CALLVALUE DUP1 ISZERO PUSH2 0x264 JUMPI PUSH1 0x0 DUP1 REVERT JUMPDEST POP PUSH2 0x27F PUSH1 0x4 DUP1 CALLDATASIZE SUB DUP2 ADD SWAP1 PUSH2 0x27A SWAP2 SWAP1 PUSH2 0xA2E JUMP JUMPDEST PUSH2 0x803 JUMP JUMPDEST STOP JUMPDEST PUSH1 0x0 DUP1 SLOAD SWAP1 PUSH2 0x100 EXP SWAP1 DIV PUSH20 0xFFFFFFFFFFFFFFFFFFFFFFFFFFFFFFFFFFFFFFFF AND PUSH20 0xFFFFFFFFFFFFFFFFFFFFFFFFFFFFFFFFFFFFFFFF AND CALLER PUSH20 0xFFFFFFFFFFFFFFFFFFFFFFFFFFFFFFFFFFFFFFFF AND EQ PUSH2 0x2D9 JUMPI PUSH1 0x0 DUP1 REVERT JUMPDEST PUSH1 0x0 PUSH1 0x7 PUSH1 0x0 DUP4 DUP2 MSTORE PUSH1 0x20 ADD SWAP1 DUP2 MSTORE PUSH1 0x20 ADD PUSH1 0x0 KECCAK256 SWAP1 POP DUP1 PUSH1 0x2 ADD PUSH1 0x14 SWAP1 SLOAD SWAP1 PUSH2 0x100 EXP SWAP1 DIV PUSH1 0xFF AND ISZERO PUSH2 0x30C JUMPI PUSH1 0x0 DUP1 REVERT JUMPDEST PUSH1 0x2 PUSH1 0x5 SLOAD PUSH2 0x31B SWAP2 SWAP1 PUSH2 0xF03 JUMP JUMPDEST DUP2 PUSH1 0x3 ADD SLOAD GT PUSH2 0x32A JUMPI PUSH1 0x0 DUP1 REVERT JUMPDEST DUP1 PUSH1 0x2 ADD PUSH1 0x0 SWAP1 SLOAD SWAP1 PUSH2 0x100 EXP SWAP1 DIV PUSH20 0xFFFFFFFFFFFFFFFFFFFFFFFFFFFFFFFFFFFFFFFF AND PUSH20 0xFFFFFFFFFFFFFFFFFFFFFFFFFFFFFFFFFFFFFFFF AND PUSH2 0x8FC DUP3 PUSH1 0x1 ADD SLOAD SWAP1 DUP2 ISZERO MUL SWAP1 PUSH1 0x40 MLOAD PUSH1 0x0 PUSH1 0x40 MLOAD DUP1 DUP4 SUB DUP2 DUP6 DUP9 DUP9 CALL SWAP4 POP POP POP POP ISZERO DUP1 ISZERO PUSH2 0x398 JUMPI RETURNDATASIZE PUSH1 0x0 DUP1 RETURNDATACOPY RETURNDATASIZE PUSH1 0x0 REVERT JUMPDEST POP PUSH1 0x1 DUP2 PUSH1 0x2 ADD PUSH1 0x14 PUSH2 0x100 EXP DUP2 SLOAD DUP2 PUSH1 0xFF MUL NOT AND SWAP1 DUP4 ISZERO ISZERO MUL OR SWAP1 SSTORE POP POP POP JUMP JUMPDEST PUSH1 0x4 PUSH1 0x20 MSTORE DUP1 PUSH1 0x0 MSTORE PUSH1 0x40 PUSH1 0x0 KECCAK256 PUSH1 0x0 SWAP2 POP SLOAD SWAP1 PUSH2 0x100 EXP SWAP1 DIV PUSH1 0xFF AND DUP2 JUMP JUMPDEST PUSH1 0x0 PUSH1 0x6 SLOAD SWAP1 POP SWAP1 JUMP JUMPDEST PUSH1 0x7 PUSH1 0x20 MSTORE DUP1 PUSH1 0x0 MSTORE PUSH1 0x40 PUSH1 0x0 KECCAK256 PUSH1 0x0 SWAP2 POP SWAP1 POP DUP1 PUSH1 0x0 ADD DUP1 SLOAD PUSH2 0x407 SWAP1 PUSH2 0xF63 JUMP JUMPDEST DUP1 PUSH1 0x1F ADD PUSH1 0x20 DUP1 SWAP2 DIV MUL PUSH1 0x20 ADD PUSH1 0x40 MLOAD SWAP1 DUP2 ADD PUSH1 0x40 MSTORE DUP1 SWAP3 SWAP2 SWAP1 DUP2 DUP2 MSTORE PUSH1 0x20 ADD DUP3 DUP1 SLOAD PUSH2 0x433 SWAP1 PUSH2 0xF63 JUMP JUMPDEST DUP1 ISZERO PUSH2 0x480 JUMPI DUP1 PUSH1 0x1F LT PUSH2 0x455 JUMPI PUSH2 0x100 DUP1 DUP4 SLOAD DIV MUL DUP4 MSTORE SWAP2 PUSH1 0x20 ADD SWAP2 PUSH2 0x480 JUMP JUMPDEST DUP3 ADD SWAP2 SWAP1 PUSH1 0x0 MSTORE PUSH1 0x20 PUSH1 0x0 KECCAK256 SWAP1 JUMPDEST DUP2 SLOAD DUP2 MSTORE SWAP1 PUSH1 0x1 ADD SWAP1 PUSH1 0x20 ADD DUP1 DUP4 GT PUSH2 0x463 JUMPI DUP3 SWAP1 SUB PUSH1 0x1F AND DUP3 ADD SWAP2 JUMPDEST POP POP POP POP POP SWAP1 DUP1 PUSH1 0x1 ADD SLOAD SWAP1 DUP1 PUSH1 0x2 ADD PUSH1 0x0 SWAP1 SLOAD SWAP1 PUSH2 0x100 EXP SWAP1 DIV PUSH20 0xFFFFFFFFFFFFFFFFFFFFFFFFFFFFFFFFFFFFFFFF AND SWAP1 DUP1 PUSH1 0x2 ADD PUSH1 0x14 SWAP1 SLOAD SWAP1 PUSH2 0x100 EXP SWAP1 DIV PUSH1 0xFF AND SWAP1 DUP1 PUSH1 0x3 ADD SLOAD SWAP1 POP DUP6 JUMP JUMPDEST PUSH1 0x0 DUP1 PUSH1 0x0 DUP1 PUSH1 0x0 PUSH1 0x60 DUP1 PUSH1 0x1 SLOAD SELFBALANCE PUSH1 0x6 SLOAD PUSH1 0x5 SLOAD PUSH1 0x0 DUP1 SLOAD SWAP1 PUSH2 0x100 EXP SWAP1 DIV PUSH20 0xFFFFFFFFFFFFFFFFFFFFFFFFFFFFFFFFFFFFFFFF AND PUSH1 0x2 PUSH1 0x3 DUP2 DUP1 SLOAD PUSH2 0x515 SWAP1 PUSH2 0xF63 JUMP JUMPDEST DUP1 PUSH1 0x1F ADD PUSH1 0x20 DUP1 SWAP2 DIV MUL PUSH1 0x20 ADD PUSH1 0x40 MLOAD SWAP1 DUP2 ADD PUSH1 0x40 MSTORE DUP1 SWAP3 SWAP2 SWAP1 DUP2 DUP2 MSTORE PUSH1 0x20 ADD DUP3 DUP1 SLOAD PUSH2 0x541 SWAP1 PUSH2 0xF63 JUMP JUMPDEST DUP1 ISZERO PUSH2 0x58E JUMPI DUP1 PUSH1 0x1F LT PUSH2 0x563 JUMPI PUSH2 0x100 DUP1 DUP4 SLOAD DIV MUL DUP4 MSTORE SWAP2 PUSH1 0x20 ADD SWAP2 PUSH2 0x58E JUMP JUMPDEST DUP3 ADD SWAP2 SWAP1 PUSH1 0x0 MSTORE PUSH1 0x20 PUSH1 0x0 KECCAK256 SWAP1 JUMPDEST DUP2 SLOAD DUP2 MSTORE SWAP1 PUSH1 0x1 ADD SWAP1 PUSH1 0x20 ADD DUP1 DUP4 GT PUSH2 0x571 JUMPI DUP3 SWAP1 SUB PUSH1 0x1F AND DUP3 ADD SWAP2 JUMPDEST POP POP POP POP POP SWAP2 POP DUP1 DUP1 SLOAD PUSH2 0x5A1 SWAP1 PUSH2 0xF63 JUMP JUMPDEST DUP1 PUSH1 0x1F ADD PUSH1 0x20 DUP1 SWAP2 DIV MUL PUSH1 0x20 ADD PUSH1 0x40 MLOAD SWAP1 DUP2 ADD PUSH1 0x40 MSTORE DUP1 SWAP3 SWAP2 SWAP1 DUP2 DUP2 MSTORE PUSH1 0x20 ADD DUP3 DUP1 SLOAD PUSH2 0x5CD SWAP1 PUSH2 0xF63 JUMP JUMPDEST DUP1 ISZERO PUSH2 0x61A JUMPI DUP1 PUSH1 0x1F LT PUSH2 0x5EF JUMPI PUSH2 0x100 DUP1 DUP4 SLOAD DIV MUL DUP4 MSTORE SWAP2 PUSH1 0x20 ADD SWAP2 PUSH2 0x61A JUMP JUMPDEST DUP3 ADD SWAP2 SWAP1 PUSH1 0x0 MSTORE PUSH1 0x20 PUSH1 0x0 KECCAK256 SWAP1 JUMPDEST DUP2 SLOAD DUP2 MSTORE SWAP1 PUSH1 0x1 ADD SWAP1 PUSH1 0x20 ADD DUP1 DUP4 GT PUSH2 0x5FD JUMPI DUP3 SWAP1 SUB PUSH1 0x1F AND DUP3 ADD SWAP2 JUMPDEST POP POP POP POP POP SWAP1 POP SWAP7 POP SWAP7 POP SWAP7 POP SWAP7 POP SWAP7 POP SWAP7 POP SWAP7 POP SWAP1 SWAP2 SWAP3 SWAP4 SWAP5 SWAP6 SWAP7 JUMP JUMPDEST PUSH1 0x0 DUP1 SLOAD SWAP1 PUSH2 0x100 EXP SWAP1 DIV PUSH20 0xFFFFFFFFFFFFFFFFFFFFFFFFFFFFFFFFFFFFFFFF AND DUP2 JUMP JUMPDEST PUSH1 0x5 SLOAD DUP2 JUMP JUMPDEST PUSH1 0x0 DUP1 SLOAD SWAP1 PUSH2 0x100 EXP SWAP1 DIV PUSH20 0xFFFFFFFFFFFFFFFFFFFFFFFFFFFFFFFFFFFFFFFF AND PUSH20 0xFFFFFFFFFFFFFFFFFFFFFFFFFFFFFFFFFFFFFFFF AND CALLER PUSH20 0xFFFFFFFFFFFFFFFFFFFFFFFFFFFFFFFFFFFFFFFF AND EQ PUSH2 0x6BA JUMPI PUSH1 0x0 DUP1 REVERT JUMPDEST PUSH1 0x0 PUSH1 0x7 PUSH1 0x0 PUSH1 0x6 SLOAD DUP2 MSTORE PUSH1 0x20 ADD SWAP1 DUP2 MSTORE PUSH1 0x20 ADD PUSH1 0x0 KECCAK256 SWAP1 POP PUSH1 0x6 PUSH1 0x0 DUP2 SLOAD DUP1 SWAP3 SWAP2 SWAP1 PUSH2 0x6E6 SWAP1 PUSH2 0xF95 JUMP JUMPDEST SWAP2 SWAP1 POP SSTORE POP DUP4 DUP2 PUSH1 0x0 ADD SWAP1 DUP1 MLOAD SWAP1 PUSH1 0x20 ADD SWAP1 PUSH2 0x703 SWAP3 SWAP2 SWAP1 PUSH2 0x941 JUMP JUMPDEST POP DUP3 DUP2 PUSH1 0x1 ADD DUP2 SWAP1 SSTORE POP DUP2 DUP2 PUSH1 0x2 ADD PUSH1 0x0 PUSH2 0x100 EXP DUP2 SLOAD DUP2 PUSH20 0xFFFFFFFFFFFFFFFFFFFFFFFFFFFFFFFFFFFFFFFF MUL NOT AND SWAP1 DUP4 PUSH20 0xFFFFFFFFFFFFFFFFFFFFFFFFFFFFFFFFFFFFFFFF AND MUL OR SWAP1 SSTORE POP PUSH1 0x0 DUP2 PUSH1 0x2 ADD PUSH1 0x14 PUSH2 0x100 EXP DUP2 SLOAD DUP2 PUSH1 0xFF MUL NOT AND SWAP1 DUP4 ISZERO ISZERO MUL OR SWAP1 SSTORE POP PUSH1 0x0 DUP2 PUSH1 0x3 ADD DUP2 SWAP1 SSTORE POP POP POP POP POP JUMP JUMPDEST PUSH1 0x1 SLOAD DUP2 JUMP JUMPDEST PUSH1 0x1 SLOAD CALLVALUE GT PUSH2 0x791 JUMPI PUSH1 0x0 DUP1 REVERT JUMPDEST PUSH1 0x1 PUSH1 0x4 PUSH1 0x0 CALLER PUSH20 0xFFFFFFFFFFFFFFFFFFFFFFFFFFFFFFFFFFFFFFFF AND PUSH20 0xFFFFFFFFFFFFFFFFFFFFFFFFFFFFFFFFFFFFFFFF AND DUP2 MSTORE PUSH1 0x20 ADD SWAP1 DUP2 MSTORE PUSH1 0x20 ADD PUSH1 0x0 KECCAK256 PUSH1 0x0 PUSH2 0x100 EXP DUP2 SLOAD DUP2 PUSH1 0xFF MUL NOT AND SWAP1 DUP4 ISZERO ISZERO MUL OR SWAP1 SSTORE POP PUSH1 0x5 PUSH1 0x0 DUP2 SLOAD DUP1 SWAP3 SWAP2 SWAP1 PUSH2 0x7FC SWAP1 PUSH2 0xF95 JUMP JUMPDEST SWAP2 SWAP1 POP SSTORE POP JUMP JUMPDEST PUSH1 0x0 PUSH1 0x7 PUSH1 0x0 DUP4 DUP2 MSTORE PUSH1 0x20 ADD SWAP1 DUP2 MSTORE PUSH1 0x20 ADD PUSH1 0x0 KECCAK256 SWAP1 POP PUSH1 0x4 PUSH1 0x0 CALLER PUSH20 0xFFFFFFFFFFFFFFFFFFFFFFFFFFFFFFFFFFFFFFFF AND PUSH20 0xFFFFFFFFFFFFFFFFFFFFFFFFFFFFFFFFFFFFFFFF AND DUP2 MSTORE PUSH1 0x20 ADD SWAP1 DUP2 MSTORE PUSH1 0x20 ADD PUSH1 0x0 KECCAK256 PUSH1 0x0 SWAP1 SLOAD SWAP1 PUSH2 0x100 EXP SWAP1 DIV PUSH1 0xFF AND PUSH2 0x870 JUMPI PUSH1 0x0 DUP1 REVERT JUMPDEST DUP1 PUSH1 0x4 ADD PUSH1 0x0 CALLER PUSH20 0xFFFFFFFFFFFFFFFFFFFFFFFFFFFFFFFFFFFFFFFF AND PUSH20 0xFFFFFFFFFFFFFFFFFFFFFFFFFFFFFFFFFFFFFFFF AND DUP2 MSTORE PUSH1 0x20 ADD SWAP1 DUP2 MSTORE PUSH1 0x20 ADD PUSH1 0x0 KECCAK256 PUSH1 0x0 SWAP1 SLOAD SWAP1 PUSH2 0x100 EXP SWAP1 DIV PUSH1 0xFF AND ISZERO PUSH2 0x8C9 JUMPI PUSH1 0x0 DUP1 REVERT JUMPDEST DUP1 PUSH1 0x3 ADD PUSH1 0x0 DUP2 SLOAD DUP1 SWAP3 SWAP2 SWAP1 PUSH2 0x8DE SWAP1 PUSH2 0xF95 JUMP JUMPDEST SWAP2 SWAP1 POP SSTORE POP PUSH1 0x1 DUP2 PUSH1 0x4 ADD PUSH1 0x0 CALLER PUSH20 0xFFFFFFFFFFFFFFFFFFFFFFFFFFFFFFFFFFFFFFFF AND PUSH20 0xFFFFFFFFFFFFFFFFFFFFFFFFFFFFFFFFFFFFFFFF AND DUP2 MSTORE PUSH1 0x20 ADD SWAP1 DUP2 MSTORE PUSH1 0x20 ADD PUSH1 0x0 KECCAK256 PUSH1 0x0 PUSH2 0x100 EXP DUP2 SLOAD DUP2 PUSH1 0xFF MUL NOT AND SWAP1 DUP4 ISZERO ISZERO MUL OR SWAP1 SSTORE POP POP POP JUMP JUMPDEST DUP3 DUP1 SLOAD PUSH2 0x94D SWAP1 PUSH2 0xF63 JUMP JUMPDEST SWAP1 PUSH1 0x0 MSTORE PUSH1 0x20 PUSH1 0x0 KECCAK256 SWAP1 PUSH1 0x1F ADD PUSH1 0x20 SWAP1 DIV DUP2 ADD SWAP3 DUP3 PUSH2 0x96F JUMPI PUSH1 0x0 DUP6 SSTORE PUSH2 0x9B6 JUMP JUMPDEST DUP3 PUSH1 0x1F LT PUSH2 0x988 JUMPI DUP1 MLOAD PUSH1 0xFF NOT AND DUP4 DUP1 ADD OR DUP6 SSTORE PUSH2 0x9B6 JUMP JUMPDEST DUP3 DUP1 ADD PUSH1 0x1 ADD DUP6 SSTORE DUP3 ISZERO PUSH2 0x9B6 JUMPI SWAP2 DUP3 ADD JUMPDEST DUP3 DUP2 GT ISZERO PUSH2 0x9B5 JUMPI DUP3 MLOAD DUP3 SSTORE SWAP2 PUSH1 0x20 ADD SWAP2 SWAP1 PUSH1 0x1 ADD SWAP1 PUSH2 0x99A JUMP JUMPDEST JUMPDEST POP SWAP1 POP PUSH2 0x9C3 SWAP2 SWAP1 PUSH2 0x9C7 JUMP JUMPDEST POP SWAP1 JUMP JUMPDEST JUMPDEST DUP1 DUP3 GT ISZERO PUSH2 0x9E0 JUMPI PUSH1 0x0 DUP2 PUSH1 0x0 SWAP1 SSTORE POP PUSH1 0x1 ADD PUSH2 0x9C8 JUMP JUMPDEST POP SWAP1 JUMP JUMPDEST PUSH1 0x0 PUSH1 0x40 MLOAD SWAP1 POP SWAP1 JUMP JUMPDEST PUSH1 0x0 DUP1 REVERT JUMPDEST PUSH1 0x0 DUP1 REVERT JUMPDEST PUSH1 0x0 DUP2 SWAP1 POP SWAP2 SWAP1 POP JUMP JUMPDEST PUSH2 0xA0B DUP2 PUSH2 0x9F8 JUMP JUMPDEST DUP2 EQ PUSH2 0xA16 JUMPI PUSH1 0x0 DUP1 REVERT JUMPDEST POP JUMP JUMPDEST PUSH1 0x0 DUP2 CALLDATALOAD SWAP1 POP PUSH2 0xA28 DUP2 PUSH2 0xA02 JUMP JUMPDEST SWAP3 SWAP2 POP POP JUMP JUMPDEST PUSH1 0x0 PUSH1 0x20 DUP3 DUP5 SUB SLT ISZERO PUSH2 0xA44 JUMPI PUSH2 0xA43 PUSH2 0x9EE JUMP JUMPDEST JUMPDEST PUSH1 0x0 PUSH2 0xA52 DUP5 DUP3 DUP6 ADD PUSH2 0xA19 JUMP JUMPDEST SWAP2 POP POP SWAP3 SWAP2 POP POP JUMP JUMPDEST PUSH1 0x0 PUSH20 0xFFFFFFFFFFFFFFFFFFFFFFFFFFFFFFFFFFFFFFFF DUP3 AND SWAP1 POP SWAP2 SWAP1 POP JUMP JUMPDEST PUSH1 0x0 PUSH2 0xA86 DUP3 PUSH2 0xA5B JUMP JUMPDEST SWAP1 POP SWAP2 SWAP1 POP JUMP JUMPDEST PUSH2 0xA96 DUP2 PUSH2 0xA7B JUMP JUMPDEST DUP2 EQ PUSH2 0xAA1 JUMPI PUSH1 0x0 DUP1 REVERT JUMPDEST POP JUMP JUMPDEST PUSH1 0x0 DUP2 CALLDATALOAD SWAP1 POP PUSH2 0xAB3 DUP2 PUSH2 0xA8D JUMP JUMPDEST SWAP3 SWAP2 POP POP JUMP JUMPDEST PUSH1 0x0 PUSH1 0x20 DUP3 DUP5 SUB SLT ISZERO PUSH2 0xACF JUMPI PUSH2 0xACE PUSH2 0x9EE JUMP JUMPDEST JUMPDEST PUSH1 0x0 PUSH2 0xADD DUP5 DUP3 DUP6 ADD PUSH2 0xAA4 JUMP JUMPDEST SWAP2 POP POP SWAP3 SWAP2 POP POP JUMP JUMPDEST PUSH1 0x0 DUP2 ISZERO ISZERO SWAP1 POP SWAP2 SWAP1 POP JUMP JUMPDEST PUSH2 0xAFB DUP2 PUSH2 0xAE6 JUMP JUMPDEST DUP3 MSTORE POP POP JUMP JUMPDEST PUSH1 0x0 PUSH1 0x20 DUP3 ADD SWAP1 POP PUSH2 0xB16 PUSH1 0x0 DUP4 ADD DUP5 PUSH2 0xAF2 JUMP JUMPDEST SWAP3 SWAP2 POP POP JUMP JUMPDEST PUSH2 0xB25 DUP2 PUSH2 0x9F8 JUMP JUMPDEST DUP3 MSTORE POP POP JUMP JUMPDEST PUSH1 0x0 PUSH1 0x20 DUP3 ADD SWAP1 POP PUSH2 0xB40 PUSH1 0x0 DUP4 ADD DUP5 PUSH2 0xB1C JUMP JUMPDEST SWAP3 SWAP2 POP POP JUMP JUMPDEST PUSH1 0x0 DUP2 MLOAD SWAP1 POP SWAP2 SWAP1 POP JUMP JUMPDEST PUSH1 0x0 DUP3 DUP3 MSTORE PUSH1 0x20 DUP3 ADD SWAP1 POP SWAP3 SWAP2 POP POP JUMP JUMPDEST PUSH1 0x0 JUMPDEST DUP4 DUP2 LT ISZERO PUSH2 0xB80 JUMPI DUP1 DUP3 ADD MLOAD DUP2 DUP5 ADD MSTORE PUSH1 0x20 DUP2 ADD SWAP1 POP PUSH2 0xB65 JUMP JUMPDEST DUP4 DUP2 GT ISZERO PUSH2 0xB8F JUMPI PUSH1 0x0 DUP5 DUP5 ADD MSTORE JUMPDEST POP POP POP POP JUMP JUMPDEST PUSH1 0x0 PUSH1 0x1F NOT PUSH1 0x1F DUP4 ADD AND SWAP1 POP SWAP2 SWAP1 POP JUMP JUMPDEST PUSH1 0x0 PUSH2 0xBB1 DUP3 PUSH2 0xB46 JUMP JUMPDEST PUSH2 0xBBB DUP2 DUP6 PUSH2 0xB51 JUMP JUMPDEST SWAP4 POP PUSH2 0xBCB DUP2 DUP6 PUSH1 0x20 DUP7 ADD PUSH2 0xB62 JUMP JUMPDEST PUSH2 0xBD4 DUP2 PUSH2 0xB95 JUMP JUMPDEST DUP5 ADD SWAP2 POP POP SWAP3 SWAP2 POP POP JUMP JUMPDEST PUSH1 0x0 PUSH2 0xBEA DUP3 PUSH2 0xA5B JUMP JUMPDEST SWAP1 POP SWAP2 SWAP1 POP JUMP JUMPDEST PUSH2 0xBFA DUP2 PUSH2 0xBDF JUMP JUMPDEST DUP3 MSTORE POP POP JUMP JUMPDEST PUSH1 0x0 PUSH1 0xA0 DUP3 ADD SWAP1 POP DUP2 DUP2 SUB PUSH1 0x0 DUP4 ADD MSTORE PUSH2 0xC1A DUP2 DUP9 PUSH2 0xBA6 JUMP JUMPDEST SWAP1 POP PUSH2 0xC29 PUSH1 0x20 DUP4 ADD DUP8 PUSH2 0xB1C JUMP JUMPDEST PUSH2 0xC36 PUSH1 0x40 DUP4 ADD DUP7 PUSH2 0xBF1 JUMP JUMPDEST PUSH2 0xC43 PUSH1 0x60 DUP4 ADD DUP6 PUSH2 0xAF2 JUMP JUMPDEST PUSH2 0xC50 PUSH1 0x80 DUP4 ADD DUP5 PUSH2 0xB1C JUMP JUMPDEST SWAP7 SWAP6 POP POP POP POP POP POP JUMP JUMPDEST PUSH2 0xC63 DUP2 PUSH2 0xA7B JUMP JUMPDEST DUP3 MSTORE POP POP JUMP JUMPDEST PUSH1 0x0 PUSH1 0xE0 DUP3 ADD SWAP1 POP PUSH2 0xC7E PUSH1 0x0 DUP4 ADD DUP11 PUSH2 0xB1C JUMP JUMPDEST PUSH2 0xC8B PUSH1 0x20 DUP4 ADD DUP10 PUSH2 0xB1C JUMP JUMPDEST PUSH2 0xC98 PUSH1 0x40 DUP4 ADD DUP9 PUSH2 0xB1C JUMP JUMPDEST PUSH2 0xCA5 PUSH1 0x60 DUP4 ADD DUP8 PUSH2 0xB1C JUMP JUMPDEST PUSH2 0xCB2 PUSH1 0x80 DUP4 ADD DUP7 PUSH2 0xC5A JUMP JUMPDEST DUP2 DUP2 SUB PUSH1 0xA0 DUP4 ADD MSTORE PUSH2 0xCC4 DUP2 DUP6 PUSH2 0xBA6 JUMP JUMPDEST SWAP1 POP DUP2 DUP2 SUB PUSH1 0xC0 DUP4 ADD MSTORE PUSH2 0xCD8 DUP2 DUP5 PUSH2 0xBA6 JUMP JUMPDEST SWAP1 POP SWAP9 SWAP8 POP POP POP POP POP POP POP POP JUMP JUMPDEST PUSH1 0x0 PUSH1 0x20 DUP3 ADD SWAP1 POP PUSH2 0xCFB PUSH1 0x0 DUP4 ADD DUP5 PUSH2 0xC5A JUMP JUMPDEST SWAP3 SWAP2 POP POP JUMP JUMPDEST PUSH1 0x0 DUP1 REVERT JUMPDEST PUSH1 0x0 DUP1 REVERT JUMPDEST PUSH32 0x4E487B7100000000000000000000000000000000000000000000000000000000 PUSH1 0x0 MSTORE PUSH1 0x41 PUSH1 0x4 MSTORE PUSH1 0x24 PUSH1 0x0 REVERT JUMPDEST PUSH2 0xD43 DUP3 PUSH2 0xB95 JUMP JUMPDEST DUP2 ADD DUP2 DUP2 LT PUSH8 0xFFFFFFFFFFFFFFFF DUP3 GT OR ISZERO PUSH2 0xD62 JUMPI PUSH2 0xD61 PUSH2 0xD0B JUMP JUMPDEST JUMPDEST DUP1 PUSH1 0x40 MSTORE POP POP POP JUMP JUMPDEST PUSH1 0x0 PUSH2 0xD75 PUSH2 0x9E4 JUMP JUMPDEST SWAP1 POP PUSH2 0xD81 DUP3 DUP3 PUSH2 0xD3A JUMP JUMPDEST SWAP2 SWAP1 POP JUMP JUMPDEST PUSH1 0x0 PUSH8 0xFFFFFFFFFFFFFFFF DUP3 GT ISZERO PUSH2 0xDA1 JUMPI PUSH2 0xDA0 PUSH2 0xD0B JUMP JUMPDEST JUMPDEST PUSH2 0xDAA DUP3 PUSH2 0xB95 JUMP JUMPDEST SWAP1 POP PUSH1 0x20 DUP2 ADD SWAP1 POP SWAP2 SWAP1 POP JUMP JUMPDEST DUP3 DUP2 DUP4 CALLDATACOPY PUSH1 0x0 DUP4 DUP4 ADD MSTORE POP POP POP JUMP JUMPDEST PUSH1 0x0 PUSH2 0xDD9 PUSH2 0xDD4 DUP5 PUSH2 0xD86 JUMP JUMPDEST PUSH2 0xD6B JUMP JUMPDEST SWAP1 POP DUP3 DUP2 MSTORE PUSH1 0x20 DUP2 ADD DUP5 DUP5 DUP5 ADD GT ISZERO PUSH2 0xDF5 JUMPI PUSH2 0xDF4 PUSH2 0xD06 JUMP JUMPDEST JUMPDEST PUSH2 0xE00 DUP5 DUP3 DUP6 PUSH2 0xDB7 JUMP JUMPDEST POP SWAP4 SWAP3 POP POP POP JUMP JUMPDEST PUSH1 0x0 DUP3 PUSH1 0x1F DUP4 ADD SLT PUSH2 0xE1D JUMPI PUSH2 0xE1C PUSH2 0xD01 JUMP JUMPDEST JUMPDEST DUP2 CALLDATALOAD PUSH2 0xE2D DUP5 DUP3 PUSH1 0x20 DUP7 ADD PUSH2 0xDC6 JUMP JUMPDEST SWAP2 POP POP SWAP3 SWAP2 POP POP JUMP JUMPDEST PUSH1 0x0 DUP1 PUSH1 0x0 PUSH1 0x60 DUP5 DUP7 SUB SLT ISZERO PUSH2 0xE4F JUMPI PUSH2 0xE4E PUSH2 0x9EE JUMP JUMPDEST JUMPDEST PUSH1 0x0 DUP5 ADD CALLDATALOAD PUSH8 0xFFFFFFFFFFFFFFFF DUP2 GT ISZERO PUSH2 0xE6D JUMPI PUSH2 0xE6C PUSH2 0x9F3 JUMP JUMPDEST JUMPDEST PUSH2 0xE79 DUP7 DUP3 DUP8 ADD PUSH2 0xE08 JUMP JUMPDEST SWAP4 POP POP PUSH1 0x20 PUSH2 0xE8A DUP7 DUP3 DUP8 ADD PUSH2 0xA19 JUMP JUMPDEST SWAP3 POP POP PUSH1 0x40 PUSH2 0xE9B DUP7 DUP3 DUP8 ADD PUSH2 0xAA4 JUMP JUMPDEST SWAP2 POP POP SWAP3 POP SWAP3 POP SWAP3 JUMP JUMPDEST PUSH32 0x4E487B7100000000000000000000000000000000000000000000000000000000 PUSH1 0x0 MSTORE PUSH1 0x12 PUSH1 0x4 MSTORE PUSH1 0x24 PUSH1 0x0 REVERT JUMPDEST PUSH32 0x4E487B7100000000000000000000000000000000000000000000000000000000 PUSH1 0x0 MSTORE PUSH1 0x11 PUSH1 0x4 MSTORE PUSH1 0x24 PUSH1 0x0 REVERT JUMPDEST PUSH1 0x0 PUSH2 0xF0E DUP3 PUSH2 0x9F8 JUMP JUMPDEST SWAP2 POP PUSH2 0xF19 DUP4 PUSH2 0x9F8 JUMP JUMPDEST SWAP3 POP DUP3 PUSH2 0xF29 JUMPI PUSH2 0xF28 PUSH2 0xEA5 JUMP JUMPDEST JUMPDEST DUP3 DUP3 DIV SWAP1 POP SWAP3 SWAP2 POP POP JUMP JUMPDEST PUSH32 0x4E487B7100000000000000000000000000000000000000000000000000000000 PUSH1 0x0 MSTORE PUSH1 0x22 PUSH1 0x4 MSTORE PUSH1 0x24 PUSH1 0x0 REVERT JUMPDEST PUSH1 0x0 PUSH1 0x2 DUP3 DIV SWAP1 POP PUSH1 0x1 DUP3 AND DUP1 PUSH2 0xF7B JUMPI PUSH1 0x7F DUP3 AND SWAP2 POP JUMPDEST PUSH1 0x20 DUP3 LT DUP2 EQ ISZERO PUSH2 0xF8F JUMPI PUSH2 0xF8E PUSH2 0xF34 JUMP JUMPDEST JUMPDEST POP SWAP2 SWAP1 POP JUMP JUMPDEST PUSH1 0x0 PUSH2 0xFA0 DUP3 PUSH2 0x9F8 JUMP JUMPDEST SWAP2 POP PUSH32 0xFFFFFFFFFFFFFFFFFFFFFFFFFFFFFFFFFFFFFFFFFFFFFFFFFFFFFFFFFFFFFFFF DUP3 EQ ISZERO PUSH2 0xFD3 JUMPI PUSH2 0xFD2 PUSH2 0xED4 JUMP JUMPDEST JUMPDEST PUSH1 0x1 DUP3 ADD SWAP1 POP SWAP2 SWAP1 POP JUMP INVALID LOG2 PUSH5 0x6970667358 0x22 SLT KECCAK256 REVERT PUSH9 0x9AEB941B8F04878842 MSTORE8 0x4D 0xC2 PUSH18 0xB601406573993EB4BDFF8AB4FCCB6999EF64 PUSH20 0x6F6C634300080A0033A264697066735822122004 0xBA 0xC7 NOT SWAP1 JUMPI 0xDC 0xB1 0xB4 MSIZE 0xEC TIMESTAMP 0xDB 0xDA 0xCA PUSH16 0x90093C259FDF5B7074EDEE056ABA2EE2 PUSH5 0x736F6C6343 STOP ADDMOD EXP STOP CALLER "},"gasEstimates":{"creation":{"codeDepositCost":"1445800","executionCost":"1506","totalCost":"1447306"},"external":{"createCampaign(uint256,string,string)":"infinite","deployedCampaigns(uint256)":"4934","getDeployedCampaigns()":"infinite"}},"methodIdentifiers":{"createCampaign(uint256,string,string)":"fad4dee3","deployedCampaigns(uint256)":"339d50a5","getDeployedCampaigns()":"4acb9d4f"}},"storageLayout":{"storage":[{"astId":4,"contract":"Campaign.sol:CampaignFactory","label":"deployedCampaigns","offset":0,"slot":"0","type":"t_array(t_address)dyn_storage"}],"types":{"t_address":{"encoding":"inplace","label":"address","numberOfBytes":"20"},"t_array(t_address)dyn_storage":{"base":"t_address","encoding":"dynamic_array","label":"address[]","numberOfBytes":"32"}}},"userdoc":{"kind":"user","methods":{},"version":1}}